{
  "_format": "hh-sol-artifact-1",
  "contractName": "EntranceChecker",
  "sourceName": "contracts/EntranceChecker.sol",
  "abi": [
    {
      "inputs": [
        {
          "internalType": "address",
          "name": "_ticketAddress",
          "type": "address"
        },
        {
          "internalType": "address",
          "name": "_owner",
          "type": "address"
        },
        {
          "internalType": "address",
          "name": "_trustedForwarder",
          "type": "address"
        }
      ],
      "stateMutability": "nonpayable",
      "type": "constructor"
    },
    {
      "inputs": [
        {
          "internalType": "address",
          "name": "owner",
          "type": "address"
        }
      ],
      "name": "OwnableInvalidOwner",
      "type": "error"
    },
    {
      "inputs": [
        {
          "internalType": "address",
          "name": "account",
          "type": "address"
        }
      ],
      "name": "OwnableUnauthorizedAccount",
      "type": "error"
    },
    {
      "anonymous": false,
      "inputs": [
        {
          "indexed": true,
          "internalType": "address",
          "name": "sender",
          "type": "address"
        },
        {
          "indexed": false,
          "internalType": "uint256",
          "name": "timestamp",
          "type": "uint256"
        },
        {
          "indexed": false,
          "internalType": "uint256",
          "name": "ticketId",
          "type": "uint256"
        }
      ],
      "name": "EntryRegistered",
      "type": "event"
    },
    {
      "anonymous": false,
      "inputs": [
        {
          "indexed": true,
          "internalType": "address",
          "name": "previousOwner",
          "type": "address"
        },
        {
          "indexed": true,
          "internalType": "address",
          "name": "newOwner",
          "type": "address"
        }
      ],
      "name": "OwnershipTransferred",
      "type": "event"
    },
    {
      "inputs": [
        {
          "internalType": "uint256",
          "name": "",
          "type": "uint256"
        }
      ],
      "name": "entries",
      "outputs": [
        {
          "internalType": "address",
          "name": "wallet",
          "type": "address"
        },
        {
          "internalType": "uint256",
          "name": "timestamp",
          "type": "uint256"
        },
        {
          "internalType": "uint256",
          "name": "ticketId",
          "type": "uint256"
        }
      ],
      "stateMutability": "view",
      "type": "function"
    },
    {
      "inputs": [
        {
          "internalType": "uint256",
          "name": "_ticketId",
          "type": "uint256"
        }
      ],
      "name": "entry",
      "outputs": [],
      "stateMutability": "nonpayable",
      "type": "function"
    },
    {
      "inputs": [],
      "name": "finishEvent",
      "outputs": [],
      "stateMutability": "nonpayable",
      "type": "function"
    },
    {
      "inputs": [],
      "name": "getEntries",
      "outputs": [
        {
          "components": [
            {
              "internalType": "address",
              "name": "wallet",
              "type": "address"
            },
            {
              "internalType": "uint256",
              "name": "timestamp",
              "type": "uint256"
            },
            {
              "internalType": "uint256",
              "name": "ticketId",
              "type": "uint256"
            }
          ],
          "internalType": "struct EntranceChecker.Entry[]",
          "name": "",
          "type": "tuple[]"
        }
      ],
      "stateMutability": "view",
      "type": "function"
    },
    {
      "inputs": [],
      "name": "getTicketAddress",
      "outputs": [
        {
          "internalType": "address",
          "name": "",
          "type": "address"
        }
      ],
      "stateMutability": "view",
      "type": "function"
    },
    {
      "inputs": [
        {
          "internalType": "address",
          "name": "_address",
          "type": "address"
        }
      ],
      "name": "hasEntry",
      "outputs": [
        {
          "internalType": "bool",
          "name": "",
          "type": "bool"
        }
      ],
      "stateMutability": "view",
      "type": "function"
    },
    {
      "inputs": [],
      "name": "isEventFinished",
      "outputs": [
        {
          "internalType": "bool",
          "name": "",
          "type": "bool"
        }
      ],
      "stateMutability": "view",
      "type": "function"
    },
    {
      "inputs": [
        {
          "internalType": "address",
          "name": "forwarder",
          "type": "address"
        }
      ],
      "name": "isTrustedForwarder",
      "outputs": [
        {
          "internalType": "bool",
          "name": "",
          "type": "bool"
        }
      ],
      "stateMutability": "view",
      "type": "function"
    },
    {
      "inputs": [],
      "name": "owner",
      "outputs": [
        {
          "internalType": "address",
          "name": "",
          "type": "address"
        }
      ],
      "stateMutability": "view",
      "type": "function"
    },
    {
      "inputs": [],
      "name": "renounceOwnership",
      "outputs": [],
      "stateMutability": "nonpayable",
      "type": "function"
    },
    {
      "inputs": [],
      "name": "ticketAddress",
      "outputs": [
        {
          "internalType": "address",
          "name": "",
          "type": "address"
        }
      ],
      "stateMutability": "view",
      "type": "function"
    },
    {
      "inputs": [
        {
          "internalType": "address",
          "name": "newOwner",
          "type": "address"
        }
      ],
      "name": "transferOwnership",
      "outputs": [],
      "stateMutability": "nonpayable",
      "type": "function"
    },
    {
      "inputs": [],
      "name": "trustedForwarder",
      "outputs": [
        {
          "internalType": "address",
          "name": "",
          "type": "address"
        }
      ],
      "stateMutability": "view",
      "type": "function"
    }
  ],
  "bytecode": "0x60a06040523480156200001157600080fd5b50604051620015183803806200151883398181016040528101906200003791906200026d565b81818073ffffffffffffffffffffffffffffffffffffffff1660808173ffffffffffffffffffffffffffffffffffffffff168152505050600073ffffffffffffffffffffffffffffffffffffffff168173ffffffffffffffffffffffffffffffffffffffff1603620000e35760006040517f1e4fbdf7000000000000000000000000000000000000000000000000000000008152600401620000da9190620002da565b60405180910390fd5b620000f4816200013f60201b60201c565b5082600160006101000a81548173ffffffffffffffffffffffffffffffffffffffff021916908373ffffffffffffffffffffffffffffffffffffffff160217905550505050620002f7565b60008060009054906101000a900473ffffffffffffffffffffffffffffffffffffffff169050816000806101000a81548173ffffffffffffffffffffffffffffffffffffffff021916908373ffffffffffffffffffffffffffffffffffffffff1602179055508173ffffffffffffffffffffffffffffffffffffffff168173ffffffffffffffffffffffffffffffffffffffff167f8be0079c531659141344cd1fd0a4f28419497f9722a3daafe3b4186f6b6457e060405160405180910390a35050565b600080fd5b600073ffffffffffffffffffffffffffffffffffffffff82169050919050565b6000620002358262000208565b9050919050565b620002478162000228565b81146200025357600080fd5b50565b60008151905062000267816200023c565b92915050565b60008060006060848603121562000289576200028862000203565b5b6000620002998682870162000256565b9350506020620002ac8682870162000256565b9250506040620002bf8682870162000256565b9150509250925092565b620002d48162000228565b82525050565b6000602082019050620002f16000830184620002c9565b92915050565b6080516112056200031360003960006103ac01526112056000f3fe608060405234801561001057600080fd5b50600436106100cf5760003560e01c80638ac9882e1161008c578063ad55c4b511610066578063ad55c4b5146101de578063b30906d4146101fc578063e2095c071461022e578063f2fde38b1461024a576100cf565b80638ac9882e146101725780638da5cb5b14610190578063a25047a2146101ae576100cf565b806317be85c3146100d4578063572b6c05146100f257806357a8e3fe14610122578063715018a6146101405780637da0a8771461014a5780637e65b54314610168575b600080fd5b6100dc610266565b6040516100e99190610c8a565b60405180910390f35b61010c60048036038101906101079190610cdd565b61032f565b6040516101199190610d25565b60405180910390f35b61012a61036e565b6040516101379190610d4f565b60405180910390f35b610148610394565b005b6101526103a8565b60405161015f9190610d4f565b60405180910390f35b6101706103d0565b005b61017a6103f4565b6040516101879190610d25565b60405180910390f35b610198610407565b6040516101a59190610d4f565b60405180910390f35b6101c860048036038101906101c39190610cdd565b610430565b6040516101d59190610d25565b60405180910390f35b6101e6610486565b6040516101f39190610d4f565b60405180910390f35b61021660048036038101906102119190610d96565b6104b0565b60405161022593929190610dd2565b60405180910390f35b61024860048036038101906102439190610d96565b61050a565b005b610264600480360381019061025f9190610cdd565b6108ca565b005b60606002805480602002602001604051908101604052809291908181526020016000905b8282101561032657838290600052602060002090600302016040518060600160405290816000820160009054906101000a900473ffffffffffffffffffffffffffffffffffffffff1673ffffffffffffffffffffffffffffffffffffffff1673ffffffffffffffffffffffffffffffffffffffff168152602001600182015481526020016002820154815250508152602001906001019061028a565b50505050905090565b60006103396103a8565b73ffffffffffffffffffffffffffffffffffffffff168273ffffffffffffffffffffffffffffffffffffffff16149050919050565b600160009054906101000a900473ffffffffffffffffffffffffffffffffffffffff1681565b61039c610950565b6103a660006109d7565b565b60007f0000000000000000000000000000000000000000000000000000000000000000905090565b6103d8610950565b60018060146101000a81548160ff021916908315150217905550565b600160149054906101000a900460ff1681565b60008060009054906101000a900473ffffffffffffffffffffffffffffffffffffffff16905090565b6000600360008373ffffffffffffffffffffffffffffffffffffffff1673ffffffffffffffffffffffffffffffffffffffff16815260200190815260200160002060009054906101000a900460ff169050919050565b6000600160009054906101000a900473ffffffffffffffffffffffffffffffffffffffff16905090565b600281815481106104c057600080fd5b90600052602060002090600302016000915090508060000160009054906101000a900473ffffffffffffffffffffffffffffffffffffffff16908060010154908060020154905083565b6000610514610a9b565b9050600160149054906101000a900460ff1615610566576040517f08c379a000000000000000000000000000000000000000000000000000000000815260040161055d90610e66565b60405180910390fd5b600360008273ffffffffffffffffffffffffffffffffffffffff1673ffffffffffffffffffffffffffffffffffffffff16815260200190815260200160002060009054906101000a900460ff16156105f3576040517f08c379a00000000000000000000000000000000000000000000000000000000081526004016105ea90610ed2565b60405180910390fd5b6004600083815260200190815260200160002060009054906101000a900460ff1615610654576040517f08c379a000000000000000000000000000000000000000000000000000000000815260040161064b90610f64565b60405180910390fd5b6000600160009054906101000a900473ffffffffffffffffffffffffffffffffffffffff16905060008173ffffffffffffffffffffffffffffffffffffffff1662fdd58e84866040518363ffffffff1660e01b81526004016106b7929190610f84565b602060405180830381865afa1580156106d4573d6000803e3d6000fd5b505050506040513d601f19601f820116820180604052508101906106f89190610fc2565b11610738576040517f08c379a000000000000000000000000000000000000000000000000000000000815260040161072f9061103b565b60405180910390fd5b600260405180606001604052808473ffffffffffffffffffffffffffffffffffffffff16815260200142815260200185815250908060018154018082558091505060019003906000526020600020906003020160009091909190915060008201518160000160006101000a81548173ffffffffffffffffffffffffffffffffffffffff021916908373ffffffffffffffffffffffffffffffffffffffff160217905550602082015181600101556040820151816002015550506001600360008473ffffffffffffffffffffffffffffffffffffffff1673ffffffffffffffffffffffffffffffffffffffff16815260200190815260200160002060006101000a81548160ff02191690831515021790555060016004600085815260200190815260200160002060006101000a81548160ff0219169083151502179055508173ffffffffffffffffffffffffffffffffffffffff167fe6e9f139ede34311027572266d977215eb49c89dd1e8883afaa464eaea590dbf42856040516108bd92919061105b565b60405180910390a2505050565b6108d2610950565b600073ffffffffffffffffffffffffffffffffffffffff168173ffffffffffffffffffffffffffffffffffffffff16036109445760006040517f1e4fbdf700000000000000000000000000000000000000000000000000000000815260040161093b9190610d4f565b60405180910390fd5b61094d816109d7565b50565b610958610a9b565b73ffffffffffffffffffffffffffffffffffffffff16610976610407565b73ffffffffffffffffffffffffffffffffffffffff16146109d557610999610a9b565b6040517f118cdaa70000000000000000000000000000000000000000000000000000000081526004016109cc9190610d4f565b60405180910390fd5b565b60008060009054906101000a900473ffffffffffffffffffffffffffffffffffffffff169050816000806101000a81548173ffffffffffffffffffffffffffffffffffffffff021916908373ffffffffffffffffffffffffffffffffffffffff1602179055508173ffffffffffffffffffffffffffffffffffffffff168173ffffffffffffffffffffffffffffffffffffffff167f8be0079c531659141344cd1fd0a4f28419497f9722a3daafe3b4186f6b6457e060405160405180910390a35050565b6000610aa5610aaa565b905090565b600080600036905090506000610abe610b1f565b9050610ac93361032f565b8015610ad55750808210155b15610b0f576000368284610ae991906110b3565b908092610af8939291906110f1565b90610b039190611170565b60601c92505050610b1c565b610b17610b2e565b925050505b90565b6000610b29610b36565b905090565b600033905090565b60006014905090565b600081519050919050565b600082825260208201905092915050565b6000819050602082019050919050565b600073ffffffffffffffffffffffffffffffffffffffff82169050919050565b6000610b9682610b6b565b9050919050565b610ba681610b8b565b82525050565b6000819050919050565b610bbf81610bac565b82525050565b606082016000820151610bdb6000850182610b9d565b506020820151610bee6020850182610bb6565b506040820151610c016040850182610bb6565b50505050565b6000610c138383610bc5565b60608301905092915050565b6000602082019050919050565b6000610c3782610b3f565b610c418185610b4a565b9350610c4c83610b5b565b8060005b83811015610c7d578151610c648882610c07565b9750610c6f83610c1f565b925050600181019050610c50565b5085935050505092915050565b60006020820190508181036000830152610ca48184610c2c565b905092915050565b600080fd5b610cba81610b8b565b8114610cc557600080fd5b50565b600081359050610cd781610cb1565b92915050565b600060208284031215610cf357610cf2610cac565b5b6000610d0184828501610cc8565b91505092915050565b60008115159050919050565b610d1f81610d0a565b82525050565b6000602082019050610d3a6000830184610d16565b92915050565b610d4981610b8b565b82525050565b6000602082019050610d646000830184610d40565b92915050565b610d7381610bac565b8114610d7e57600080fd5b50565b600081359050610d9081610d6a565b92915050565b600060208284031215610dac57610dab610cac565b5b6000610dba84828501610d81565b91505092915050565b610dcc81610bac565b82525050565b6000606082019050610de76000830186610d40565b610df46020830185610dc3565b610e016040830184610dc3565b949350505050565b600082825260208201905092915050565b7f4576656e74206861732066696e69736865640000000000000000000000000000600082015250565b6000610e50601283610e09565b9150610e5b82610e1a565b602082019050919050565b60006020820190508181036000830152610e7f81610e43565b9050919050565b7f416464726573732068617320616c726561647920656e74657265640000000000600082015250565b6000610ebc601b83610e09565b9150610ec782610e86565b602082019050919050565b60006020820190508181036000830152610eeb81610eaf565b9050919050565b7f54686973207469636b657420686173206265656e20616c72656164792075736560008201527f6400000000000000000000000000000000000000000000000000000000000000602082015250565b6000610f4e602183610e09565b9150610f5982610ef2565b604082019050919050565b60006020820190508181036000830152610f7d81610f41565b9050919050565b6000604082019050610f996000830185610d40565b610fa66020830184610dc3565b9392505050565b600081519050610fbc81610d6a565b92915050565b600060208284031215610fd857610fd7610cac565b5b6000610fe684828501610fad565b91505092915050565b7f43616c6c657220646f6573206e6f74206f776e2074686973207469636b657400600082015250565b6000611025601f83610e09565b915061103082610fef565b602082019050919050565b6000602082019050818103600083015261105481611018565b9050919050565b60006040820190506110706000830185610dc3565b61107d6020830184610dc3565b9392505050565b7f4e487b7100000000000000000000000000000000000000000000000000000000600052601160045260246000fd5b60006110be82610bac565b91506110c983610bac565b92508282039050818111156110e1576110e0611084565b5b92915050565b600080fd5b600080fd5b60008085851115611105576111046110e7565b5b83861115611116576111156110ec565b5b6001850283019150848603905094509492505050565b600082905092915050565b60007fffffffffffffffffffffffffffffffffffffffff00000000000000000000000082169050919050565b600082821b905092915050565b600061117c838361112c565b826111878135611137565b925060148210156111c7576111c27fffffffffffffffffffffffffffffffffffffffff00000000000000000000000083601403600802611163565b831692505b50509291505056fea264697066735822122076ef73cea9667d1e556e3b39aca4880053ecf0a0727a6ccf0dcf6d7ddf007ae864736f6c63430008140033",
  "linkReferences": {},
  "deployedLinkReferences": {}
}