{"abi":[{"type":"constructor","inputs":[{"name":"_owner","type":"address","internalType":"address"},{"name":"_ownerSmartWallet","type":"address","internalType":"address"},{"name":"_ticketAddress","type":"address","internalType":"address"}],"stateMutability":"nonpayable"},{"type":"function","name":"entries","inputs":[{"name":"","type":"uint256","internalType":"uint256"}],"outputs":[{"name":"wallet","type":"address","internalType":"address"},{"name":"timestamp","type":"uint256","internalType":"uint256"},{"name":"ticketId","type":"uint256","internalType":"uint256"}],"stateMutability":"view"},{"type":"function","name":"entry","inputs":[{"name":"_ticketId","type":"uint256","internalType":"uint256"}],"outputs":[],"stateMutability":"nonpayable"},{"type":"function","name":"finishEvent","inputs":[],"outputs":[],"stateMutability":"nonpayable"},{"type":"function","name":"getEntries","inputs":[],"outputs":[{"name":"","type":"tuple[]","internalType":"struct EntranceChecker.Entry[]","components":[{"name":"wallet","type":"address","internalType":"address"},{"name":"timestamp","type":"uint256","internalType":"uint256"},{"name":"ticketId","type":"uint256","internalType":"uint256"}]}],"stateMutability":"view"},{"type":"function","name":"getTicketAddress","inputs":[],"outputs":[{"name":"","type":"address","internalType":"address"}],"stateMutability":"view"},{"type":"function","name":"hasEntry","inputs":[{"name":"_address","type":"address","internalType":"address"}],"outputs":[{"name":"","type":"bool","internalType":"bool"}],"stateMutability":"view"},{"type":"function","name":"isEventFinished","inputs":[],"outputs":[{"name":"","type":"bool","internalType":"bool"}],"stateMutability":"view"},{"type":"function","name":"owner","inputs":[],"outputs":[{"name":"","type":"address","internalType":"address"}],"stateMutability":"view"},{"type":"function","name":"ownerSmartWallet","inputs":[],"outputs":[{"name":"","type":"address","internalType":"address"}],"stateMutability":"view"},{"type":"function","name":"renounceOwnership","inputs":[],"outputs":[],"stateMutability":"nonpayable"},{"type":"function","name":"setSmartWallet","inputs":[{"name":"_smartWallet","type":"address","internalType":"address"}],"outputs":[],"stateMutability":"nonpayable"},{"type":"function","name":"ticketAddress","inputs":[],"outputs":[{"name":"","type":"address","internalType":"address"}],"stateMutability":"view"},{"type":"function","name":"transferOwnership","inputs":[{"name":"newOwner","type":"address","internalType":"address"}],"outputs":[],"stateMutability":"nonpayable"},{"type":"event","name":"Entrance","inputs":[{"name":"sender","type":"address","indexed":true,"internalType":"address"},{"name":"timestamp","type":"uint256","indexed":false,"internalType":"uint256"},{"name":"ticketId","type":"uint256","indexed":false,"internalType":"uint256"}],"anonymous":false},{"type":"event","name":"OwnershipTransferred","inputs":[{"name":"previousOwner","type":"address","indexed":true,"internalType":"address"},{"name":"newOwner","type":"address","indexed":true,"internalType":"address"}],"anonymous":false},{"type":"error","name":"OwnableInvalidOwner","inputs":[{"name":"owner","type":"address","internalType":"address"}]},{"type":"error","name":"OwnableUnauthorizedAccount","inputs":[{"name":"account","type":"address","internalType":"address"}]}],"bytecode":{"object":"0x608060405234801561001057600080fd5b5060405161099b38038061099b83398101604081905261002f91610109565b826001600160a01b03811661005e57604051631e4fbdf760e01b81526000600482015260240160405180910390fd5b6100678161009d565b50600280546001600160a01b039283166001600160a01b031991821617909155600180549390921692169190911790555061014c565b600080546001600160a01b038381166001600160a01b0319831681178455604051919092169283917f8be0079c531659141344cd1fd0a4f28419497f9722a3daafe3b4186f6b6457e09190a35050565b80516001600160a01b038116811461010457600080fd5b919050565b60008060006060848603121561011e57600080fd5b610127846100ed565b9250610135602085016100ed565b9150610143604085016100ed565b90509250925092565b6108408061015b6000396000f3fe608060405234801561001057600080fd5b50600436106100cf5760003560e01c80638da5cb5b1161008c578063b30906d411610066578063b30906d4146101b4578063bbedb38e146101ec578063e2095c07146101ff578063f2fde38b1461021257600080fd5b80638da5cb5b14610166578063a25047a214610177578063ad55c4b5146101a357600080fd5b806317be85c3146100d45780632687f0f0146100f257806357a8e3fe14610107578063715018a6146101325780637e65b5431461013a5780638ac9882e14610142575b600080fd5b6100dc610225565b6040516100e99190610746565b60405180910390f35b6101056101003660046107a8565b6102a7565b005b60025461011a906001600160a01b031681565b6040516001600160a01b0390911681526020016100e9565b6101056102d1565b6101056102e5565b60025461015690600160a01b900460ff1681565b60405190151581526020016100e9565b6000546001600160a01b031661011a565b6101566101853660046107a8565b6001600160a01b031660009081526003602052604090205460ff1690565b6002546001600160a01b031661011a565b6101c76101c23660046107d8565b610302565b604080516001600160a01b0390941684526020840192909252908201526060016100e9565b60015461011a906001600160a01b031681565b61010561020d3660046107d8565b61033f565b6101056102203660046107a8565b61065d565b60606005805480602002602001604051908101604052809291908181526020016000905b8282101561029e576000848152602090819020604080516060810182526003860290920180546001600160a01b0316835260018082015484860152600290910154918301919091529083529092019101610249565b50505050905090565b6102af61069b565b600180546001600160a01b0319166001600160a01b0392909216919091179055565b6102d961069b565b6102e360006106f6565b565b6102ed61069b565b6002805460ff60a01b1916600160a01b179055565b6005818154811061031257600080fd5b60009182526020909120600390910201805460018201546002909201546001600160a01b03909116925083565b6002543390600160a01b900460ff16156103955760405162461bcd60e51b8152602060048201526012602482015271115d995b9d081a185cc8199a5b9a5cda195960721b60448201526064015b60405180910390fd5b6001600160a01b03811660009081526003602052604090205460ff16156103fe5760405162461bcd60e51b815260206004820152601b60248201527f416464726573732068617320616c726561647920656e74657265640000000000604482015260640161038c565b60008281526004602052604090205460ff16156104675760405162461bcd60e51b815260206004820152602160248201527f54686973207469636b657420686173206265656e20616c7265616479207573656044820152601960fa1b606482015260840161038c565b600254604051627eeac760e11b81526001600160a01b0383811660048301526024820185905290911690600090829062fdd58e90604401602060405180830381865afa1580156104bb573d6000803e3d6000fd5b505050506040513d601f19601f820116820180604052508101906104df91906107f1565b1161052c5760405162461bcd60e51b815260206004820152601f60248201527f43616c6c657220646f6573206e6f74206f776e2074686973207469636b657400604482015260640161038c565b604080516060810182526001600160a01b038481168083524260208085018281528587018a81526005805460018082018355600092835298517f036b6384b5eca791c62761152d0c79bb0604c104a5fb6f4eb0703f3154bb3db0600392830290810180546001600160a01b03191692909a169190911790985592517f036b6384b5eca791c62761152d0c79bb0604c104a5fb6f4eb0703f3154bb3db188015590517f036b6384b5eca791c62761152d0c79bb0604c104a5fb6f4eb0703f3154bb3db2909601959095558385528152858420805460ff19908116871790915589855260048252938690208054909416909417909255835191825291810186905290917f8e97a11e628e7e2d33ad28e34c8deca5124c401d33a19c61bc77b4df19b9a459910160405180910390a2505050565b61066561069b565b6001600160a01b03811661068f57604051631e4fbdf760e01b81526000600482015260240161038c565b610698816106f6565b50565b6000546001600160a01b03163314806106be57506001546001600160a01b031633145b6102e35760405162461bcd60e51b81526020600482015260096024820152682737ba1037bbb732b960b91b604482015260640161038c565b600080546001600160a01b038381166001600160a01b0319831681178455604051919092169283917f8be0079c531659141344cd1fd0a4f28419497f9722a3daafe3b4186f6b6457e09190a35050565b602080825282518282018190526000919060409081850190868401855b8281101561079b57815180516001600160a01b0316855286810151878601528501518585015260609093019290850190600101610763565b5091979650505050505050565b6000602082840312156107ba57600080fd5b81356001600160a01b03811681146107d157600080fd5b9392505050565b6000602082840312156107ea57600080fd5b5035919050565b60006020828403121561080357600080fd5b505191905056fea264697066735822122093a57d0dc7820cb1febaf40f6439b580c180888aca17e75f32371a55835061ca64736f6c63430008140033","linkReferences":{}},"methodIdentifiers":{"entries(uint256)":"b30906d4","entry(uint256)":"e2095c07","finishEvent()":"7e65b543","getEntries()":"17be85c3","getTicketAddress()":"ad55c4b5","hasEntry(address)":"a25047a2","isEventFinished()":"8ac9882e","owner()":"8da5cb5b","ownerSmartWallet()":"bbedb38e","renounceOwnership()":"715018a6","setSmartWallet(address)":"2687f0f0","ticketAddress()":"57a8e3fe","transferOwnership(address)":"f2fde38b"},"id":43}