{
  "abi": [
    {
      "type": "constructor",
      "inputs": [
        {
          "name": "_ticketAddress",
          "type": "address",
          "internalType": "address"
        },
        {
          "name": "_owner",
          "type": "address",
          "internalType": "address"
        }
      ],
      "stateMutability": "nonpayable"
    },
    {
      "type": "function",
      "name": "entries",
      "inputs": [
        {
          "name": "",
          "type": "uint256",
          "internalType": "uint256"
        }
      ],
      "outputs": [
        {
          "name": "wallet",
          "type": "address",
          "internalType": "address"
        },
        {
          "name": "timestamp",
          "type": "uint256",
          "internalType": "uint256"
        },
        {
          "name": "ticketId",
          "type": "uint256",
          "internalType": "uint256"
        }
      ],
      "stateMutability": "view"
    },
    {
      "type": "function",
      "name": "entry",
      "inputs": [
        {
          "name": "_ticketId",
          "type": "uint256",
          "internalType": "uint256"
        }
      ],
      "outputs": [],
      "stateMutability": "nonpayable"
    },
    {
      "type": "function",
      "name": "finishEvent",
      "inputs": [],
      "outputs": [],
      "stateMutability": "nonpayable"
    },
    {
      "type": "function",
      "name": "getEntries",
      "inputs": [],
      "outputs": [
        {
          "name": "",
          "type": "tuple[]",
          "internalType": "struct EntranceChecker.Entry[]",
          "components": [
            {
              "name": "wallet",
              "type": "address",
              "internalType": "address"
            },
            {
              "name": "timestamp",
              "type": "uint256",
              "internalType": "uint256"
            },
            {
              "name": "ticketId",
              "type": "uint256",
              "internalType": "uint256"
            }
          ]
        }
      ],
      "stateMutability": "view"
    },
    {
      "type": "function",
      "name": "getTicketAddress",
      "inputs": [],
      "outputs": [
        {
          "name": "",
          "type": "address",
          "internalType": "address"
        }
      ],
      "stateMutability": "view"
    },
    {
      "type": "function",
      "name": "hasEntry",
      "inputs": [
        {
          "name": "_address",
          "type": "address",
          "internalType": "address"
        }
      ],
      "outputs": [
        {
          "name": "",
          "type": "bool",
          "internalType": "bool"
        }
      ],
      "stateMutability": "view"
    },
    {
      "type": "function",
      "name": "isEventFinished",
      "inputs": [],
      "outputs": [
        {
          "name": "",
          "type": "bool",
          "internalType": "bool"
        }
      ],
      "stateMutability": "view"
    },
    {
      "type": "function",
      "name": "owner",
      "inputs": [],
      "outputs": [
        {
          "name": "",
          "type": "address",
          "internalType": "address"
        }
      ],
      "stateMutability": "view"
    },
    {
      "type": "function",
      "name": "renounceOwnership",
      "inputs": [],
      "outputs": [],
      "stateMutability": "nonpayable"
    },
    {
      "type": "function",
      "name": "ticketAddress",
      "inputs": [],
      "outputs": [
        {
          "name": "",
          "type": "address",
          "internalType": "address"
        }
      ],
      "stateMutability": "view"
    },
    {
      "type": "function",
      "name": "transferOwnership",
      "inputs": [
        {
          "name": "newOwner",
          "type": "address",
          "internalType": "address"
        }
      ],
      "outputs": [],
      "stateMutability": "nonpayable"
    },
    {
      "type": "event",
      "name": "OwnershipTransferred",
      "inputs": [
        {
          "name": "previousOwner",
          "type": "address",
          "indexed": true,
          "internalType": "address"
        },
        {
          "name": "newOwner",
          "type": "address",
          "indexed": true,
          "internalType": "address"
        }
      ],
      "anonymous": false
    },
    {
      "type": "error",
      "name": "OwnableInvalidOwner",
      "inputs": [
        {
          "name": "owner",
          "type": "address",
          "internalType": "address"
        }
      ]
    },
    {
      "type": "error",
      "name": "OwnableUnauthorizedAccount",
      "inputs": [
        {
          "name": "account",
          "type": "address",
          "internalType": "address"
        }
      ]
    }
  ],
  "bytecode": {
    "object": "0x608060405234801561001057600080fd5b5060405161088d38038061088d83398101604081905261002f916100fa565b806001600160a01b03811661005e57604051631e4fbdf760e01b81526000600482015260240160405180910390fd5b6100678161008e565b5050600180546001600160a01b0319166001600160a01b039290921691909117905561012d565b600080546001600160a01b038381166001600160a01b0319831681178455604051919092169283917f8be0079c531659141344cd1fd0a4f28419497f9722a3daafe3b4186f6b6457e09190a35050565b80516001600160a01b03811681146100f557600080fd5b919050565b6000806040838503121561010d57600080fd5b610116836100de565b9150610124602084016100de565b90509250929050565b6107518061013c6000396000f3fe608060405234801561001057600080fd5b50600436106100a95760003560e01c80638da5cb5b116100715780638da5cb5b1461012d578063a25047a21461013e578063ad55c4b51461016a578063b30906d41461017b578063e2095c07146101b3578063f2fde38b146101c657600080fd5b806317be85c3146100ae57806357a8e3fe146100cc578063715018a6146100f75780637e65b543146101015780638ac9882e14610109575b600080fd5b6100b66101d9565b6040516100c39190610657565b60405180910390f35b6001546100df906001600160a01b031681565b6040516001600160a01b0390911681526020016100c3565b6100ff61025b565b005b6100ff61026f565b60015461011d90600160a01b900460ff1681565b60405190151581526020016100c3565b6000546001600160a01b03166100df565b61011d61014c3660046106b9565b6001600160a01b031660009081526003602052604090205460ff1690565b6001546001600160a01b03166100df565b61018e6101893660046106e9565b61028c565b604080516001600160a01b0390941684526020840192909252908201526060016100c3565b6100ff6101c13660046106e9565b6102c9565b6100ff6101d43660046106b9565b61059c565b60606002805480602002602001604051908101604052809291908181526020016000905b82821015610252576000848152602090819020604080516060810182526003860290920180546001600160a01b03168352600180820154848601526002909101549183019190915290835290920191016101fd565b50505050905090565b6102636105da565b61026d6000610607565b565b6102776105da565b6001805460ff60a01b1916600160a01b179055565b6002818154811061029c57600080fd5b60009182526020909120600390910201805460018201546002909201546001600160a01b03909116925083565b600154600160a01b900460ff161561031d5760405162461bcd60e51b8152602060048201526012602482015271115d995b9d081a185cc8199a5b9a5cda195960721b60448201526064015b60405180910390fd5b3360009081526003602052604090205460ff161561037d5760405162461bcd60e51b815260206004820152601b60248201527f416464726573732068617320616c726561647920656e746572656400000000006044820152606401610314565b60008181526004602052604090205460ff16156103e65760405162461bcd60e51b815260206004820152602160248201527f54686973207469636b657420686173206265656e20616c7265616479207573656044820152601960fa1b6064820152608401610314565b600154604051627eeac760e11b8152336004820152602481018390526001600160a01b0390911690600090829062fdd58e90604401602060405180830381865afa158015610438573d6000803e3d6000fd5b505050506040513d601f19601f8201168201806040525081019061045c9190610702565b116104a95760405162461bcd60e51b815260206004820152601f60248201527f43616c6c657220646f6573206e6f74206f776e2074686973207469636b6574006044820152606401610314565b5060408051606081018252338082524260208084019182528385018681526002805460018082018355600092835296517f405787fa12a823e0f2b7631cc41b3ba8828b3321ca811111fa75cd3aa3bb5ace600392830290810180546001600160a01b0319166001600160a01b039093169290921790915594517f405787fa12a823e0f2b7631cc41b3ba8828b3321ca811111fa75cd3aa3bb5acf86015591517f405787fa12a823e0f2b7631cc41b3ba8828b3321ca811111fa75cd3aa3bb5ad090940193909355928252918252838120805460ff1990811685179091559481526004909152919091208054909216179055565b6105a46105da565b6001600160a01b0381166105ce57604051631e4fbdf760e01b815260006004820152602401610314565b6105d781610607565b50565b6000546001600160a01b0316331461026d5760405163118cdaa760e01b8152336004820152602401610314565b600080546001600160a01b038381166001600160a01b0319831681178455604051919092169283917f8be0079c531659141344cd1fd0a4f28419497f9722a3daafe3b4186f6b6457e09190a35050565b602080825282518282018190526000919060409081850190868401855b828110156106ac57815180516001600160a01b0316855286810151878601528501518585015260609093019290850190600101610674565b5091979650505050505050565b6000602082840312156106cb57600080fd5b81356001600160a01b03811681146106e257600080fd5b9392505050565b6000602082840312156106fb57600080fd5b5035919050565b60006020828403121561071457600080fd5b505191905056fea26469706673582212209e8fe9ab914dc88a49bade1f16c48a40af74d30663c50dce498db4d5ad87f7a364736f6c63430008140033",
    "linkReferences": {}
  },
  "methodIdentifiers": {
    "entries(uint256)": "b30906d4",
    "entry(uint256)": "e2095c07",
    "finishEvent()": "7e65b543",
    "getEntries()": "17be85c3",
    "getTicketAddress()": "ad55c4b5",
    "hasEntry(address)": "a25047a2",
    "isEventFinished()": "8ac9882e",
    "owner()": "8da5cb5b",
    "renounceOwnership()": "715018a6",
    "ticketAddress()": "57a8e3fe",
    "transferOwnership(address)": "f2fde38b"
  },
  "id": 27
}