{"abi":[{"type":"constructor","inputs":[{"name":"owner","type":"address","internalType":"address"},{"name":"baseURI","type":"string","internalType":"string"},{"name":"_name","type":"string","internalType":"string"},{"name":"_symbol","type":"string","internalType":"string"},{"name":"_initialSupply","type":"uint256","internalType":"uint256"},{"name":"_maxSupply","type":"uint256","internalType":"uint256"},{"name":"_transferable","type":"bool","internalType":"bool"},{"name":"_whitelistOnly","type":"bool","internalType":"bool"}],"stateMutability":"nonpayable"},{"type":"function","name":"balanceOf","inputs":[{"name":"account","type":"address","internalType":"address"},{"name":"id","type":"uint256","internalType":"uint256"}],"outputs":[{"name":"","type":"uint256","internalType":"uint256"}],"stateMutability":"view"},{"type":"function","name":"balanceOfBatch","inputs":[{"name":"accounts","type":"address[]","internalType":"address[]"},{"name":"ids","type":"uint256[]","internalType":"uint256[]"}],"outputs":[{"name":"","type":"uint256[]","internalType":"uint256[]"}],"stateMutability":"view"},{"type":"function","name":"burn","inputs":[{"name":"account","type":"address","internalType":"address"},{"name":"id","type":"uint256","internalType":"uint256"},{"name":"value","type":"uint256","internalType":"uint256"}],"outputs":[],"stateMutability":"nonpayable"},{"type":"function","name":"burnBatch","inputs":[{"name":"account","type":"address","internalType":"address"},{"name":"ids","type":"uint256[]","internalType":"uint256[]"},{"name":"values","type":"uint256[]","internalType":"uint256[]"}],"outputs":[],"stateMutability":"nonpayable"},{"type":"function","name":"currentSupply","inputs":[],"outputs":[{"name":"","type":"uint256","internalType":"uint256"}],"stateMutability":"view"},{"type":"function","name":"distribute","inputs":[{"name":"_distributions","type":"tuple[]","internalType":"struct FreeTicket.Distribution[]","components":[{"name":"recipient","type":"address","internalType":"address"},{"name":"amount","type":"uint256","internalType":"uint256"}]}],"outputs":[],"stateMutability":"nonpayable"},{"type":"function","name":"exists","inputs":[{"name":"id","type":"uint256","internalType":"uint256"}],"outputs":[{"name":"","type":"bool","internalType":"bool"}],"stateMutability":"view"},{"type":"function","name":"initialSupply","inputs":[],"outputs":[{"name":"","type":"uint256","internalType":"uint256"}],"stateMutability":"view"},{"type":"function","name":"isApprovedForAll","inputs":[{"name":"account","type":"address","internalType":"address"},{"name":"operator","type":"address","internalType":"address"}],"outputs":[{"name":"","type":"bool","internalType":"bool"}],"stateMutability":"view"},{"type":"function","name":"isWhitelisted","inputs":[{"name":"","type":"address","internalType":"address"}],"outputs":[{"name":"","type":"bool","internalType":"bool"}],"stateMutability":"view"},{"type":"function","name":"maxSupply","inputs":[],"outputs":[{"name":"","type":"uint256","internalType":"uint256"}],"stateMutability":"view"},{"type":"function","name":"name","inputs":[],"outputs":[{"name":"","type":"string","internalType":"string"}],"stateMutability":"view"},{"type":"function","name":"nextTokenId","inputs":[],"outputs":[{"name":"","type":"uint256","internalType":"uint256"}],"stateMutability":"view"},{"type":"function","name":"owner","inputs":[],"outputs":[{"name":"","type":"address","internalType":"address"}],"stateMutability":"view"},{"type":"function","name":"renounceOwnership","inputs":[],"outputs":[],"stateMutability":"nonpayable"},{"type":"function","name":"safeBatchTransferFrom","inputs":[{"name":"from","type":"address","internalType":"address"},{"name":"to","type":"address","internalType":"address"},{"name":"ids","type":"uint256[]","internalType":"uint256[]"},{"name":"values","type":"uint256[]","internalType":"uint256[]"},{"name":"data","type":"bytes","internalType":"bytes"}],"outputs":[],"stateMutability":"nonpayable"},{"type":"function","name":"safeTransferFrom","inputs":[{"name":"from","type":"address","internalType":"address"},{"name":"to","type":"address","internalType":"address"},{"name":"id","type":"uint256","internalType":"uint256"},{"name":"value","type":"uint256","internalType":"uint256"},{"name":"data","type":"bytes","internalType":"bytes"}],"outputs":[],"stateMutability":"nonpayable"},{"type":"function","name":"setApprovalForAll","inputs":[{"name":"operator","type":"address","internalType":"address"},{"name":"approved","type":"bool","internalType":"bool"}],"outputs":[],"stateMutability":"nonpayable"},{"type":"function","name":"setTransferable","inputs":[{"name":"_transferable","type":"bool","internalType":"bool"}],"outputs":[],"stateMutability":"nonpayable"},{"type":"function","name":"setURI","inputs":[{"name":"newuri","type":"string","internalType":"string"}],"outputs":[],"stateMutability":"nonpayable"},{"type":"function","name":"supportsInterface","inputs":[{"name":"interfaceId","type":"bytes4","internalType":"bytes4"}],"outputs":[{"name":"","type":"bool","internalType":"bool"}],"stateMutability":"view"},{"type":"function","name":"symbol","inputs":[],"outputs":[{"name":"","type":"string","internalType":"string"}],"stateMutability":"view"},{"type":"function","name":"tokenURI","inputs":[{"name":"_tokenId","type":"uint256","internalType":"uint256"}],"outputs":[{"name":"","type":"string","internalType":"string"}],"stateMutability":"view"},{"type":"function","name":"totalSupply","inputs":[],"outputs":[{"name":"","type":"uint256","internalType":"uint256"}],"stateMutability":"view"},{"type":"function","name":"totalSupply","inputs":[{"name":"id","type":"uint256","internalType":"uint256"}],"outputs":[{"name":"","type":"uint256","internalType":"uint256"}],"stateMutability":"view"},{"type":"function","name":"transferOwnership","inputs":[{"name":"newOwner","type":"address","internalType":"address"}],"outputs":[],"stateMutability":"nonpayable"},{"type":"function","name":"transferable","inputs":[],"outputs":[{"name":"","type":"bool","internalType":"bool"}],"stateMutability":"view"},{"type":"function","name":"updateSupply","inputs":[{"name":"_additionalSupply","type":"uint256","internalType":"uint256"}],"outputs":[],"stateMutability":"nonpayable"},{"type":"function","name":"updateWhitelist","inputs":[{"name":"_whitelistUpdates","type":"tuple[]","internalType":"struct FreeTicket.Whitelist[]","components":[{"name":"user","type":"address","internalType":"address"},{"name":"status","type":"bool","internalType":"bool"}]}],"outputs":[],"stateMutability":"nonpayable"},{"type":"function","name":"uri","inputs":[{"name":"","type":"uint256","internalType":"uint256"}],"outputs":[{"name":"","type":"string","internalType":"string"}],"stateMutability":"view"},{"type":"function","name":"whitelistOnly","inputs":[],"outputs":[{"name":"","type":"bool","internalType":"bool"}],"stateMutability":"view"},{"type":"event","name":"ApprovalForAll","inputs":[{"name":"account","type":"address","indexed":true,"internalType":"address"},{"name":"operator","type":"address","indexed":true,"internalType":"address"},{"name":"approved","type":"bool","indexed":false,"internalType":"bool"}],"anonymous":false},{"type":"event","name":"OwnershipTransferred","inputs":[{"name":"previousOwner","type":"address","indexed":true,"internalType":"address"},{"name":"newOwner","type":"address","indexed":true,"internalType":"address"}],"anonymous":false},{"type":"event","name":"SupplyUpdated","inputs":[{"name":"newSupply","type":"uint256","indexed":false,"internalType":"uint256"}],"anonymous":false},{"type":"event","name":"TransferBatch","inputs":[{"name":"operator","type":"address","indexed":true,"internalType":"address"},{"name":"from","type":"address","indexed":true,"internalType":"address"},{"name":"to","type":"address","indexed":true,"internalType":"address"},{"name":"ids","type":"uint256[]","indexed":false,"internalType":"uint256[]"},{"name":"values","type":"uint256[]","indexed":false,"internalType":"uint256[]"}],"anonymous":false},{"type":"event","name":"TransferSingle","inputs":[{"name":"operator","type":"address","indexed":true,"internalType":"address"},{"name":"from","type":"address","indexed":true,"internalType":"address"},{"name":"to","type":"address","indexed":true,"internalType":"address"},{"name":"id","type":"uint256","indexed":false,"internalType":"uint256"},{"name":"value","type":"uint256","indexed":false,"internalType":"uint256"}],"anonymous":false},{"type":"event","name":"URI","inputs":[{"name":"value","type":"string","indexed":false,"internalType":"string"},{"name":"id","type":"uint256","indexed":true,"internalType":"uint256"}],"anonymous":false},{"type":"error","name":"ERC1155InsufficientBalance","inputs":[{"name":"sender","type":"address","internalType":"address"},{"name":"balance","type":"uint256","internalType":"uint256"},{"name":"needed","type":"uint256","internalType":"uint256"},{"name":"tokenId","type":"uint256","internalType":"uint256"}]},{"type":"error","name":"ERC1155InvalidApprover","inputs":[{"name":"approver","type":"address","internalType":"address"}]},{"type":"error","name":"ERC1155InvalidArrayLength","inputs":[{"name":"idsLength","type":"uint256","internalType":"uint256"},{"name":"valuesLength","type":"uint256","internalType":"uint256"}]},{"type":"error","name":"ERC1155InvalidOperator","inputs":[{"name":"operator","type":"address","internalType":"address"}]},{"type":"error","name":"ERC1155InvalidReceiver","inputs":[{"name":"receiver","type":"address","internalType":"address"}]},{"type":"error","name":"ERC1155InvalidSender","inputs":[{"name":"sender","type":"address","internalType":"address"}]},{"type":"error","name":"ERC1155MissingApprovalForAll","inputs":[{"name":"operator","type":"address","internalType":"address"},{"name":"owner","type":"address","internalType":"address"}]},{"type":"error","name":"OwnableInvalidOwner","inputs":[{"name":"owner","type":"address","internalType":"address"}]},{"type":"error","name":"OwnableUnauthorizedAccount","inputs":[{"name":"account","type":"address","internalType":"address"}]}],"bytecode":{"object":"0x60806040526001600c553480156200001657600080fd5b50604051620027ec380380620027ec833981016040819052620000399162000292565b878762000046816200013b565b506001600160a01b0381166200007757604051631e4fbdf760e01b8152600060048201526024015b60405180910390fd5b62000082816200014d565b5082841115620000df5760405162461bcd60e51b815260206004820152602160248201527f496e697469616c20737570706c792065786365656473206d617820737570706c6044820152607960f81b60648201526084016200006e565b6006620000ed8782620003ff565b506007620000fc8682620003ff565b506008849055600992909255600a92909255600b805461ffff191692151561ff001916929092176101009115159190910217905550620004cb92505050565b6002620001498282620003ff565b5050565b600380546001600160a01b038381166001600160a01b0319831681179093556040519116919082907f8be0079c531659141344cd1fd0a4f28419497f9722a3daafe3b4186f6b6457e090600090a35050565b80516001600160a01b0381168114620001b757600080fd5b919050565b634e487b7160e01b600052604160045260246000fd5b600082601f830112620001e457600080fd5b81516001600160401b0380821115620002015762000201620001bc565b604051601f8301601f19908116603f011681019082821181831017156200022c576200022c620001bc565b816040528381526020925086838588010111156200024957600080fd5b600091505b838210156200026d57858201830151818301840152908201906200024e565b600093810190920192909252949350505050565b80518015158114620001b757600080fd5b600080600080600080600080610100898b031215620002b057600080fd5b620002bb896200019f565b60208a01519098506001600160401b0380821115620002d957600080fd5b620002e78c838d01620001d2565b985060408b0151915080821115620002fe57600080fd5b6200030c8c838d01620001d2565b975060608b01519150808211156200032357600080fd5b50620003328b828c01620001d2565b9550506080890151935060a089015192506200035160c08a0162000281565b91506200036160e08a0162000281565b90509295985092959890939650565b600181811c908216806200038557607f821691505b602082108103620003a657634e487b7160e01b600052602260045260246000fd5b50919050565b601f821115620003fa57600081815260208120601f850160051c81016020861015620003d55750805b601f850160051c820191505b81811015620003f657828155600101620003e1565b5050505b505050565b81516001600160401b038111156200041b576200041b620001bc565b62000433816200042c845462000370565b84620003ac565b602080601f8311600181146200046b5760008415620004525750858301515b600019600386901b1c1916600185901b178555620003f6565b600085815260208120601f198616915b828110156200049c578886015182559484019460019091019084016200047b565b5085821015620004bb5787850151600019600388901b60f8161c191681555b5050505050600190811b01905550565b61231180620004db6000396000f3fe608060405234801561001057600080fd5b50600436106101e45760003560e01c80636bd080491161010f578063a22cb465116100a2578063e985e9c511610071578063e985e9c514610402578063f242432a14610415578063f2fde38b14610428578063f5298aca1461043b57600080fd5b8063a22cb465146103b3578063bd85b039146103c6578063c87b56dd146103e6578063d5abeb01146103f957600080fd5b80638da5cb5b116100de5780638da5cb5b1461037057806392ff0d311461038b57806395d89b41146103985780639cd23707146103a057600080fd5b80636bd0804914610343578063715018a61461035657806375794a3c1461035e578063771282f61461036757600080fd5b80632eb2c2d6116101875780634e1273f4116101565780634e1273f4146102db5780634f558e79146102fb57806354f2a4d31461031d5780636b20c4541461033057600080fd5b80632eb2c2d61461028a578063378dc3dc1461029d5780633af32abf146102a65780634b4687b5146102c957600080fd5b806306fdde03116101c357806306fdde03146102475780630e89341c1461025c57806318160ddd1461026f5780631c3785731461027757600080fd5b8062fdd58e146101e957806301ffc9a71461020f57806302fe530514610232575b600080fd5b6101fc6101f736600461185f565b61044e565b6040519081526020015b60405180910390f35b61022261021d36600461189f565b610476565b6040519015158152602001610206565b610245610240366004611988565b6104c6565b005b61024f6104da565b6040516102069190611a28565b61024f61026a366004611a3b565b610568565b6005546101fc565b610245610285366004611a77565b6105fc565b610245610298366004611bbe565b610793565b6101fc60085481565b6102226102b4366004611c67565b600d6020526000908152604090205460ff1681565b600b5461022290610100900460ff1681565b6102ee6102e9366004611c82565b6107fa565b6040516102069190611d7c565b610222610309366004611a3b565b600090815260046020526040902054151590565b61024561032b366004611d9f565b6108ce565b61024561033e366004611e58565b610946565b610245610351366004611a3b565b6109aa565b610245610a55565b6101fc600c5481565b6101fc600a5481565b6003546040516001600160a01b039091168152602001610206565b600b546102229060ff1681565b61024f610a69565b6102456103ae366004611ecb565b610a76565b6102456103c1366004611ee6565b610a91565b6101fc6103d4366004611a3b565b60009081526004602052604090205490565b61024f6103f4366004611a3b565b610a9c565b6101fc60095481565b610222610410366004611f19565b610ad7565b610245610423366004611f43565b610b05565b610245610436366004611c67565b610b64565b610245610449366004611fa7565b610b9f565b6000818152602081815260408083206001600160a01b03861684529091529020545b92915050565b60006001600160e01b03198216636cdb3d1360e11b14806104a757506001600160e01b031982166303a24d0760e21b145b8061047057506301ffc9a760e01b6001600160e01b0319831614610470565b6104ce610bd5565b6104d781610c02565b50565b600680546104e790611fda565b80601f016020809104026020016040519081016040528092919081815260200182805461051390611fda565b80156105605780601f1061053557610100808354040283529160200191610560565b820191906000526020600020905b81548152906001019060200180831161054357829003601f168201915b505050505081565b60606002805461057790611fda565b80601f01602080910402602001604051908101604052809291908181526020018280546105a390611fda565b80156105f05780601f106105c5576101008083540402835291602001916105f0565b820191906000526020600020905b8154815290600101906020018083116105d357829003601f168201915b50505050509050919050565b610604610bd5565b6000805b82518110156106d357600083828151811061062557610625612014565b60200260200101519050600b60019054906101000a900460ff16156106ae5780516001600160a01b03166000908152600d602052604090205460ff166106ae5760405162461bcd60e51b8152602060048201526019602482015278149958da5c1a595b9d081b9bdd081dda1a5d195b1a5cdd1959603a1b60448201526064015b60405180910390fd5b60208101516106bd9084612040565b92505080806106cb90612053565b915050610608565b5060095481600a546106e59190612040565b11156107285760405162461bcd60e51b815260206004820152601260248201527145786365656473206d617820737570706c7960701b60448201526064016106a5565b60005b825181101561077757600083828151811061074857610748612014565b6020026020010151905061076481600001518260200151610c0e565b508061076f81612053565b91505061072b565b5080600a600082825461078a919061206c565b90915550505050565b336001600160a01b03861681148015906107b457506107b28682610ad7565b155b156107e55760405163711bec9160e11b81526001600160a01b038083166004830152871660248201526044016106a5565b6107f28686868686610cae565b505050505050565b6060815183511461082b5781518351604051635b05999160e01b8152600481019290925260248201526044016106a5565b600083516001600160401b03811115610846576108466118c3565b60405190808252806020026020018201604052801561086f578160200160208202803683370190505b50905060005b84518110156108c6576020808202860101516108999060208084028701015161044e565b8282815181106108ab576108ab612014565b60209081029190910101526108bf81612053565b9050610875565b509392505050565b6108d6610bd5565b60005b81518110156109425760008282815181106108f6576108f6612014565b6020908102919091018101518082015190516001600160a01b03166000908152600d9092526040909120805460ff1916911515919091179055508061093a81612053565b9150506108d9565b5050565b6001600160a01b038316331480159061096657506109648333610ad7565b155b1561099a57335b60405163711bec9160e11b81526001600160a01b03918216600482015290841660248201526044016106a5565b6109a5838383610d15565b505050565b6109b2610bd5565b60095481600a546109c39190612040565b1115610a065760405162461bcd60e51b815260206004820152601260248201527145786365656473206d617820737570706c7960701b60448201526064016106a5565b600081600a54610a169190612040565b600a8190556040518181529091507fea4bfee7f9fb38136c61cc04b6e56efc93eaf1beef326dbc47495b358385914c9060200160405180910390a15050565b610a5d610bd5565b610a676000610d5b565b565b600780546104e790611fda565b610a7e610bd5565b600b805460ff1916911515919091179055565b610942338383610dad565b6060610aa782610568565b610ab083610e43565b604051602001610ac192919061207f565b6040516020818303038152906040529050919050565b6001600160a01b03918216600090815260016020908152604080832093909416825291909152205460ff1690565b336001600160a01b0386168114801590610b265750610b248682610ad7565b155b15610b575760405163711bec9160e11b81526001600160a01b038083166004830152871660248201526044016106a5565b6107f28686868686610ed5565b610b6c610bd5565b6001600160a01b038116610b9657604051631e4fbdf760e01b8152600060048201526024016106a5565b6104d781610d5b565b6001600160a01b0383163314801590610bbf5750610bbd8333610ad7565b155b15610bca573361096d565b6109a5838383610f63565b6003546001600160a01b03163314610a675760405163118cdaa760e01b81523360048201526024016106a5565b600261094282826120f4565b60005b818110156109a557610c3783600c54600160405180602001604052806000815250610fcb565b610c866040518060400160405280600f81526020016e135a5b9d1959081d1bdad95b881251608a1b815250600c5460405180604001604052806002815260200161746f60f01b81525086611028565b600c8054906000610c9683612053565b91905055508080610ca690612053565b915050610c11565b6001600160a01b038416610cd857604051632bfa23e760e11b8152600060048201526024016106a5565b6001600160a01b038516610d0157604051626a0d4560e21b8152600060048201526024016106a5565b610d0e8585858585611077565b5050505050565b6001600160a01b038316610d3e57604051626a0d4560e21b8152600060048201526024016106a5565b6109a5836000848460405180602001604052806000815250611077565b600380546001600160a01b038381166001600160a01b0319831681179093556040519116919082907f8be0079c531659141344cd1fd0a4f28419497f9722a3daafe3b4186f6b6457e090600090a35050565b6001600160a01b038216610dd65760405162ced3e160e81b8152600060048201526024016106a5565b6001600160a01b03838116600081815260016020908152604080832094871680845294825291829020805460ff191686151590811790915591519182527f17307eab39ab6107e8899845ad3d59bd9653f200f220920489ca2b5937696c31910160405180910390a3505050565b60606000610e50836110ca565b60010190506000816001600160401b03811115610e6f57610e6f6118c3565b6040519080825280601f01601f191660200182016040528015610e99576020820181803683370190505b5090508181016020015b600019016f181899199a1a9b1b9c1cb0b131b232b360811b600a86061a8153600a8504945084610ea357509392505050565b6001600160a01b038416610eff57604051632bfa23e760e11b8152600060048201526024016106a5565b6001600160a01b038516610f2857604051626a0d4560e21b8152600060048201526024016106a5565b60408051600180825260208201869052818301908152606082018590526080820190925290610f5a8787848487611077565b50505050505050565b6001600160a01b038316610f8c57604051626a0d4560e21b8152600060048201526024016106a5565b604080516001808252602082018590528183019081526060820184905260a08201909252600060808201818152919291610d0e91879185908590611077565b6001600160a01b038416610ff557604051632bfa23e760e11b8152600060048201526024016106a5565b604080516001808252602082018690528183019081526060820185905260808201909252906107f2600087848487611077565b6110718484848460405160240161104294939291906121b3565b60408051601f198184030181529190526020810180516001600160e01b0316631f118ca960e21b1790526111a2565b50505050565b611083858585856111ab565b6001600160a01b03841615610d0e57825133906001036110bc57602084810151908401516110b583898985858961129e565b50506107f2565b6107f28187878787876113c2565b60008072184f03e93ff9f4daa797ed6e38ed64bf6a1f0160401b83106111095772184f03e93ff9f4daa797ed6e38ed64bf6a1f0160401b830492506040015b6d04ee2d6d415b85acef81000000008310611135576d04ee2d6d415b85acef8100000000830492506020015b662386f26fc10000831061115357662386f26fc10000830492506010015b6305f5e100831061116b576305f5e100830492506008015b612710831061117f57612710830492506004015b60648310611191576064830492506002015b600a83106104705760010192915050565b6104d7816114ab565b6111b7848484846114cc565b6001600160a01b03841615806111d457506001600160a01b038316155b61107157600b5460ff1661122a5760405162461bcd60e51b815260206004820152601960248201527f5472616e736665727320617265206e6f7420616c6c6f7765640000000000000060448201526064016106a5565b600b54610100900460ff1615611071576001600160a01b0383166000908152600d602052604090205460ff166110715760405162461bcd60e51b8152602060048201526019602482015278149958da5c1a595b9d081b9bdd081dda1a5d195b1a5cdd1959603a1b60448201526064016106a5565b6001600160a01b0384163b156107f25760405163f23a6e6160e01b81526001600160a01b0385169063f23a6e61906112e290899089908890889088906004016121f8565b6020604051808303816000875af192505050801561131d575060408051601f3d908101601f1916820190925261131a91810190612232565b60015b611386573d80801561134b576040519150601f19603f3d011682016040523d82523d6000602084013e611350565b606091505b50805160000361137e57604051632bfa23e760e11b81526001600160a01b03861660048201526024016106a5565b805181602001fd5b6001600160e01b0319811663f23a6e6160e01b14610f5a57604051632bfa23e760e11b81526001600160a01b03861660048201526024016106a5565b6001600160a01b0384163b156107f25760405163bc197c8160e01b81526001600160a01b0385169063bc197c8190611406908990899088908890889060040161224f565b6020604051808303816000875af1925050508015611441575060408051601f3d908101601f1916820190925261143e91810190612232565b60015b61146f573d80801561134b576040519150601f19603f3d011682016040523d82523d6000602084013e611350565b6001600160e01b0319811663bc197c8160e01b14610f5a57604051632bfa23e760e11b81526001600160a01b03861660048201526024016106a5565b60006a636f6e736f6c652e6c6f679050600080835160208501845afa505050565b6114d884848484611626565b6001600160a01b03841661158b576000805b835181101561157157600083828151811061150757611507612014565b60200260200101519050806004600087858151811061152857611528612014565b60200260200101518152602001908152602001600020600082825461154d9190612040565b9091555061155d90508184612040565b9250508061156a90612053565b90506114ea565b5080600560008282546115849190612040565b9091555050505b6001600160a01b038316611071576000805b83518110156116155760008382815181106115ba576115ba612014565b6020026020010151905080600460008785815181106115db576115db612014565b60200260200101518152602001908152602001600020600082825403925050819055508083019250508061160e90612053565b905061159d565b506005805491909103905550505050565b80518251146116555781518151604051635b05999160e01b8152600481019290925260248201526044016106a5565b3360005b8351811015611764576020818102858101820151908501909101516001600160a01b0388161561170c576000828152602081815260408083206001600160a01b038c168452909152902054818110156116e5576040516303dee4c560e01b81526001600160a01b038a1660048201526024810182905260448101839052606481018490526084016106a5565b6000838152602081815260408083206001600160a01b038d16845290915290209082900390555b6001600160a01b03871615611751576000828152602081815260408083206001600160a01b038b1684529091528120805483929061174b908490612040565b90915550505b50508061175d90612053565b9050611659565b5082516001036117e55760208301516000906020840151909150856001600160a01b0316876001600160a01b0316846001600160a01b03167fc3d58168c5ae7397731d063d5bbf3d657854427343f4c083240f7aacaa2d0f6285856040516117d6929190918252602082015260400190565b60405180910390a45050610d0e565b836001600160a01b0316856001600160a01b0316826001600160a01b03167f4a39dc06d4c0dbc64b70af90fd698a233a518aa5d07e595d983b8c0526c8f7fb86866040516118349291906122ad565b60405180910390a45050505050565b80356001600160a01b038116811461185a57600080fd5b919050565b6000806040838503121561187257600080fd5b61187b83611843565b946020939093013593505050565b6001600160e01b0319811681146104d757600080fd5b6000602082840312156118b157600080fd5b81356118bc81611889565b9392505050565b634e487b7160e01b600052604160045260246000fd5b604080519081016001600160401b03811182821017156118fb576118fb6118c3565b60405290565b604051601f8201601f191681016001600160401b0381118282101715611929576119296118c3565b604052919050565b60006001600160401b0383111561194a5761194a6118c3565b61195d601f8401601f1916602001611901565b905082815283838301111561197157600080fd5b828260208301376000602084830101529392505050565b60006020828403121561199a57600080fd5b81356001600160401b038111156119b057600080fd5b8201601f810184136119c157600080fd5b6119d084823560208401611931565b949350505050565b60005b838110156119f35781810151838201526020016119db565b50506000910152565b60008151808452611a148160208601602086016119d8565b601f01601f19169290920160200192915050565b6020815260006118bc60208301846119fc565b600060208284031215611a4d57600080fd5b5035919050565b60006001600160401b03821115611a6d57611a6d6118c3565b5060051b60200190565b60006020808385031215611a8a57600080fd5b82356001600160401b03811115611aa057600080fd5b8301601f81018513611ab157600080fd5b8035611ac4611abf82611a54565b611901565b81815260069190911b82018301908381019087831115611ae357600080fd5b928401925b82841015611b2d5760408489031215611b015760008081fd5b611b096118d9565b611b1285611843565b81528486013586820152825260409093019290840190611ae8565b979650505050505050565b600082601f830112611b4957600080fd5b81356020611b59611abf83611a54565b82815260059290921b84018101918181019086841115611b7857600080fd5b8286015b84811015611b935780358352918301918301611b7c565b509695505050505050565b600082601f830112611baf57600080fd5b6118bc83833560208501611931565b600080600080600060a08688031215611bd657600080fd5b611bdf86611843565b9450611bed60208701611843565b935060408601356001600160401b0380821115611c0957600080fd5b611c1589838a01611b38565b94506060880135915080821115611c2b57600080fd5b611c3789838a01611b38565b93506080880135915080821115611c4d57600080fd5b50611c5a88828901611b9e565b9150509295509295909350565b600060208284031215611c7957600080fd5b6118bc82611843565b60008060408385031215611c9557600080fd5b82356001600160401b0380821115611cac57600080fd5b818501915085601f830112611cc057600080fd5b81356020611cd0611abf83611a54565b82815260059290921b84018101918181019089841115611cef57600080fd5b948201945b83861015611d1457611d0586611843565b82529482019490820190611cf4565b96505086013592505080821115611d2a57600080fd5b50611d3785828601611b38565b9150509250929050565b600081518084526020808501945080840160005b83811015611d7157815187529582019590820190600101611d55565b509495945050505050565b6020815260006118bc6020830184611d41565b8035801515811461185a57600080fd5b60006020808385031215611db257600080fd5b82356001600160401b03811115611dc857600080fd5b8301601f81018513611dd957600080fd5b8035611de7611abf82611a54565b81815260069190911b82018301908381019087831115611e0657600080fd5b928401925b82841015611b2d5760408489031215611e245760008081fd5b611e2c6118d9565b611e3585611843565b8152611e42868601611d8f565b8187015282526040939093019290840190611e0b565b600080600060608486031215611e6d57600080fd5b611e7684611843565b925060208401356001600160401b0380821115611e9257600080fd5b611e9e87838801611b38565b93506040860135915080821115611eb457600080fd5b50611ec186828701611b38565b9150509250925092565b600060208284031215611edd57600080fd5b6118bc82611d8f565b60008060408385031215611ef957600080fd5b611f0283611843565b9150611f1060208401611d8f565b90509250929050565b60008060408385031215611f2c57600080fd5b611f3583611843565b9150611f1060208401611843565b600080600080600060a08688031215611f5b57600080fd5b611f6486611843565b9450611f7260208701611843565b9350604086013592506060860135915060808601356001600160401b03811115611f9b57600080fd5b611c5a88828901611b9e565b600080600060608486031215611fbc57600080fd5b611fc584611843565b95602085013595506040909401359392505050565b600181811c90821680611fee57607f821691505b60208210810361200e57634e487b7160e01b600052602260045260246000fd5b50919050565b634e487b7160e01b600052603260045260246000fd5b634e487b7160e01b600052601160045260246000fd5b808201808211156104705761047061202a565b6000600182016120655761206561202a565b5060010190565b818103818111156104705761047061202a565b600083516120918184602088016119d8565b8351908301906120a58183602088016119d8565b01949350505050565b601f8211156109a557600081815260208120601f850160051c810160208610156120d55750805b601f850160051c820191505b818110156107f2578281556001016120e1565b81516001600160401b0381111561210d5761210d6118c3565b6121218161211b8454611fda565b846120ae565b602080601f831160018114612156576000841561213e5750858301515b600019600386901b1c1916600185901b1785556107f2565b600085815260208120601f198616915b8281101561218557888601518255948401946001909101908401612166565b50858210156121a35787850151600019600388901b60f8161c191681555b5050505050600190811b01905550565b6080815260006121c660808301876119fc565b85602084015282810360408401526121de81866119fc565b91505060018060a01b038316606083015295945050505050565b6001600160a01b03868116825285166020820152604081018490526060810183905260a060808201819052600090611b2d908301846119fc565b60006020828403121561224457600080fd5b81516118bc81611889565b6001600160a01b0386811682528516602082015260a06040820181905260009061227b90830186611d41565b828103606084015261228d8186611d41565b905082810360808401526122a181856119fc565b98975050505050505050565b6040815260006122c06040830185611d41565b82810360208401526122d28185611d41565b9594505050505056fea26469706673582212204ddac04b1df3e9481d913c911976accb3f1460a03d317c452041e255069a08de64736f6c63430008140033","linkReferences":{}},"methodIdentifiers":{"balanceOf(address,uint256)":"00fdd58e","balanceOfBatch(address[],uint256[])":"4e1273f4","burn(address,uint256,uint256)":"f5298aca","burnBatch(address,uint256[],uint256[])":"6b20c454","currentSupply()":"771282f6","distribute((address,uint256)[])":"1c378573","exists(uint256)":"4f558e79","initialSupply()":"378dc3dc","isApprovedForAll(address,address)":"e985e9c5","isWhitelisted(address)":"3af32abf","maxSupply()":"d5abeb01","name()":"06fdde03","nextTokenId()":"75794a3c","owner()":"8da5cb5b","renounceOwnership()":"715018a6","safeBatchTransferFrom(address,address,uint256[],uint256[],bytes)":"2eb2c2d6","safeTransferFrom(address,address,uint256,uint256,bytes)":"f242432a","setApprovalForAll(address,bool)":"a22cb465","setTransferable(bool)":"9cd23707","setURI(string)":"02fe5305","supportsInterface(bytes4)":"01ffc9a7","symbol()":"95d89b41","tokenURI(uint256)":"c87b56dd","totalSupply()":"18160ddd","totalSupply(uint256)":"bd85b039","transferOwnership(address)":"f2fde38b","transferable()":"92ff0d31","updateSupply(uint256)":"6bd08049","updateWhitelist((address,bool)[])":"54f2a4d3","uri(uint256)":"0e89341c","whitelistOnly()":"4b4687b5"},"id":41}