{"abi":[{"type":"constructor","inputs":[{"name":"owner","type":"address","internalType":"address"},{"name":"baseURI","type":"string","internalType":"string"},{"name":"_name","type":"string","internalType":"string"},{"name":"_symbol","type":"string","internalType":"string"},{"name":"_initialSupply","type":"uint256","internalType":"uint256"},{"name":"_maxSupply","type":"uint256","internalType":"uint256"},{"name":"_transferable","type":"bool","internalType":"bool"},{"name":"_whitelistOnly","type":"bool","internalType":"bool"}],"stateMutability":"nonpayable"},{"type":"function","name":"balanceOf","inputs":[{"name":"account","type":"address","internalType":"address"},{"name":"id","type":"uint256","internalType":"uint256"}],"outputs":[{"name":"","type":"uint256","internalType":"uint256"}],"stateMutability":"view"},{"type":"function","name":"balanceOfBatch","inputs":[{"name":"accounts","type":"address[]","internalType":"address[]"},{"name":"ids","type":"uint256[]","internalType":"uint256[]"}],"outputs":[{"name":"","type":"uint256[]","internalType":"uint256[]"}],"stateMutability":"view"},{"type":"function","name":"burn","inputs":[{"name":"account","type":"address","internalType":"address"},{"name":"id","type":"uint256","internalType":"uint256"},{"name":"value","type":"uint256","internalType":"uint256"}],"outputs":[],"stateMutability":"nonpayable"},{"type":"function","name":"burnBatch","inputs":[{"name":"account","type":"address","internalType":"address"},{"name":"ids","type":"uint256[]","internalType":"uint256[]"},{"name":"values","type":"uint256[]","internalType":"uint256[]"}],"outputs":[],"stateMutability":"nonpayable"},{"type":"function","name":"currentSupply","inputs":[],"outputs":[{"name":"","type":"uint256","internalType":"uint256"}],"stateMutability":"view"},{"type":"function","name":"distribute","inputs":[{"name":"_distributions","type":"tuple[]","internalType":"struct FreeTicket.Distribution[]","components":[{"name":"recipient","type":"address","internalType":"address"},{"name":"amount","type":"uint256","internalType":"uint256"}]}],"outputs":[],"stateMutability":"nonpayable"},{"type":"function","name":"exists","inputs":[{"name":"id","type":"uint256","internalType":"uint256"}],"outputs":[{"name":"","type":"bool","internalType":"bool"}],"stateMutability":"view"},{"type":"function","name":"getTicketHolders","inputs":[{"name":"start","type":"uint256","internalType":"uint256"},{"name":"pageSize","type":"uint256","internalType":"uint256"}],"outputs":[{"name":"","type":"address[]","internalType":"address[]"}],"stateMutability":"view"},{"type":"function","name":"getTokensByUser","inputs":[{"name":"user","type":"address","internalType":"address"}],"outputs":[{"name":"","type":"uint256[]","internalType":"uint256[]"}],"stateMutability":"view"},{"type":"function","name":"initialSupply","inputs":[],"outputs":[{"name":"","type":"uint256","internalType":"uint256"}],"stateMutability":"view"},{"type":"function","name":"isApprovedForAll","inputs":[{"name":"account","type":"address","internalType":"address"},{"name":"operator","type":"address","internalType":"address"}],"outputs":[{"name":"","type":"bool","internalType":"bool"}],"stateMutability":"view"},{"type":"function","name":"isTrustedForwarder","inputs":[{"name":"forwarder","type":"address","internalType":"address"}],"outputs":[{"name":"","type":"bool","internalType":"bool"}],"stateMutability":"view"},{"type":"function","name":"isWhitelisted","inputs":[{"name":"","type":"address","internalType":"address"}],"outputs":[{"name":"","type":"bool","internalType":"bool"}],"stateMutability":"view"},{"type":"function","name":"maxSupply","inputs":[],"outputs":[{"name":"","type":"uint256","internalType":"uint256"}],"stateMutability":"view"},{"type":"function","name":"name","inputs":[],"outputs":[{"name":"","type":"string","internalType":"string"}],"stateMutability":"view"},{"type":"function","name":"nextTokenId","inputs":[],"outputs":[{"name":"","type":"uint256","internalType":"uint256"}],"stateMutability":"view"},{"type":"function","name":"owner","inputs":[],"outputs":[{"name":"","type":"address","internalType":"address"}],"stateMutability":"view"},{"type":"function","name":"renounceOwnership","inputs":[],"outputs":[],"stateMutability":"nonpayable"},{"type":"function","name":"safeBatchTransferFrom","inputs":[{"name":"from","type":"address","internalType":"address"},{"name":"to","type":"address","internalType":"address"},{"name":"ids","type":"uint256[]","internalType":"uint256[]"},{"name":"values","type":"uint256[]","internalType":"uint256[]"},{"name":"data","type":"bytes","internalType":"bytes"}],"outputs":[],"stateMutability":"nonpayable"},{"type":"function","name":"safeTransferFrom","inputs":[{"name":"from","type":"address","internalType":"address"},{"name":"to","type":"address","internalType":"address"},{"name":"id","type":"uint256","internalType":"uint256"},{"name":"value","type":"uint256","internalType":"uint256"},{"name":"data","type":"bytes","internalType":"bytes"}],"outputs":[],"stateMutability":"nonpayable"},{"type":"function","name":"setApprovalForAll","inputs":[{"name":"operator","type":"address","internalType":"address"},{"name":"approved","type":"bool","internalType":"bool"}],"outputs":[],"stateMutability":"nonpayable"},{"type":"function","name":"setTransferable","inputs":[{"name":"_transferable","type":"bool","internalType":"bool"}],"outputs":[],"stateMutability":"nonpayable"},{"type":"function","name":"setURI","inputs":[{"name":"newuri","type":"string","internalType":"string"}],"outputs":[],"stateMutability":"nonpayable"},{"type":"function","name":"supportsInterface","inputs":[{"name":"interfaceId","type":"bytes4","internalType":"bytes4"}],"outputs":[{"name":"","type":"bool","internalType":"bool"}],"stateMutability":"view"},{"type":"function","name":"symbol","inputs":[],"outputs":[{"name":"","type":"string","internalType":"string"}],"stateMutability":"view"},{"type":"function","name":"tokenURI","inputs":[{"name":"_tokenId","type":"uint256","internalType":"uint256"}],"outputs":[{"name":"","type":"string","internalType":"string"}],"stateMutability":"view"},{"type":"function","name":"totalSupply","inputs":[],"outputs":[{"name":"","type":"uint256","internalType":"uint256"}],"stateMutability":"view"},{"type":"function","name":"totalSupply","inputs":[{"name":"id","type":"uint256","internalType":"uint256"}],"outputs":[{"name":"","type":"uint256","internalType":"uint256"}],"stateMutability":"view"},{"type":"function","name":"transferOwnership","inputs":[{"name":"newOwner","type":"address","internalType":"address"}],"outputs":[],"stateMutability":"nonpayable"},{"type":"function","name":"transferable","inputs":[],"outputs":[{"name":"","type":"bool","internalType":"bool"}],"stateMutability":"view"},{"type":"function","name":"trustedForwarder","inputs":[],"outputs":[{"name":"","type":"address","internalType":"address"}],"stateMutability":"view"},{"type":"function","name":"updateSupply","inputs":[{"name":"_additionalSupply","type":"uint256","internalType":"uint256"}],"outputs":[],"stateMutability":"nonpayable"},{"type":"function","name":"updateWhitelist","inputs":[{"name":"_whitelistUpdates","type":"tuple[]","internalType":"struct FreeTicket.Whitelist[]","components":[{"name":"user","type":"address","internalType":"address"},{"name":"status","type":"bool","internalType":"bool"}]}],"outputs":[],"stateMutability":"nonpayable"},{"type":"function","name":"uri","inputs":[{"name":"","type":"uint256","internalType":"uint256"}],"outputs":[{"name":"","type":"string","internalType":"string"}],"stateMutability":"view"},{"type":"function","name":"userHasToken","inputs":[{"name":"user","type":"address","internalType":"address"},{"name":"tokenId","type":"uint256","internalType":"uint256"}],"outputs":[{"name":"","type":"bool","internalType":"bool"}],"stateMutability":"view"},{"type":"function","name":"whitelistOnly","inputs":[],"outputs":[{"name":"","type":"bool","internalType":"bool"}],"stateMutability":"view"},{"type":"event","name":"ApprovalForAll","inputs":[{"name":"account","type":"address","indexed":true,"internalType":"address"},{"name":"operator","type":"address","indexed":true,"internalType":"address"},{"name":"approved","type":"bool","indexed":false,"internalType":"bool"}],"anonymous":false},{"type":"event","name":"OwnershipTransferred","inputs":[{"name":"previousOwner","type":"address","indexed":true,"internalType":"address"},{"name":"newOwner","type":"address","indexed":true,"internalType":"address"}],"anonymous":false},{"type":"event","name":"SupplyUpdated","inputs":[{"name":"newSupply","type":"uint256","indexed":false,"internalType":"uint256"}],"anonymous":false},{"type":"event","name":"TransferBatch","inputs":[{"name":"operator","type":"address","indexed":true,"internalType":"address"},{"name":"from","type":"address","indexed":true,"internalType":"address"},{"name":"to","type":"address","indexed":true,"internalType":"address"},{"name":"ids","type":"uint256[]","indexed":false,"internalType":"uint256[]"},{"name":"values","type":"uint256[]","indexed":false,"internalType":"uint256[]"}],"anonymous":false},{"type":"event","name":"TransferSingle","inputs":[{"name":"operator","type":"address","indexed":true,"internalType":"address"},{"name":"from","type":"address","indexed":true,"internalType":"address"},{"name":"to","type":"address","indexed":true,"internalType":"address"},{"name":"id","type":"uint256","indexed":false,"internalType":"uint256"},{"name":"value","type":"uint256","indexed":false,"internalType":"uint256"}],"anonymous":false},{"type":"event","name":"URI","inputs":[{"name":"value","type":"string","indexed":false,"internalType":"string"},{"name":"id","type":"uint256","indexed":true,"internalType":"uint256"}],"anonymous":false},{"type":"error","name":"ERC1155InsufficientBalance","inputs":[{"name":"sender","type":"address","internalType":"address"},{"name":"balance","type":"uint256","internalType":"uint256"},{"name":"needed","type":"uint256","internalType":"uint256"},{"name":"tokenId","type":"uint256","internalType":"uint256"}]},{"type":"error","name":"ERC1155InvalidApprover","inputs":[{"name":"approver","type":"address","internalType":"address"}]},{"type":"error","name":"ERC1155InvalidArrayLength","inputs":[{"name":"idsLength","type":"uint256","internalType":"uint256"},{"name":"valuesLength","type":"uint256","internalType":"uint256"}]},{"type":"error","name":"ERC1155InvalidOperator","inputs":[{"name":"operator","type":"address","internalType":"address"}]},{"type":"error","name":"ERC1155InvalidReceiver","inputs":[{"name":"receiver","type":"address","internalType":"address"}]},{"type":"error","name":"ERC1155InvalidSender","inputs":[{"name":"sender","type":"address","internalType":"address"}]},{"type":"error","name":"ERC1155MissingApprovalForAll","inputs":[{"name":"operator","type":"address","internalType":"address"},{"name":"owner","type":"address","internalType":"address"}]},{"type":"error","name":"OwnableInvalidOwner","inputs":[{"name":"owner","type":"address","internalType":"address"}]},{"type":"error","name":"OwnableUnauthorizedAccount","inputs":[{"name":"account","type":"address","internalType":"address"}]}],"bytecode":{"object":"0x60a06040526001600c553480156200001657600080fd5b50604051620030a9380380620030a98339810160408190526200003991620002b3565b73d8253782c45a12053594b9deb72d8e8ab2fca54c88886200005b816200015c565b506001600160a01b0381166200008c57604051631e4fbdf760e01b8152600060048201526024015b60405180910390fd5b62000097816200016e565b506001600160a01b031660805282841115620001005760405162461bcd60e51b815260206004820152602160248201527f496e697469616c20737570706c792065786365656473206d617820737570706c6044820152607960f81b606482015260840162000083565b60066200010e878262000420565b5060076200011d868262000420565b506008849055600992909255600a92909255600b805461ffff191692151561ff001916929092176101009115159190910217905550620004ec92505050565b60026200016a828262000420565b5050565b600380546001600160a01b038381166001600160a01b0319831681179093556040519116919082907f8be0079c531659141344cd1fd0a4f28419497f9722a3daafe3b4186f6b6457e090600090a35050565b80516001600160a01b0381168114620001d857600080fd5b919050565b634e487b7160e01b600052604160045260246000fd5b600082601f8301126200020557600080fd5b81516001600160401b0380821115620002225762000222620001dd565b604051601f8301601f19908116603f011681019082821181831017156200024d576200024d620001dd565b816040528381526020925086838588010111156200026a57600080fd5b600091505b838210156200028e57858201830151818301840152908201906200026f565b600093810190920192909252949350505050565b80518015158114620001d857600080fd5b600080600080600080600080610100898b031215620002d157600080fd5b620002dc89620001c0565b60208a01519098506001600160401b0380821115620002fa57600080fd5b620003088c838d01620001f3565b985060408b01519150808211156200031f57600080fd5b6200032d8c838d01620001f3565b975060608b01519150808211156200034457600080fd5b50620003538b828c01620001f3565b9550506080890151935060a089015192506200037260c08a01620002a2565b91506200038260e08a01620002a2565b90509295985092959890939650565b600181811c90821680620003a657607f821691505b602082108103620003c757634e487b7160e01b600052602260045260246000fd5b50919050565b601f8211156200041b57600081815260208120601f850160051c81016020861015620003f65750805b601f850160051c820191505b81811015620004175782815560010162000402565b5050505b505050565b81516001600160401b038111156200043c576200043c620001dd565b62000454816200044d845462000391565b84620003cd565b602080601f8311600181146200048c5760008415620004735750858301515b600019600386901b1c1916600185901b17855562000417565b600085815260208120601f198616915b82811015620004bd578886015182559484019460019091019084016200049c565b5085821015620004dc5787850151600019600388901b60f8161c191681555b5050505050600190811b01905550565b608051612b9362000516600039600081816103aa0152818161041c01526113e80152612b936000f3fe608060405234801561001057600080fd5b506004361061021b5760003560e01c80636bd08049116101255780639cd23707116100ad578063d5abeb011161007c578063d5abeb01146104e6578063e985e9c5146104ef578063f242432a14610502578063f2fde38b14610515578063f5298aca1461052857600080fd5b80639cd237071461048d578063a22cb465146104a0578063bd85b039146104b3578063c87b56dd146104d357600080fd5b80637da0a877116100f45780637da0a8771461041a57806380370075146104545780638da5cb5b1461046757806392ff0d311461047857806395d89b411461048557600080fd5b80636bd08049146103ed578063715018a61461040057806375794a3c14610408578063771282f61461041157600080fd5b80632eb2c2d6116101a85780634e1273f4116101775780634e1273f4146103455780634f558e791461036557806354f2a4d314610387578063572b6c051461039a5780636b20c454146103da57600080fd5b80632eb2c2d6146102f4578063378dc3dc146103075780633af32abf146103105780634b4687b51461033357600080fd5b80630ab464f0116101ef5780630ab464f0146102935780630e89341c146102a657806318160ddd146102b95780631c378573146102c157806320ced105146102d457600080fd5b8062fdd58e1461022057806301ffc9a71461024657806302fe53051461026957806306fdde031461027e575b600080fd5b61023361022e366004612004565b61053b565b6040519081526020015b60405180910390f35b610259610254366004612044565b610563565b604051901515815260200161023d565b61027c610277366004612126565b6105b3565b005b6102866105c7565b60405161023d91906121c6565b6102596102a1366004612004565b610655565b6102866102b43660046121d9565b61067e565b600554610233565b61027c6102cf366004612215565b610712565b6102e76102e23660046122d6565b6108f4565b60405161023d91906122f8565b61027c6103023660046123cb565b6109d0565b61023360085481565b61025961031e366004612474565b60106020526000908152604090205460ff1681565b600b5461025990610100900460ff1681565b61035861035336600461248f565b610a4b565b60405161023d9190612589565b6102596103733660046121d9565b600090815260046020526040902054151590565b61027c6103953660046125ac565b610b1f565b6102596103a8366004612474565b7f00000000000000000000000000000000000000000000000000000000000000006001600160a01b0390811691161490565b61027c6103e8366004612665565b610b97565b61027c6103fb3660046121d9565b610c13565b61027c610cbe565b610233600c5481565b610233600a5481565b7f00000000000000000000000000000000000000000000000000000000000000005b6040516001600160a01b03909116815260200161023d565b610358610462366004612474565b610cd2565b6003546001600160a01b031661043c565b600b546102599060ff1681565b610286610cf6565b61027c61049b3660046126d8565b610d03565b61027c6104ae3660046126f3565b610d1e565b6102336104c13660046121d9565b60009081526004602052604090205490565b6102866104e13660046121d9565b610d30565b61023360095481565b6102596104fd366004612726565b610d6b565b61027c610510366004612750565b610d99565b61027c610523366004612474565b610e0c565b61027c6105363660046127b4565b610e47565b6000818152602081815260408083206001600160a01b03861684529091529020545b92915050565b60006001600160e01b03198216636cdb3d1360e11b148061059457506001600160e01b031982166303a24d0760e21b145b8061055d57506301ffc9a760e01b6001600160e01b031983161461055d565b6105bb610e91565b6105c481610eef565b50565b600680546105d4906127e7565b80601f0160208091040260200160405190810160405280929190818152602001828054610600906127e7565b801561064d5780601f106106225761010080835404028352916020019161064d565b820191906000526020600020905b81548152906001019060200180831161063057829003601f168201915b505050505081565b6001600160a01b0382166000908152600d602052604081206106779083610efb565b9392505050565b60606002805461068d906127e7565b80601f01602080910402602001604051908101604052809291908181526020018280546106b9906127e7565b80156107065780601f106106db57610100808354040283529160200191610706565b820191906000526020600020905b8154815290600101906020018083116106e957829003601f168201915b50505050509050919050565b61071a610e91565b6000805b82518110156107e957600083828151811061073b5761073b612821565b60200260200101519050600b60019054906101000a900460ff16156107c45780516001600160a01b031660009081526010602052604090205460ff166107c45760405162461bcd60e51b8152602060048201526019602482015278149958da5c1a595b9d081b9bdd081dda1a5d195b1a5cdd1959603a1b60448201526064015b60405180910390fd5b60208101516107d3908461284d565b92505080806107e190612860565b91505061071e565b5080600a5410156108355760405162461bcd60e51b8152602060048201526016602482015275457863656564732063757272656e7420737570706c7960501b60448201526064016107bb565b60095481600a54610846919061284d565b11156108895760405162461bcd60e51b815260206004820152601260248201527145786365656473206d617820737570706c7960701b60448201526064016107bb565b60005b82518110156108d85760008382815181106108a9576108a9612821565b602002602001015190506108c581600001518260200151610f13565b50806108d081612860565b91505061088c565b5080600a60008282546108eb9190612879565b90915550505050565b60606000610902600e610fb3565b90506000610910848661284d565b90508181111561091d5750805b60006109298683612879565b6001600160401b0381111561094057610940612061565b604051908082528060200260200182016040528015610969578160200160208202803683370190505b509050855b828110156109c657610981600e82610fbd565b8261098c8984612879565b8151811061099c5761099c612821565b6001600160a01b0390921660209283029190910190910152806109be81612860565b91505061096e565b5095945050505050565b60006109da610fc9565b9050806001600160a01b0316866001600160a01b031614158015610a055750610a038682610d6b565b155b15610a365760405163711bec9160e11b81526001600160a01b038083166004830152871660248201526044016107bb565b610a438686868686610fd8565b505050505050565b60608151835114610a7c5781518351604051635b05999160e01b8152600481019290925260248201526044016107bb565b600083516001600160401b03811115610a9757610a97612061565b604051908082528060200260200182016040528015610ac0578160200160208202803683370190505b50905060005b8451811015610b1757602080820286010151610aea9060208084028701015161053b565b828281518110610afc57610afc612821565b6020908102919091010152610b1081612860565b9050610ac6565b509392505050565b610b27610e91565b60005b8151811015610b93576000828281518110610b4757610b47612821565b6020908102919091018101518082015190516001600160a01b0316600090815260109092526040909120805460ff19169115159190911790555080610b8b81612860565b915050610b2a565b5050565b610b9f610fc9565b6001600160a01b0316836001600160a01b031614158015610bc95750610bc7836104fd610fc9565b155b15610c0357610bd6610fc9565b60405163711bec9160e11b81526001600160a01b03918216600482015290841660248201526044016107bb565b610c0e83838361103f565b505050565b610c1b610e91565b60095481600a54610c2c919061284d565b1115610c6f5760405162461bcd60e51b815260206004820152601260248201527145786365656473206d617820737570706c7960701b60448201526064016107bb565b600081600a54610c7f919061284d565b600a8190556040518181529091507fea4bfee7f9fb38136c61cc04b6e56efc93eaf1beef326dbc47495b358385914c9060200160405180910390a15050565b610cc6610e91565b610cd06000611085565b565b6001600160a01b0381166000908152600d6020526040902060609061055d906110d7565b600780546105d4906127e7565b610d0b610e91565b600b805460ff1916911515919091179055565b610b93610d29610fc9565b83836110e4565b6060610d3b8261067e565b610d448361117a565b604051602001610d5592919061288c565b6040516020818303038152906040529050919050565b6001600160a01b03918216600090815260016020908152604080832093909416825291909152205460ff1690565b6000610da3610fc9565b9050806001600160a01b0316866001600160a01b031614158015610dce5750610dcc8682610d6b565b155b15610dff5760405163711bec9160e11b81526001600160a01b038083166004830152871660248201526044016107bb565b610a43868686868661120c565b610e14610e91565b6001600160a01b038116610e3e57604051631e4fbdf760e01b8152600060048201526024016107bb565b6105c481611085565b610e4f610fc9565b6001600160a01b0316836001600160a01b031614158015610e795750610e77836104fd610fc9565b155b15610e8657610bd6610fc9565b610c0e83838361129a565b610e99610fc9565b6001600160a01b0316610eb46003546001600160a01b031690565b6001600160a01b031614610cd057610eca610fc9565b60405163118cdaa760e01b81526001600160a01b0390911660048201526024016107bb565b6002610b938282612901565b60008181526001830160205260408120541515610677565b60005b81811015610c0e57610f3c83600c54600160405180602001604052806000815250611302565b610f8b6040518060400160405280600f81526020016e135a5b9d1959081d1bdad95b881251608a1b815250600c5460405180604001604052806002815260200161746f60f01b8152508661135f565b600c8054906000610f9b83612860565b91905055508080610fab90612860565b915050610f16565b600061055d825490565b600061067783836113ae565b6000610fd36113d8565b905090565b6001600160a01b03841661100257604051632bfa23e760e11b8152600060048201526024016107bb565b6001600160a01b03851661102b57604051626a0d4560e21b8152600060048201526024016107bb565b611038858585858561144d565b5050505050565b6001600160a01b03831661106857604051626a0d4560e21b8152600060048201526024016107bb565b610c0e83600084846040518060200160405280600081525061144d565b600380546001600160a01b038381166001600160a01b0319831681179093556040519116919082907f8be0079c531659141344cd1fd0a4f28419497f9722a3daafe3b4186f6b6457e090600090a35050565b60606000610677836114aa565b6001600160a01b03821661110d5760405162ced3e160e81b8152600060048201526024016107bb565b6001600160a01b03838116600081815260016020908152604080832094871680845294825291829020805460ff191686151590811790915591519182527f17307eab39ab6107e8899845ad3d59bd9653f200f220920489ca2b5937696c31910160405180910390a3505050565b6060600061118783611505565b60010190506000816001600160401b038111156111a6576111a6612061565b6040519080825280601f01601f1916602001820160405280156111d0576020820181803683370190505b5090508181016020015b600019016f181899199a1a9b1b9c1cb0b131b232b360811b600a86061a8153600a85049450846111da57509392505050565b6001600160a01b03841661123657604051632bfa23e760e11b8152600060048201526024016107bb565b6001600160a01b03851661125f57604051626a0d4560e21b8152600060048201526024016107bb565b60408051600180825260208201869052818301908152606082018590526080820190925290611291878784848761144d565b50505050505050565b6001600160a01b0383166112c357604051626a0d4560e21b8152600060048201526024016107bb565b604080516001808252602082018590528183019081526060820184905260a082019092526000608082018181529192916110389187918590859061144d565b6001600160a01b03841661132c57604051632bfa23e760e11b8152600060048201526024016107bb565b60408051600180825260208201869052818301908152606082018590526080820190925290610a4360008784848761144d565b6113a88484848460405160240161137994939291906129c0565b60408051601f198184030181529190526020810180516001600160e01b0316631f118ca960e21b1790526115dd565b50505050565b60008260000182815481106113c5576113c5612821565b9060005260206000200154905092915050565b6000366014336001600160a01b037f0000000000000000000000000000000000000000000000000000000000000000161480156114155750808210155b15611445576000366114278385612879565b611432928290612a05565b61143b91612a2f565b60601c9250505090565b339250505090565b611459858585856115e6565b6001600160a01b03841615611038576000611472610fc9565b9050835160010361149c57602084810151908401516114958389898585896118b4565b5050610a43565b610a438187878787876119d8565b60608160000180548060200260200160405190810160405280929190818152602001828054801561070657602002820191906000526020600020905b8154815260200190600101908083116114e65750505050509050919050565b60008072184f03e93ff9f4daa797ed6e38ed64bf6a1f0160401b83106115445772184f03e93ff9f4daa797ed6e38ed64bf6a1f0160401b830492506040015b6d04ee2d6d415b85acef81000000008310611570576d04ee2d6d415b85acef8100000000830492506020015b662386f26fc10000831061158e57662386f26fc10000830492506010015b6305f5e10083106115a6576305f5e100830492506008015b61271083106115ba57612710830492506004015b606483106115cc576064830492506002015b600a831061055d5760010192915050565b6105c481611ac1565b6115f284848484611ae2565b60005b825181101561175e57600082828151811061161257611612612821565b6020026020010151111561174c576001600160a01b038516156116df576116528584838151811061164557611645612821565b602002602001015161053b565b6000036116df576116a983828151811061166e5761166e612821565b6020026020010151600d6000886001600160a01b03166001600160a01b03168152602001908152602001600020611c3c90919063ffffffff16565b506001600160a01b0385166000908152600d602052604090206116cb90610fb3565b6000036116df576116dd600e86611c48565b505b6001600160a01b0384161561174c5761173e83828151811061170357611703612821565b6020026020010151600d6000876001600160a01b03166001600160a01b03168152602001908152602001600020611c5d90919063ffffffff16565b5061174a600e85611c69565b505b8061175681612860565b9150506115f5565b506001600160a01b038416158061177c57506001600160a01b038316155b6113a857600b5460ff166117d25760405162461bcd60e51b815260206004820152601960248201527f5472616e736665727320617265206e6f7420616c6c6f7765640000000000000060448201526064016107bb565b600b54610100900460ff16156113a857601060006117ee610fc9565b6001600160a01b0316815260208101919091526040016000205460ff166118505760405162461bcd60e51b815260206004820152601660248201527514d95b99195c881b9bdd081dda1a5d195b1a5cdd195960521b60448201526064016107bb565b6001600160a01b03831660009081526010602052604090205460ff166113a85760405162461bcd60e51b8152602060048201526019602482015278149958da5c1a595b9d081b9bdd081dda1a5d195b1a5cdd1959603a1b60448201526064016107bb565b6001600160a01b0384163b15610a435760405163f23a6e6160e01b81526001600160a01b0385169063f23a6e61906118f89089908990889088908890600401612a64565b6020604051808303816000875af1925050508015611933575060408051601f3d908101601f1916820190925261193091810190612a9e565b60015b61199c573d808015611961576040519150601f19603f3d011682016040523d82523d6000602084013e611966565b606091505b50805160000361199457604051632bfa23e760e11b81526001600160a01b03861660048201526024016107bb565b805181602001fd5b6001600160e01b0319811663f23a6e6160e01b1461129157604051632bfa23e760e11b81526001600160a01b03861660048201526024016107bb565b6001600160a01b0384163b15610a435760405163bc197c8160e01b81526001600160a01b0385169063bc197c8190611a1c9089908990889088908890600401612abb565b6020604051808303816000875af1925050508015611a57575060408051601f3d908101601f19168201909252611a5491810190612a9e565b60015b611a85573d808015611961576040519150601f19603f3d011682016040523d82523d6000602084013e611966565b6001600160e01b0319811663bc197c8160e01b1461129157604051632bfa23e760e11b81526001600160a01b03861660048201526024016107bb565b60006a636f6e736f6c652e6c6f679050600080835160208501845afa505050565b611aee84848484611c7e565b6001600160a01b038416611ba1576000805b8351811015611b87576000838281518110611b1d57611b1d612821565b602002602001015190508060046000878581518110611b3e57611b3e612821565b602002602001015181526020019081526020016000206000828254611b63919061284d565b90915550611b739050818461284d565b92505080611b8090612860565b9050611b00565b508060056000828254611b9a919061284d565b9091555050505b6001600160a01b0383166113a8576000805b8351811015611c2b576000838281518110611bd057611bd0612821565b602002602001015190508060046000878581518110611bf157611bf1612821565b602002602001015181526020019081526020016000206000828254039250508190555080830192505080611c2490612860565b9050611bb3565b506005805491909103905550505050565b60006106778383611ea6565b6000610677836001600160a01b038416611ea6565b60006106778383611f99565b6000610677836001600160a01b038416611f99565b8051825114611cad5781518151604051635b05999160e01b8152600481019290925260248201526044016107bb565b6000611cb7610fc9565b905060005b8351811015611dc7576020818102858101820151908501909101516001600160a01b03881615611d6f576000828152602081815260408083206001600160a01b038c16845290915290205481811015611d48576040516303dee4c560e01b81526001600160a01b038a1660048201526024810182905260448101839052606481018490526084016107bb565b6000838152602081815260408083206001600160a01b038d16845290915290209082900390555b6001600160a01b03871615611db4576000828152602081815260408083206001600160a01b038b16845290915281208054839290611dae90849061284d565b90915550505b505080611dc090612860565b9050611cbc565b508251600103611e485760208301516000906020840151909150856001600160a01b0316876001600160a01b0316846001600160a01b03167fc3d58168c5ae7397731d063d5bbf3d657854427343f4c083240f7aacaa2d0f628585604051611e39929190918252602082015260400190565b60405180910390a45050611038565b836001600160a01b0316856001600160a01b0316826001600160a01b03167f4a39dc06d4c0dbc64b70af90fd698a233a518aa5d07e595d983b8c0526c8f7fb8686604051611e97929190612b19565b60405180910390a45050505050565b60008181526001830160205260408120548015611f8f576000611eca600183612879565b8554909150600090611ede90600190612879565b9050808214611f43576000866000018281548110611efe57611efe612821565b9060005260206000200154905080876000018481548110611f2157611f21612821565b6000918252602080832090910192909255918252600188019052604090208390555b8554869080611f5457611f54612b47565b60019003818190600052602060002001600090559055856001016000868152602001908152602001600020600090556001935050505061055d565b600091505061055d565b6000818152600183016020526040812054611fe05750815460018181018455600084815260208082209093018490558454848252828601909352604090209190915561055d565b50600061055d565b80356001600160a01b0381168114611fff57600080fd5b919050565b6000806040838503121561201757600080fd5b61202083611fe8565b946020939093013593505050565b6001600160e01b0319811681146105c457600080fd5b60006020828403121561205657600080fd5b81356106778161202e565b634e487b7160e01b600052604160045260246000fd5b604080519081016001600160401b038111828210171561209957612099612061565b60405290565b604051601f8201601f191681016001600160401b03811182821017156120c7576120c7612061565b604052919050565b60006001600160401b038311156120e8576120e8612061565b6120fb601f8401601f191660200161209f565b905082815283838301111561210f57600080fd5b828260208301376000602084830101529392505050565b60006020828403121561213857600080fd5b81356001600160401b0381111561214e57600080fd5b8201601f8101841361215f57600080fd5b61216e848235602084016120cf565b949350505050565b60005b83811015612191578181015183820152602001612179565b50506000910152565b600081518084526121b2816020860160208601612176565b601f01601f19169290920160200192915050565b602081526000610677602083018461219a565b6000602082840312156121eb57600080fd5b5035919050565b60006001600160401b0382111561220b5761220b612061565b5060051b60200190565b6000602080838503121561222857600080fd5b82356001600160401b0381111561223e57600080fd5b8301601f8101851361224f57600080fd5b803561226261225d826121f2565b61209f565b81815260069190911b8201830190838101908783111561228157600080fd5b928401925b828410156122cb576040848903121561229f5760008081fd5b6122a7612077565b6122b085611fe8565b81528486013586820152825260409093019290840190612286565b979650505050505050565b600080604083850312156122e957600080fd5b50508035926020909101359150565b6020808252825182820181905260009190848201906040850190845b818110156123395783516001600160a01b031683529284019291840191600101612314565b50909695505050505050565b600082601f83011261235657600080fd5b8135602061236661225d836121f2565b82815260059290921b8401810191818101908684111561238557600080fd5b8286015b848110156123a05780358352918301918301612389565b509695505050505050565b600082601f8301126123bc57600080fd5b610677838335602085016120cf565b600080600080600060a086880312156123e357600080fd5b6123ec86611fe8565b94506123fa60208701611fe8565b935060408601356001600160401b038082111561241657600080fd5b61242289838a01612345565b9450606088013591508082111561243857600080fd5b61244489838a01612345565b9350608088013591508082111561245a57600080fd5b50612467888289016123ab565b9150509295509295909350565b60006020828403121561248657600080fd5b61067782611fe8565b600080604083850312156124a257600080fd5b82356001600160401b03808211156124b957600080fd5b818501915085601f8301126124cd57600080fd5b813560206124dd61225d836121f2565b82815260059290921b840181019181810190898411156124fc57600080fd5b948201945b838610156125215761251286611fe8565b82529482019490820190612501565b9650508601359250508082111561253757600080fd5b5061254485828601612345565b9150509250929050565b600081518084526020808501945080840160005b8381101561257e57815187529582019590820190600101612562565b509495945050505050565b602081526000610677602083018461254e565b80358015158114611fff57600080fd5b600060208083850312156125bf57600080fd5b82356001600160401b038111156125d557600080fd5b8301601f810185136125e657600080fd5b80356125f461225d826121f2565b81815260069190911b8201830190838101908783111561261357600080fd5b928401925b828410156122cb57604084890312156126315760008081fd5b612639612077565b61264285611fe8565b815261264f86860161259c565b8187015282526040939093019290840190612618565b60008060006060848603121561267a57600080fd5b61268384611fe8565b925060208401356001600160401b038082111561269f57600080fd5b6126ab87838801612345565b935060408601359150808211156126c157600080fd5b506126ce86828701612345565b9150509250925092565b6000602082840312156126ea57600080fd5b6106778261259c565b6000806040838503121561270657600080fd5b61270f83611fe8565b915061271d6020840161259c565b90509250929050565b6000806040838503121561273957600080fd5b61274283611fe8565b915061271d60208401611fe8565b600080600080600060a0868803121561276857600080fd5b61277186611fe8565b945061277f60208701611fe8565b9350604086013592506060860135915060808601356001600160401b038111156127a857600080fd5b612467888289016123ab565b6000806000606084860312156127c957600080fd5b6127d284611fe8565b95602085013595506040909401359392505050565b600181811c908216806127fb57607f821691505b60208210810361281b57634e487b7160e01b600052602260045260246000fd5b50919050565b634e487b7160e01b600052603260045260246000fd5b634e487b7160e01b600052601160045260246000fd5b8082018082111561055d5761055d612837565b60006001820161287257612872612837565b5060010190565b8181038181111561055d5761055d612837565b6000835161289e818460208801612176565b8351908301906128b2818360208801612176565b01949350505050565b601f821115610c0e57600081815260208120601f850160051c810160208610156128e25750805b601f850160051c820191505b81811015610a43578281556001016128ee565b81516001600160401b0381111561291a5761291a612061565b61292e8161292884546127e7565b846128bb565b602080601f831160018114612963576000841561294b5750858301515b600019600386901b1c1916600185901b178555610a43565b600085815260208120601f198616915b8281101561299257888601518255948401946001909101908401612973565b50858210156129b05787850151600019600388901b60f8161c191681555b5050505050600190811b01905550565b6080815260006129d3608083018761219a565b85602084015282810360408401526129eb818661219a565b91505060018060a01b038316606083015295945050505050565b60008085851115612a1557600080fd5b83861115612a2257600080fd5b5050820193919092039150565b6bffffffffffffffffffffffff198135818116916014851015612a5c5780818660140360031b1b83161692505b505092915050565b6001600160a01b03868116825285166020820152604081018490526060810183905260a0608082018190526000906122cb9083018461219a565b600060208284031215612ab057600080fd5b81516106778161202e565b6001600160a01b0386811682528516602082015260a060408201819052600090612ae79083018661254e565b8281036060840152612af9818661254e565b90508281036080840152612b0d818561219a565b98975050505050505050565b604081526000612b2c604083018561254e565b8281036020840152612b3e818561254e565b95945050505050565b634e487b7160e01b600052603160045260246000fdfea2646970667358221220a3ec948a678eafb4148fda776ec14b9d8847ae45e94f8cf873b4178d28085e7e64736f6c63430008140033","linkReferences":{}},"methodIdentifiers":{"balanceOf(address,uint256)":"00fdd58e","balanceOfBatch(address[],uint256[])":"4e1273f4","burn(address,uint256,uint256)":"f5298aca","burnBatch(address,uint256[],uint256[])":"6b20c454","currentSupply()":"771282f6","distribute((address,uint256)[])":"1c378573","exists(uint256)":"4f558e79","getTicketHolders(uint256,uint256)":"20ced105","getTokensByUser(address)":"80370075","initialSupply()":"378dc3dc","isApprovedForAll(address,address)":"e985e9c5","isTrustedForwarder(address)":"572b6c05","isWhitelisted(address)":"3af32abf","maxSupply()":"d5abeb01","name()":"06fdde03","nextTokenId()":"75794a3c","owner()":"8da5cb5b","renounceOwnership()":"715018a6","safeBatchTransferFrom(address,address,uint256[],uint256[],bytes)":"2eb2c2d6","safeTransferFrom(address,address,uint256,uint256,bytes)":"f242432a","setApprovalForAll(address,bool)":"a22cb465","setTransferable(bool)":"9cd23707","setURI(string)":"02fe5305","supportsInterface(bytes4)":"01ffc9a7","symbol()":"95d89b41","tokenURI(uint256)":"c87b56dd","totalSupply()":"18160ddd","totalSupply(uint256)":"bd85b039","transferOwnership(address)":"f2fde38b","transferable()":"92ff0d31","trustedForwarder()":"7da0a877","updateSupply(uint256)":"6bd08049","updateWhitelist((address,bool)[])":"54f2a4d3","uri(uint256)":"0e89341c","userHasToken(address,uint256)":"0ab464f0","whitelistOnly()":"4b4687b5"},"id":53}