{"abi":[{"type":"constructor","inputs":[{"name":"owner","type":"address","internalType":"address"},{"name":"baseURI","type":"string","internalType":"string"},{"name":"_name","type":"string","internalType":"string"},{"name":"_symbol","type":"string","internalType":"string"},{"name":"_initialSupply","type":"uint256","internalType":"uint256"},{"name":"_maxSupply","type":"uint256","internalType":"uint256"},{"name":"_transferable","type":"bool","internalType":"bool"},{"name":"_whitelistOnly","type":"bool","internalType":"bool"}],"stateMutability":"nonpayable"},{"type":"function","name":"balanceOf","inputs":[{"name":"account","type":"address","internalType":"address"},{"name":"id","type":"uint256","internalType":"uint256"}],"outputs":[{"name":"","type":"uint256","internalType":"uint256"}],"stateMutability":"view"},{"type":"function","name":"balanceOfBatch","inputs":[{"name":"accounts","type":"address[]","internalType":"address[]"},{"name":"ids","type":"uint256[]","internalType":"uint256[]"}],"outputs":[{"name":"","type":"uint256[]","internalType":"uint256[]"}],"stateMutability":"view"},{"type":"function","name":"burn","inputs":[{"name":"account","type":"address","internalType":"address"},{"name":"id","type":"uint256","internalType":"uint256"},{"name":"value","type":"uint256","internalType":"uint256"}],"outputs":[],"stateMutability":"nonpayable"},{"type":"function","name":"burnBatch","inputs":[{"name":"account","type":"address","internalType":"address"},{"name":"ids","type":"uint256[]","internalType":"uint256[]"},{"name":"values","type":"uint256[]","internalType":"uint256[]"}],"outputs":[],"stateMutability":"nonpayable"},{"type":"function","name":"count","inputs":[],"outputs":[],"stateMutability":"nonpayable"},{"type":"function","name":"counter","inputs":[],"outputs":[{"name":"","type":"uint256","internalType":"uint256"}],"stateMutability":"view"},{"type":"function","name":"currentSupply","inputs":[],"outputs":[{"name":"","type":"uint256","internalType":"uint256"}],"stateMutability":"view"},{"type":"function","name":"distribute","inputs":[{"name":"_distributions","type":"tuple[]","internalType":"struct FreeTicket.Distribution[]","components":[{"name":"recipient","type":"address","internalType":"address"},{"name":"amount","type":"uint256","internalType":"uint256"}]}],"outputs":[],"stateMutability":"nonpayable"},{"type":"function","name":"exists","inputs":[{"name":"id","type":"uint256","internalType":"uint256"}],"outputs":[{"name":"","type":"bool","internalType":"bool"}],"stateMutability":"view"},{"type":"function","name":"getTokensByUser","inputs":[{"name":"user","type":"address","internalType":"address"}],"outputs":[{"name":"","type":"uint256[]","internalType":"uint256[]"}],"stateMutability":"view"},{"type":"function","name":"initialSupply","inputs":[],"outputs":[{"name":"","type":"uint256","internalType":"uint256"}],"stateMutability":"view"},{"type":"function","name":"isApprovedForAll","inputs":[{"name":"account","type":"address","internalType":"address"},{"name":"operator","type":"address","internalType":"address"}],"outputs":[{"name":"","type":"bool","internalType":"bool"}],"stateMutability":"view"},{"type":"function","name":"isTrustedForwarder","inputs":[{"name":"forwarder","type":"address","internalType":"address"}],"outputs":[{"name":"","type":"bool","internalType":"bool"}],"stateMutability":"view"},{"type":"function","name":"isWhitelisted","inputs":[{"name":"","type":"address","internalType":"address"}],"outputs":[{"name":"","type":"bool","internalType":"bool"}],"stateMutability":"view"},{"type":"function","name":"maxSupply","inputs":[],"outputs":[{"name":"","type":"uint256","internalType":"uint256"}],"stateMutability":"view"},{"type":"function","name":"name","inputs":[],"outputs":[{"name":"","type":"string","internalType":"string"}],"stateMutability":"view"},{"type":"function","name":"nextTokenId","inputs":[],"outputs":[{"name":"","type":"uint256","internalType":"uint256"}],"stateMutability":"view"},{"type":"function","name":"owner","inputs":[],"outputs":[{"name":"","type":"address","internalType":"address"}],"stateMutability":"view"},{"type":"function","name":"renounceOwnership","inputs":[],"outputs":[],"stateMutability":"nonpayable"},{"type":"function","name":"safeBatchTransferFrom","inputs":[{"name":"from","type":"address","internalType":"address"},{"name":"to","type":"address","internalType":"address"},{"name":"ids","type":"uint256[]","internalType":"uint256[]"},{"name":"values","type":"uint256[]","internalType":"uint256[]"},{"name":"data","type":"bytes","internalType":"bytes"}],"outputs":[],"stateMutability":"nonpayable"},{"type":"function","name":"safeTransferFrom","inputs":[{"name":"from","type":"address","internalType":"address"},{"name":"to","type":"address","internalType":"address"},{"name":"id","type":"uint256","internalType":"uint256"},{"name":"value","type":"uint256","internalType":"uint256"},{"name":"data","type":"bytes","internalType":"bytes"}],"outputs":[],"stateMutability":"nonpayable"},{"type":"function","name":"setApprovalForAll","inputs":[{"name":"operator","type":"address","internalType":"address"},{"name":"approved","type":"bool","internalType":"bool"}],"outputs":[],"stateMutability":"nonpayable"},{"type":"function","name":"setTransferable","inputs":[{"name":"_transferable","type":"bool","internalType":"bool"}],"outputs":[],"stateMutability":"nonpayable"},{"type":"function","name":"setURI","inputs":[{"name":"newuri","type":"string","internalType":"string"}],"outputs":[],"stateMutability":"nonpayable"},{"type":"function","name":"supportsInterface","inputs":[{"name":"interfaceId","type":"bytes4","internalType":"bytes4"}],"outputs":[{"name":"","type":"bool","internalType":"bool"}],"stateMutability":"view"},{"type":"function","name":"symbol","inputs":[],"outputs":[{"name":"","type":"string","internalType":"string"}],"stateMutability":"view"},{"type":"function","name":"tokenURI","inputs":[{"name":"_tokenId","type":"uint256","internalType":"uint256"}],"outputs":[{"name":"","type":"string","internalType":"string"}],"stateMutability":"view"},{"type":"function","name":"totalSupply","inputs":[],"outputs":[{"name":"","type":"uint256","internalType":"uint256"}],"stateMutability":"view"},{"type":"function","name":"totalSupply","inputs":[{"name":"id","type":"uint256","internalType":"uint256"}],"outputs":[{"name":"","type":"uint256","internalType":"uint256"}],"stateMutability":"view"},{"type":"function","name":"transferOwnership","inputs":[{"name":"newOwner","type":"address","internalType":"address"}],"outputs":[],"stateMutability":"nonpayable"},{"type":"function","name":"transferable","inputs":[],"outputs":[{"name":"","type":"bool","internalType":"bool"}],"stateMutability":"view"},{"type":"function","name":"trustedForwarder","inputs":[],"outputs":[{"name":"","type":"address","internalType":"address"}],"stateMutability":"view"},{"type":"function","name":"updateSupply","inputs":[{"name":"_additionalSupply","type":"uint256","internalType":"uint256"}],"outputs":[],"stateMutability":"nonpayable"},{"type":"function","name":"updateWhitelist","inputs":[{"name":"_whitelistUpdates","type":"tuple[]","internalType":"struct FreeTicket.Whitelist[]","components":[{"name":"user","type":"address","internalType":"address"},{"name":"status","type":"bool","internalType":"bool"}]}],"outputs":[],"stateMutability":"nonpayable"},{"type":"function","name":"uri","inputs":[{"name":"","type":"uint256","internalType":"uint256"}],"outputs":[{"name":"","type":"string","internalType":"string"}],"stateMutability":"view"},{"type":"function","name":"userHasToken","inputs":[{"name":"user","type":"address","internalType":"address"},{"name":"tokenId","type":"uint256","internalType":"uint256"}],"outputs":[{"name":"","type":"bool","internalType":"bool"}],"stateMutability":"view"},{"type":"function","name":"whitelistOnly","inputs":[],"outputs":[{"name":"","type":"bool","internalType":"bool"}],"stateMutability":"view"},{"type":"event","name":"ApprovalForAll","inputs":[{"name":"account","type":"address","indexed":true,"internalType":"address"},{"name":"operator","type":"address","indexed":true,"internalType":"address"},{"name":"approved","type":"bool","indexed":false,"internalType":"bool"}],"anonymous":false},{"type":"event","name":"OwnershipTransferred","inputs":[{"name":"previousOwner","type":"address","indexed":true,"internalType":"address"},{"name":"newOwner","type":"address","indexed":true,"internalType":"address"}],"anonymous":false},{"type":"event","name":"SupplyUpdated","inputs":[{"name":"newSupply","type":"uint256","indexed":false,"internalType":"uint256"}],"anonymous":false},{"type":"event","name":"TransferBatch","inputs":[{"name":"operator","type":"address","indexed":true,"internalType":"address"},{"name":"from","type":"address","indexed":true,"internalType":"address"},{"name":"to","type":"address","indexed":true,"internalType":"address"},{"name":"ids","type":"uint256[]","indexed":false,"internalType":"uint256[]"},{"name":"values","type":"uint256[]","indexed":false,"internalType":"uint256[]"}],"anonymous":false},{"type":"event","name":"TransferSingle","inputs":[{"name":"operator","type":"address","indexed":true,"internalType":"address"},{"name":"from","type":"address","indexed":true,"internalType":"address"},{"name":"to","type":"address","indexed":true,"internalType":"address"},{"name":"id","type":"uint256","indexed":false,"internalType":"uint256"},{"name":"value","type":"uint256","indexed":false,"internalType":"uint256"}],"anonymous":false},{"type":"event","name":"URI","inputs":[{"name":"value","type":"string","indexed":false,"internalType":"string"},{"name":"id","type":"uint256","indexed":true,"internalType":"uint256"}],"anonymous":false},{"type":"error","name":"ERC1155InsufficientBalance","inputs":[{"name":"sender","type":"address","internalType":"address"},{"name":"balance","type":"uint256","internalType":"uint256"},{"name":"needed","type":"uint256","internalType":"uint256"},{"name":"tokenId","type":"uint256","internalType":"uint256"}]},{"type":"error","name":"ERC1155InvalidApprover","inputs":[{"name":"approver","type":"address","internalType":"address"}]},{"type":"error","name":"ERC1155InvalidArrayLength","inputs":[{"name":"idsLength","type":"uint256","internalType":"uint256"},{"name":"valuesLength","type":"uint256","internalType":"uint256"}]},{"type":"error","name":"ERC1155InvalidOperator","inputs":[{"name":"operator","type":"address","internalType":"address"}]},{"type":"error","name":"ERC1155InvalidReceiver","inputs":[{"name":"receiver","type":"address","internalType":"address"}]},{"type":"error","name":"ERC1155InvalidSender","inputs":[{"name":"sender","type":"address","internalType":"address"}]},{"type":"error","name":"ERC1155MissingApprovalForAll","inputs":[{"name":"operator","type":"address","internalType":"address"},{"name":"owner","type":"address","internalType":"address"}]},{"type":"error","name":"OwnableInvalidOwner","inputs":[{"name":"owner","type":"address","internalType":"address"}]},{"type":"error","name":"OwnableUnauthorizedAccount","inputs":[{"name":"account","type":"address","internalType":"address"}]}],"bytecode":{"object":"0x60a06040526001600c556000600f553480156200001b57600080fd5b5060405162002ee438038062002ee48339810160408190526200003e91620002b8565b73839320b787dbb268dcf0170302b16b25168b6ba78888620000608162000161565b506001600160a01b0381166200009157604051631e4fbdf760e01b8152600060048201526024015b60405180910390fd5b6200009c8162000173565b506001600160a01b031660805282841115620001055760405162461bcd60e51b815260206004820152602160248201527f496e697469616c20737570706c792065786365656473206d617820737570706c6044820152607960f81b606482015260840162000088565b600662000113878262000425565b50600762000122868262000425565b506008849055600992909255600a92909255600b805461ffff191692151561ff001916929092176101009115159190910217905550620004f192505050565b60026200016f828262000425565b5050565b600380546001600160a01b038381166001600160a01b0319831681179093556040519116919082907f8be0079c531659141344cd1fd0a4f28419497f9722a3daafe3b4186f6b6457e090600090a35050565b80516001600160a01b0381168114620001dd57600080fd5b919050565b634e487b7160e01b600052604160045260246000fd5b600082601f8301126200020a57600080fd5b81516001600160401b0380821115620002275762000227620001e2565b604051601f8301601f19908116603f01168101908282118183101715620002525762000252620001e2565b816040528381526020925086838588010111156200026f57600080fd5b600091505b8382101562000293578582018301518183018401529082019062000274565b600093810190920192909252949350505050565b80518015158114620001dd57600080fd5b600080600080600080600080610100898b031215620002d657600080fd5b620002e189620001c5565b60208a01519098506001600160401b0380821115620002ff57600080fd5b6200030d8c838d01620001f8565b985060408b01519150808211156200032457600080fd5b620003328c838d01620001f8565b975060608b01519150808211156200034957600080fd5b50620003588b828c01620001f8565b9550506080890151935060a089015192506200037760c08a01620002a7565b91506200038760e08a01620002a7565b90509295985092959890939650565b600181811c90821680620003ab57607f821691505b602082108103620003cc57634e487b7160e01b600052602260045260246000fd5b50919050565b601f8211156200042057600081815260208120601f850160051c81016020861015620003fb5750805b601f850160051c820191505b818110156200041c5782815560010162000407565b5050505b505050565b81516001600160401b03811115620004415762000441620001e2565b620004598162000452845462000396565b84620003d2565b602080601f831160018114620004915760008415620004785750858301515b600019600386901b1c1916600185901b1785556200041c565b600085815260208120601f198616915b82811015620004c257888601518255948401946001909101908401620004a1565b5085821015620004e15787850151600019600388901b60f8161c191681555b5050505050600190811b01905550565b6080516129c96200051b6000396000818161039d0152818161041801526112df01526129c96000f3fe608060405234801561001057600080fd5b50600436106102265760003560e01c80636b20c4541161013057806395d89b41116100b8578063d5abeb011161007c578063d5abeb01146104e2578063e985e9c5146104eb578063f242432a146104fe578063f2fde38b14610511578063f5298aca1461052457600080fd5b806395d89b41146104815780639cd2370714610489578063a22cb4651461049c578063bd85b039146104af578063c87b56dd146104cf57600080fd5b8063771282f6116100ff578063771282f61461040d5780637da0a8771461041657806380370075146104505780638da5cb5b1461046357806392ff0d311461047457600080fd5b80636b20c454146103d65780636bd08049146103e9578063715018a6146103fc57806375794a3c1461040457600080fd5b80632eb2c2d6116101b35780634e1273f4116101825780634e1273f4146103385780634f558e791461035857806354f2a4d31461037a578063572b6c051461038d57806361bc221a146103cd57600080fd5b80632eb2c2d6146102e7578063378dc3dc146102fa5780633af32abf146103035780634b4687b51461032657600080fd5b806306fdde03116101fa57806306fdde03146102915780630ab464f0146102a65780630e89341c146102b957806318160ddd146102cc5780631c378573146102d457600080fd5b8062fdd58e1461022b57806301ffc9a71461025157806302fe53051461027457806306661abd14610289575b600080fd5b61023e610239366004611ea9565b610537565b6040519081526020015b60405180910390f35b61026461025f366004611ee9565b61055f565b6040519015158152602001610248565b610287610282366004611fcb565b6105af565b005b6102876105c3565b6102996105da565b604051610248919061206b565b6102646102b4366004611ea9565b610668565b6102996102c736600461207e565b610691565b60055461023e565b6102876102e23660046120ba565b610725565b6102876102f5366004612201565b610907565b61023e60085481565b6102646103113660046122aa565b600e6020526000908152604090205460ff1681565b600b5461026490610100900460ff1681565b61034b6103463660046122c5565b610982565b60405161024891906123bf565b61026461036636600461207e565b600090815260046020526040902054151590565b6102876103883660046123e2565b610a56565b61026461039b3660046122aa565b7f00000000000000000000000000000000000000000000000000000000000000006001600160a01b0390811691161490565b61023e600f5481565b6102876103e436600461249b565b610ace565b6102876103f736600461207e565b610b4a565b610287610bf5565b61023e600c5481565b61023e600a5481565b7f00000000000000000000000000000000000000000000000000000000000000005b6040516001600160a01b039091168152602001610248565b61034b61045e3660046122aa565b610c09565b6003546001600160a01b0316610438565b600b546102649060ff1681565b610299610c2d565b61028761049736600461250e565b610c3a565b6102876104aa366004612529565b610c55565b61023e6104bd36600461207e565b60009081526004602052604090205490565b6102996104dd36600461207e565b610c67565b61023e60095481565b6102646104f936600461255c565b610ca2565b61028761050c366004612586565b610cd0565b61028761051f3660046122aa565b610d43565b6102876105323660046125ea565b610d7e565b6000818152602081815260408083206001600160a01b03861684529091529020545b92915050565b60006001600160e01b03198216636cdb3d1360e11b148061059057506001600160e01b031982166303a24d0760e21b145b8061055957506301ffc9a760e01b6001600160e01b0319831614610559565b6105b7610dc8565b6105c081610e26565b50565b600f80549060006105d383612633565b9190505550565b600680546105e79061264c565b80601f01602080910402602001604051908101604052809291908181526020018280546106139061264c565b80156106605780601f1061063557610100808354040283529160200191610660565b820191906000526020600020905b81548152906001019060200180831161064357829003601f168201915b505050505081565b6001600160a01b0382166000908152600d6020526040812061068a9083610e32565b9392505050565b6060600280546106a09061264c565b80601f01602080910402602001604051908101604052809291908181526020018280546106cc9061264c565b80156107195780601f106106ee57610100808354040283529160200191610719565b820191906000526020600020905b8154815290600101906020018083116106fc57829003601f168201915b50505050509050919050565b61072d610dc8565b6000805b82518110156107fc57600083828151811061074e5761074e612686565b60200260200101519050600b60019054906101000a900460ff16156107d75780516001600160a01b03166000908152600e602052604090205460ff166107d75760405162461bcd60e51b8152602060048201526019602482015278149958da5c1a595b9d081b9bdd081dda1a5d195b1a5cdd1959603a1b60448201526064015b60405180910390fd5b60208101516107e6908461269c565b92505080806107f490612633565b915050610731565b5080600a5410156108485760405162461bcd60e51b8152602060048201526016602482015275457863656564732063757272656e7420737570706c7960501b60448201526064016107ce565b60095481600a54610859919061269c565b111561089c5760405162461bcd60e51b815260206004820152601260248201527145786365656473206d617820737570706c7960701b60448201526064016107ce565b60005b82518110156108eb5760008382815181106108bc576108bc612686565b602002602001015190506108d881600001518260200151610e4a565b50806108e381612633565b91505061089f565b5080600a60008282546108fe91906126af565b90915550505050565b6000610911610eea565b9050806001600160a01b0316866001600160a01b03161415801561093c575061093a8682610ca2565b155b1561096d5760405163711bec9160e11b81526001600160a01b038083166004830152871660248201526044016107ce565b61097a8686868686610ef9565b505050505050565b606081518351146109b35781518351604051635b05999160e01b8152600481019290925260248201526044016107ce565b600083516001600160401b038111156109ce576109ce611f06565b6040519080825280602002602001820160405280156109f7578160200160208202803683370190505b50905060005b8451811015610a4e57602080820286010151610a2190602080840287010151610537565b828281518110610a3357610a33612686565b6020908102919091010152610a4781612633565b90506109fd565b509392505050565b610a5e610dc8565b60005b8151811015610aca576000828281518110610a7e57610a7e612686565b6020908102919091018101518082015190516001600160a01b03166000908152600e9092526040909120805460ff19169115159190911790555080610ac281612633565b915050610a61565b5050565b610ad6610eea565b6001600160a01b0316836001600160a01b031614158015610b005750610afe836104f9610eea565b155b15610b3a57610b0d610eea565b60405163711bec9160e11b81526001600160a01b03918216600482015290841660248201526044016107ce565b610b45838383610f60565b505050565b610b52610dc8565b60095481600a54610b63919061269c565b1115610ba65760405162461bcd60e51b815260206004820152601260248201527145786365656473206d617820737570706c7960701b60448201526064016107ce565b600081600a54610bb6919061269c565b600a8190556040518181529091507fea4bfee7f9fb38136c61cc04b6e56efc93eaf1beef326dbc47495b358385914c9060200160405180910390a15050565b610bfd610dc8565b610c076000610fa6565b565b6001600160a01b0381166000908152600d6020526040902060609061055990610ff8565b600780546105e79061264c565b610c42610dc8565b600b805460ff1916911515919091179055565b610aca610c60610eea565b8383611005565b6060610c7282610691565b610c7b8361109b565b604051602001610c8c9291906126c2565b6040516020818303038152906040529050919050565b6001600160a01b03918216600090815260016020908152604080832093909416825291909152205460ff1690565b6000610cda610eea565b9050806001600160a01b0316866001600160a01b031614158015610d055750610d038682610ca2565b155b15610d365760405163711bec9160e11b81526001600160a01b038083166004830152871660248201526044016107ce565b61097a868686868661112d565b610d4b610dc8565b6001600160a01b038116610d7557604051631e4fbdf760e01b8152600060048201526024016107ce565b6105c081610fa6565b610d86610eea565b6001600160a01b0316836001600160a01b031614158015610db05750610dae836104f9610eea565b155b15610dbd57610b0d610eea565b610b458383836111bb565b610dd0610eea565b6001600160a01b0316610deb6003546001600160a01b031690565b6001600160a01b031614610c0757610e01610eea565b60405163118cdaa760e01b81526001600160a01b0390911660048201526024016107ce565b6002610aca8282612737565b6000818152600183016020526040812054151561068a565b60005b81811015610b4557610e7383600c54600160405180602001604052806000815250611223565b610ec26040518060400160405280600f81526020016e135a5b9d1959081d1bdad95b881251608a1b815250600c5460405180604001604052806002815260200161746f60f01b81525086611280565b600c8054906000610ed283612633565b91905055508080610ee290612633565b915050610e4d565b6000610ef46112cf565b905090565b6001600160a01b038416610f2357604051632bfa23e760e11b8152600060048201526024016107ce565b6001600160a01b038516610f4c57604051626a0d4560e21b8152600060048201526024016107ce565b610f598585858585611344565b5050505050565b6001600160a01b038316610f8957604051626a0d4560e21b8152600060048201526024016107ce565b610b45836000848460405180602001604052806000815250611344565b600380546001600160a01b038381166001600160a01b0319831681179093556040519116919082907f8be0079c531659141344cd1fd0a4f28419497f9722a3daafe3b4186f6b6457e090600090a35050565b6060600061068a836113a1565b6001600160a01b03821661102e5760405162ced3e160e81b8152600060048201526024016107ce565b6001600160a01b03838116600081815260016020908152604080832094871680845294825291829020805460ff191686151590811790915591519182527f17307eab39ab6107e8899845ad3d59bd9653f200f220920489ca2b5937696c31910160405180910390a3505050565b606060006110a8836113fc565b60010190506000816001600160401b038111156110c7576110c7611f06565b6040519080825280601f01601f1916602001820160405280156110f1576020820181803683370190505b5090508181016020015b600019016f181899199a1a9b1b9c1cb0b131b232b360811b600a86061a8153600a85049450846110fb57509392505050565b6001600160a01b03841661115757604051632bfa23e760e11b8152600060048201526024016107ce565b6001600160a01b03851661118057604051626a0d4560e21b8152600060048201526024016107ce565b604080516001808252602082018690528183019081526060820185905260808201909252906111b28787848487611344565b50505050505050565b6001600160a01b0383166111e457604051626a0d4560e21b8152600060048201526024016107ce565b604080516001808252602082018590528183019081526060820184905260a08201909252600060808201818152919291610f5991879185908590611344565b6001600160a01b03841661124d57604051632bfa23e760e11b8152600060048201526024016107ce565b6040805160018082526020820186905281830190815260608201859052608082019092529061097a600087848487611344565b6112c98484848460405160240161129a94939291906127f6565b60408051601f198184030181529190526020810180516001600160e01b0316631f118ca960e21b1790526114d4565b50505050565b6000366014336001600160a01b037f00000000000000000000000000000000000000000000000000000000000000001614801561130c5750808210155b1561133c5760003661131e83856126af565b61132992829061283b565b61133291612865565b60601c9250505090565b339250505090565b611350858585856114dd565b6001600160a01b03841615610f59576000611369610eea565b90508351600103611393576020848101519084015161138c838989858589611783565b505061097a565b61097a8187878787876118a7565b60608160000180548060200260200160405190810160405280929190818152602001828054801561071957602002820191906000526020600020905b8154815260200190600101908083116113dd5750505050509050919050565b60008072184f03e93ff9f4daa797ed6e38ed64bf6a1f0160401b831061143b5772184f03e93ff9f4daa797ed6e38ed64bf6a1f0160401b830492506040015b6d04ee2d6d415b85acef81000000008310611467576d04ee2d6d415b85acef8100000000830492506020015b662386f26fc10000831061148557662386f26fc10000830492506010015b6305f5e100831061149d576305f5e100830492506008015b61271083106114b157612710830492506004015b606483106114c3576064830492506002015b600a83106105595760010192915050565b6105c081611990565b6114e9848484846119b1565b60005b825181101561162d57600082828151811061150957611509612686565b6020026020010151111561161b576001600160a01b038516156115ba5781818151811061153857611538612686565b60200260200101516115638685848151811061155657611556612686565b6020026020010151610537565b036115ba576115b883828151811061157d5761157d612686565b6020026020010151600d6000886001600160a01b03166001600160a01b03168152602001908152602001600020611b0b90919063ffffffff16565b505b6001600160a01b0384161561161b576116198382815181106115de576115de612686565b6020026020010151600d6000876001600160a01b03166001600160a01b03168152602001908152602001600020611b1790919063ffffffff16565b505b8061162581612633565b9150506114ec565b506001600160a01b038416158061164b57506001600160a01b038316155b6112c957600b5460ff166116a15760405162461bcd60e51b815260206004820152601960248201527f5472616e736665727320617265206e6f7420616c6c6f7765640000000000000060448201526064016107ce565b600b54610100900460ff16156112c957600e60006116bd610eea565b6001600160a01b0316815260208101919091526040016000205460ff1661171f5760405162461bcd60e51b815260206004820152601660248201527514d95b99195c881b9bdd081dda1a5d195b1a5cdd195960521b60448201526064016107ce565b6001600160a01b0383166000908152600e602052604090205460ff166112c95760405162461bcd60e51b8152602060048201526019602482015278149958da5c1a595b9d081b9bdd081dda1a5d195b1a5cdd1959603a1b60448201526064016107ce565b6001600160a01b0384163b1561097a5760405163f23a6e6160e01b81526001600160a01b0385169063f23a6e61906117c7908990899088908890889060040161289a565b6020604051808303816000875af1925050508015611802575060408051601f3d908101601f191682019092526117ff918101906128d4565b60015b61186b573d808015611830576040519150601f19603f3d011682016040523d82523d6000602084013e611835565b606091505b50805160000361186357604051632bfa23e760e11b81526001600160a01b03861660048201526024016107ce565b805181602001fd5b6001600160e01b0319811663f23a6e6160e01b146111b257604051632bfa23e760e11b81526001600160a01b03861660048201526024016107ce565b6001600160a01b0384163b1561097a5760405163bc197c8160e01b81526001600160a01b0385169063bc197c81906118eb90899089908890889088906004016128f1565b6020604051808303816000875af1925050508015611926575060408051601f3d908101601f19168201909252611923918101906128d4565b60015b611954573d808015611830576040519150601f19603f3d011682016040523d82523d6000602084013e611835565b6001600160e01b0319811663bc197c8160e01b146111b257604051632bfa23e760e11b81526001600160a01b03861660048201526024016107ce565b60006a636f6e736f6c652e6c6f679050600080835160208501845afa505050565b6119bd84848484611b23565b6001600160a01b038416611a70576000805b8351811015611a565760008382815181106119ec576119ec612686565b602002602001015190508060046000878581518110611a0d57611a0d612686565b602002602001015181526020019081526020016000206000828254611a32919061269c565b90915550611a429050818461269c565b92505080611a4f90612633565b90506119cf565b508060056000828254611a69919061269c565b9091555050505b6001600160a01b0383166112c9576000805b8351811015611afa576000838281518110611a9f57611a9f612686565b602002602001015190508060046000878581518110611ac057611ac0612686565b602002602001015181526020019081526020016000206000828254039250508190555080830192505080611af390612633565b9050611a82565b506005805491909103905550505050565b600061068a8383611d4b565b600061068a8383611e3e565b8051825114611b525781518151604051635b05999160e01b8152600481019290925260248201526044016107ce565b6000611b5c610eea565b905060005b8351811015611c6c576020818102858101820151908501909101516001600160a01b03881615611c14576000828152602081815260408083206001600160a01b038c16845290915290205481811015611bed576040516303dee4c560e01b81526001600160a01b038a1660048201526024810182905260448101839052606481018490526084016107ce565b6000838152602081815260408083206001600160a01b038d16845290915290209082900390555b6001600160a01b03871615611c59576000828152602081815260408083206001600160a01b038b16845290915281208054839290611c5390849061269c565b90915550505b505080611c6590612633565b9050611b61565b508251600103611ced5760208301516000906020840151909150856001600160a01b0316876001600160a01b0316846001600160a01b03167fc3d58168c5ae7397731d063d5bbf3d657854427343f4c083240f7aacaa2d0f628585604051611cde929190918252602082015260400190565b60405180910390a45050610f59565b836001600160a01b0316856001600160a01b0316826001600160a01b03167f4a39dc06d4c0dbc64b70af90fd698a233a518aa5d07e595d983b8c0526c8f7fb8686604051611d3c92919061294f565b60405180910390a45050505050565b60008181526001830160205260408120548015611e34576000611d6f6001836126af565b8554909150600090611d83906001906126af565b9050808214611de8576000866000018281548110611da357611da3612686565b9060005260206000200154905080876000018481548110611dc657611dc6612686565b6000918252602080832090910192909255918252600188019052604090208390555b8554869080611df957611df961297d565b600190038181906000526020600020016000905590558560010160008681526020019081526020016000206000905560019350505050610559565b6000915050610559565b6000818152600183016020526040812054611e8557508154600181810184556000848152602080822090930184905584548482528286019093526040902091909155610559565b506000610559565b80356001600160a01b0381168114611ea457600080fd5b919050565b60008060408385031215611ebc57600080fd5b611ec583611e8d565b946020939093013593505050565b6001600160e01b0319811681146105c057600080fd5b600060208284031215611efb57600080fd5b813561068a81611ed3565b634e487b7160e01b600052604160045260246000fd5b604080519081016001600160401b0381118282101715611f3e57611f3e611f06565b60405290565b604051601f8201601f191681016001600160401b0381118282101715611f6c57611f6c611f06565b604052919050565b60006001600160401b03831115611f8d57611f8d611f06565b611fa0601f8401601f1916602001611f44565b9050828152838383011115611fb457600080fd5b828260208301376000602084830101529392505050565b600060208284031215611fdd57600080fd5b81356001600160401b03811115611ff357600080fd5b8201601f8101841361200457600080fd5b61201384823560208401611f74565b949350505050565b60005b8381101561203657818101518382015260200161201e565b50506000910152565b6000815180845261205781602086016020860161201b565b601f01601f19169290920160200192915050565b60208152600061068a602083018461203f565b60006020828403121561209057600080fd5b5035919050565b60006001600160401b038211156120b0576120b0611f06565b5060051b60200190565b600060208083850312156120cd57600080fd5b82356001600160401b038111156120e357600080fd5b8301601f810185136120f457600080fd5b803561210761210282612097565b611f44565b81815260069190911b8201830190838101908783111561212657600080fd5b928401925b8284101561217057604084890312156121445760008081fd5b61214c611f1c565b61215585611e8d565b8152848601358682015282526040909301929084019061212b565b979650505050505050565b600082601f83011261218c57600080fd5b8135602061219c61210283612097565b82815260059290921b840181019181810190868411156121bb57600080fd5b8286015b848110156121d657803583529183019183016121bf565b509695505050505050565b600082601f8301126121f257600080fd5b61068a83833560208501611f74565b600080600080600060a0868803121561221957600080fd5b61222286611e8d565b945061223060208701611e8d565b935060408601356001600160401b038082111561224c57600080fd5b61225889838a0161217b565b9450606088013591508082111561226e57600080fd5b61227a89838a0161217b565b9350608088013591508082111561229057600080fd5b5061229d888289016121e1565b9150509295509295909350565b6000602082840312156122bc57600080fd5b61068a82611e8d565b600080604083850312156122d857600080fd5b82356001600160401b03808211156122ef57600080fd5b818501915085601f83011261230357600080fd5b8135602061231361210283612097565b82815260059290921b8401810191818101908984111561233257600080fd5b948201945b838610156123575761234886611e8d565b82529482019490820190612337565b9650508601359250508082111561236d57600080fd5b5061237a8582860161217b565b9150509250929050565b600081518084526020808501945080840160005b838110156123b457815187529582019590820190600101612398565b509495945050505050565b60208152600061068a6020830184612384565b80358015158114611ea457600080fd5b600060208083850312156123f557600080fd5b82356001600160401b0381111561240b57600080fd5b8301601f8101851361241c57600080fd5b803561242a61210282612097565b81815260069190911b8201830190838101908783111561244957600080fd5b928401925b8284101561217057604084890312156124675760008081fd5b61246f611f1c565b61247885611e8d565b81526124858686016123d2565b818701528252604093909301929084019061244e565b6000806000606084860312156124b057600080fd5b6124b984611e8d565b925060208401356001600160401b03808211156124d557600080fd5b6124e18783880161217b565b935060408601359150808211156124f757600080fd5b506125048682870161217b565b9150509250925092565b60006020828403121561252057600080fd5b61068a826123d2565b6000806040838503121561253c57600080fd5b61254583611e8d565b9150612553602084016123d2565b90509250929050565b6000806040838503121561256f57600080fd5b61257883611e8d565b915061255360208401611e8d565b600080600080600060a0868803121561259e57600080fd5b6125a786611e8d565b94506125b560208701611e8d565b9350604086013592506060860135915060808601356001600160401b038111156125de57600080fd5b61229d888289016121e1565b6000806000606084860312156125ff57600080fd5b61260884611e8d565b95602085013595506040909401359392505050565b634e487b7160e01b600052601160045260246000fd5b6000600182016126455761264561261d565b5060010190565b600181811c9082168061266057607f821691505b60208210810361268057634e487b7160e01b600052602260045260246000fd5b50919050565b634e487b7160e01b600052603260045260246000fd5b808201808211156105595761055961261d565b818103818111156105595761055961261d565b600083516126d481846020880161201b565b8351908301906126e881836020880161201b565b01949350505050565b601f821115610b4557600081815260208120601f850160051c810160208610156127185750805b601f850160051c820191505b8181101561097a57828155600101612724565b81516001600160401b0381111561275057612750611f06565b6127648161275e845461264c565b846126f1565b602080601f83116001811461279957600084156127815750858301515b600019600386901b1c1916600185901b17855561097a565b600085815260208120601f198616915b828110156127c8578886015182559484019460019091019084016127a9565b50858210156127e65787850151600019600388901b60f8161c191681555b5050505050600190811b01905550565b608081526000612809608083018761203f565b8560208401528281036040840152612821818661203f565b91505060018060a01b038316606083015295945050505050565b6000808585111561284b57600080fd5b8386111561285857600080fd5b5050820193919092039150565b6bffffffffffffffffffffffff1981358181169160148510156128925780818660140360031b1b83161692505b505092915050565b6001600160a01b03868116825285166020820152604081018490526060810183905260a0608082018190526000906121709083018461203f565b6000602082840312156128e657600080fd5b815161068a81611ed3565b6001600160a01b0386811682528516602082015260a06040820181905260009061291d90830186612384565b828103606084015261292f8186612384565b90508281036080840152612943818561203f565b98975050505050505050565b6040815260006129626040830185612384565b82810360208401526129748185612384565b95945050505050565b634e487b7160e01b600052603160045260246000fdfea2646970667358221220401b5244874380c96c0cb9d067748b10c89fafffb000be5d8fb97734df18932064736f6c63430008140033","linkReferences":{}},"methodIdentifiers":{"balanceOf(address,uint256)":"00fdd58e","balanceOfBatch(address[],uint256[])":"4e1273f4","burn(address,uint256,uint256)":"f5298aca","burnBatch(address,uint256[],uint256[])":"6b20c454","count()":"06661abd","counter()":"61bc221a","currentSupply()":"771282f6","distribute((address,uint256)[])":"1c378573","exists(uint256)":"4f558e79","getTokensByUser(address)":"80370075","initialSupply()":"378dc3dc","isApprovedForAll(address,address)":"e985e9c5","isTrustedForwarder(address)":"572b6c05","isWhitelisted(address)":"3af32abf","maxSupply()":"d5abeb01","name()":"06fdde03","nextTokenId()":"75794a3c","owner()":"8da5cb5b","renounceOwnership()":"715018a6","safeBatchTransferFrom(address,address,uint256[],uint256[],bytes)":"2eb2c2d6","safeTransferFrom(address,address,uint256,uint256,bytes)":"f242432a","setApprovalForAll(address,bool)":"a22cb465","setTransferable(bool)":"9cd23707","setURI(string)":"02fe5305","supportsInterface(bytes4)":"01ffc9a7","symbol()":"95d89b41","tokenURI(uint256)":"c87b56dd","totalSupply()":"18160ddd","totalSupply(uint256)":"bd85b039","transferOwnership(address)":"f2fde38b","transferable()":"92ff0d31","trustedForwarder()":"7da0a877","updateSupply(uint256)":"6bd08049","updateWhitelist((address,bool)[])":"54f2a4d3","uri(uint256)":"0e89341c","userHasToken(address,uint256)":"0ab464f0","whitelistOnly()":"4b4687b5"},"id":53}