{"abi":[{"type":"constructor","inputs":[{"name":"owner","type":"address","internalType":"address"},{"name":"_ownerSmartWallet","type":"address","internalType":"address"},{"name":"baseURI","type":"string","internalType":"string"},{"name":"_name","type":"string","internalType":"string"},{"name":"_symbol","type":"string","internalType":"string"},{"name":"_initialSupply","type":"uint256","internalType":"uint256"},{"name":"_maxSupply","type":"uint256","internalType":"uint256"},{"name":"_transferable","type":"bool","internalType":"bool"},{"name":"_whitelistOnly","type":"bool","internalType":"bool"}],"stateMutability":"nonpayable"},{"type":"function","name":"balanceOf","inputs":[{"name":"account","type":"address","internalType":"address"},{"name":"id","type":"uint256","internalType":"uint256"}],"outputs":[{"name":"","type":"uint256","internalType":"uint256"}],"stateMutability":"view"},{"type":"function","name":"balanceOfBatch","inputs":[{"name":"accounts","type":"address[]","internalType":"address[]"},{"name":"ids","type":"uint256[]","internalType":"uint256[]"}],"outputs":[{"name":"","type":"uint256[]","internalType":"uint256[]"}],"stateMutability":"view"},{"type":"function","name":"burn","inputs":[{"name":"account","type":"address","internalType":"address"},{"name":"id","type":"uint256","internalType":"uint256"},{"name":"value","type":"uint256","internalType":"uint256"}],"outputs":[],"stateMutability":"nonpayable"},{"type":"function","name":"burnBatch","inputs":[{"name":"account","type":"address","internalType":"address"},{"name":"ids","type":"uint256[]","internalType":"uint256[]"},{"name":"values","type":"uint256[]","internalType":"uint256[]"}],"outputs":[],"stateMutability":"nonpayable"},{"type":"function","name":"count","inputs":[],"outputs":[],"stateMutability":"nonpayable"},{"type":"function","name":"counter","inputs":[],"outputs":[{"name":"","type":"uint256","internalType":"uint256"}],"stateMutability":"view"},{"type":"function","name":"currentSupply","inputs":[],"outputs":[{"name":"","type":"uint256","internalType":"uint256"}],"stateMutability":"view"},{"type":"function","name":"distribute","inputs":[{"name":"_distributions","type":"tuple[]","internalType":"struct FreeTicket.Distribution[]","components":[{"name":"recipient","type":"address","internalType":"address"},{"name":"amount","type":"uint256","internalType":"uint256"}]}],"outputs":[],"stateMutability":"nonpayable"},{"type":"function","name":"exists","inputs":[{"name":"id","type":"uint256","internalType":"uint256"}],"outputs":[{"name":"","type":"bool","internalType":"bool"}],"stateMutability":"view"},{"type":"function","name":"getTicketHolders","inputs":[{"name":"start","type":"uint256","internalType":"uint256"},{"name":"pageSize","type":"uint256","internalType":"uint256"}],"outputs":[{"name":"","type":"address[]","internalType":"address[]"}],"stateMutability":"view"},{"type":"function","name":"getTokensByUser","inputs":[{"name":"user","type":"address","internalType":"address"}],"outputs":[{"name":"","type":"uint256[]","internalType":"uint256[]"}],"stateMutability":"view"},{"type":"function","name":"initialSupply","inputs":[],"outputs":[{"name":"","type":"uint256","internalType":"uint256"}],"stateMutability":"view"},{"type":"function","name":"isApprovedForAll","inputs":[{"name":"account","type":"address","internalType":"address"},{"name":"operator","type":"address","internalType":"address"}],"outputs":[{"name":"","type":"bool","internalType":"bool"}],"stateMutability":"view"},{"type":"function","name":"isWhitelisted","inputs":[{"name":"","type":"address","internalType":"address"}],"outputs":[{"name":"","type":"bool","internalType":"bool"}],"stateMutability":"view"},{"type":"function","name":"maxSupply","inputs":[],"outputs":[{"name":"","type":"uint256","internalType":"uint256"}],"stateMutability":"view"},{"type":"function","name":"name","inputs":[],"outputs":[{"name":"","type":"string","internalType":"string"}],"stateMutability":"view"},{"type":"function","name":"nextTokenId","inputs":[],"outputs":[{"name":"","type":"uint256","internalType":"uint256"}],"stateMutability":"view"},{"type":"function","name":"owner","inputs":[],"outputs":[{"name":"","type":"address","internalType":"address"}],"stateMutability":"view"},{"type":"function","name":"ownerSmartWallet","inputs":[],"outputs":[{"name":"","type":"address","internalType":"address"}],"stateMutability":"view"},{"type":"function","name":"renounceOwnership","inputs":[],"outputs":[],"stateMutability":"nonpayable"},{"type":"function","name":"safeBatchTransferFrom","inputs":[{"name":"from","type":"address","internalType":"address"},{"name":"to","type":"address","internalType":"address"},{"name":"ids","type":"uint256[]","internalType":"uint256[]"},{"name":"values","type":"uint256[]","internalType":"uint256[]"},{"name":"data","type":"bytes","internalType":"bytes"}],"outputs":[],"stateMutability":"nonpayable"},{"type":"function","name":"safeTransferFrom","inputs":[{"name":"from","type":"address","internalType":"address"},{"name":"to","type":"address","internalType":"address"},{"name":"id","type":"uint256","internalType":"uint256"},{"name":"value","type":"uint256","internalType":"uint256"},{"name":"data","type":"bytes","internalType":"bytes"}],"outputs":[],"stateMutability":"nonpayable"},{"type":"function","name":"setApprovalForAll","inputs":[{"name":"operator","type":"address","internalType":"address"},{"name":"approved","type":"bool","internalType":"bool"}],"outputs":[],"stateMutability":"nonpayable"},{"type":"function","name":"setSmartWallet","inputs":[{"name":"_smartWallet","type":"address","internalType":"address"}],"outputs":[],"stateMutability":"nonpayable"},{"type":"function","name":"setTransferable","inputs":[{"name":"_transferable","type":"bool","internalType":"bool"}],"outputs":[],"stateMutability":"nonpayable"},{"type":"function","name":"setURI","inputs":[{"name":"newuri","type":"string","internalType":"string"}],"outputs":[],"stateMutability":"nonpayable"},{"type":"function","name":"supportsInterface","inputs":[{"name":"interfaceId","type":"bytes4","internalType":"bytes4"}],"outputs":[{"name":"","type":"bool","internalType":"bool"}],"stateMutability":"view"},{"type":"function","name":"symbol","inputs":[],"outputs":[{"name":"","type":"string","internalType":"string"}],"stateMutability":"view"},{"type":"function","name":"tokenURI","inputs":[{"name":"_tokenId","type":"uint256","internalType":"uint256"}],"outputs":[{"name":"","type":"string","internalType":"string"}],"stateMutability":"view"},{"type":"function","name":"totalSupply","inputs":[],"outputs":[{"name":"","type":"uint256","internalType":"uint256"}],"stateMutability":"view"},{"type":"function","name":"totalSupply","inputs":[{"name":"id","type":"uint256","internalType":"uint256"}],"outputs":[{"name":"","type":"uint256","internalType":"uint256"}],"stateMutability":"view"},{"type":"function","name":"transferOwnership","inputs":[{"name":"newOwner","type":"address","internalType":"address"}],"outputs":[],"stateMutability":"nonpayable"},{"type":"function","name":"transferable","inputs":[],"outputs":[{"name":"","type":"bool","internalType":"bool"}],"stateMutability":"view"},{"type":"function","name":"updateSupply","inputs":[{"name":"_additionalSupply","type":"uint256","internalType":"uint256"}],"outputs":[],"stateMutability":"nonpayable"},{"type":"function","name":"updateWhitelist","inputs":[{"name":"_whitelistUpdates","type":"tuple[]","internalType":"struct FreeTicket.Whitelist[]","components":[{"name":"user","type":"address","internalType":"address"},{"name":"status","type":"bool","internalType":"bool"}]}],"outputs":[],"stateMutability":"nonpayable"},{"type":"function","name":"uri","inputs":[{"name":"","type":"uint256","internalType":"uint256"}],"outputs":[{"name":"","type":"string","internalType":"string"}],"stateMutability":"view"},{"type":"function","name":"userHasToken","inputs":[{"name":"user","type":"address","internalType":"address"},{"name":"tokenId","type":"uint256","internalType":"uint256"}],"outputs":[{"name":"","type":"bool","internalType":"bool"}],"stateMutability":"view"},{"type":"function","name":"whitelistOnly","inputs":[],"outputs":[{"name":"","type":"bool","internalType":"bool"}],"stateMutability":"view"},{"type":"event","name":"ApprovalForAll","inputs":[{"name":"account","type":"address","indexed":true,"internalType":"address"},{"name":"operator","type":"address","indexed":true,"internalType":"address"},{"name":"approved","type":"bool","indexed":false,"internalType":"bool"}],"anonymous":false},{"type":"event","name":"OwnershipTransferred","inputs":[{"name":"previousOwner","type":"address","indexed":true,"internalType":"address"},{"name":"newOwner","type":"address","indexed":true,"internalType":"address"}],"anonymous":false},{"type":"event","name":"SupplyUpdated","inputs":[{"name":"newSupply","type":"uint256","indexed":false,"internalType":"uint256"}],"anonymous":false},{"type":"event","name":"TransferBatch","inputs":[{"name":"operator","type":"address","indexed":true,"internalType":"address"},{"name":"from","type":"address","indexed":true,"internalType":"address"},{"name":"to","type":"address","indexed":true,"internalType":"address"},{"name":"ids","type":"uint256[]","indexed":false,"internalType":"uint256[]"},{"name":"values","type":"uint256[]","indexed":false,"internalType":"uint256[]"}],"anonymous":false},{"type":"event","name":"TransferSingle","inputs":[{"name":"operator","type":"address","indexed":true,"internalType":"address"},{"name":"from","type":"address","indexed":true,"internalType":"address"},{"name":"to","type":"address","indexed":true,"internalType":"address"},{"name":"id","type":"uint256","indexed":false,"internalType":"uint256"},{"name":"value","type":"uint256","indexed":false,"internalType":"uint256"}],"anonymous":false},{"type":"event","name":"URI","inputs":[{"name":"value","type":"string","indexed":false,"internalType":"string"},{"name":"id","type":"uint256","indexed":true,"internalType":"uint256"}],"anonymous":false},{"type":"error","name":"ERC1155InsufficientBalance","inputs":[{"name":"sender","type":"address","internalType":"address"},{"name":"balance","type":"uint256","internalType":"uint256"},{"name":"needed","type":"uint256","internalType":"uint256"},{"name":"tokenId","type":"uint256","internalType":"uint256"}]},{"type":"error","name":"ERC1155InvalidApprover","inputs":[{"name":"approver","type":"address","internalType":"address"}]},{"type":"error","name":"ERC1155InvalidArrayLength","inputs":[{"name":"idsLength","type":"uint256","internalType":"uint256"},{"name":"valuesLength","type":"uint256","internalType":"uint256"}]},{"type":"error","name":"ERC1155InvalidOperator","inputs":[{"name":"operator","type":"address","internalType":"address"}]},{"type":"error","name":"ERC1155InvalidReceiver","inputs":[{"name":"receiver","type":"address","internalType":"address"}]},{"type":"error","name":"ERC1155InvalidSender","inputs":[{"name":"sender","type":"address","internalType":"address"}]},{"type":"error","name":"ERC1155MissingApprovalForAll","inputs":[{"name":"operator","type":"address","internalType":"address"},{"name":"owner","type":"address","internalType":"address"}]},{"type":"error","name":"OwnableInvalidOwner","inputs":[{"name":"owner","type":"address","internalType":"address"}]},{"type":"error","name":"OwnableUnauthorizedAccount","inputs":[{"name":"account","type":"address","internalType":"address"}]}],"bytecode":{"object":"0x60806040526001600d5560016012553480156200001b57600080fd5b5060405162002f5e38038062002f5e8339810160408190526200003e91620002b3565b88876200004b816200015c565b506001600160a01b0381166200007c57604051631e4fbdf760e01b8152600060048201526024015b60405180910390fd5b62000087816200016e565b5082841115620000e45760405162461bcd60e51b815260206004820152602160248201527f496e697469616c20737570706c792065786365656473206d617820737570706c6044820152607960f81b606482015260840162000073565b600680546001600160a01b0319166001600160a01b038a1617905560076200010d878262000433565b5060086200011c868262000433565b506009849055600a92909255600b92909255600c805461ffff191692151561ff001916929092176101009115159190910217905550620004ff9350505050565b60026200016a828262000433565b5050565b600380546001600160a01b038381166001600160a01b0319831681179093556040519116919082907f8be0079c531659141344cd1fd0a4f28419497f9722a3daafe3b4186f6b6457e090600090a35050565b80516001600160a01b0381168114620001d857600080fd5b919050565b634e487b7160e01b600052604160045260246000fd5b600082601f8301126200020557600080fd5b81516001600160401b0380821115620002225762000222620001dd565b604051601f8301601f19908116603f011681019082821181831017156200024d576200024d620001dd565b816040528381526020925086838588010111156200026a57600080fd5b600091505b838210156200028e57858201830151818301840152908201906200026f565b600093810190920192909252949350505050565b80518015158114620001d857600080fd5b60008060008060008060008060006101208a8c031215620002d357600080fd5b620002de8a620001c0565b9850620002ee60208b01620001c0565b60408b01519098506001600160401b03808211156200030c57600080fd5b6200031a8d838e01620001f3565b985060608c01519150808211156200033157600080fd5b6200033f8d838e01620001f3565b975060808c01519150808211156200035657600080fd5b50620003658c828d01620001f3565b95505060a08a0151935060c08a015192506200038460e08b01620002a2565b9150620003956101008b01620002a2565b90509295985092959850929598565b600181811c90821680620003b957607f821691505b602082108103620003da57634e487b7160e01b600052602260045260246000fd5b50919050565b601f8211156200042e57600081815260208120601f850160051c81016020861015620004095750805b601f850160051c820191505b818110156200042a5782815560010162000415565b5050505b505050565b81516001600160401b038111156200044f576200044f620001dd565b6200046781620004608454620003a4565b84620003e0565b602080601f8311600181146200049f5760008415620004865750858301515b600019600386901b1c1916600185901b1785556200042a565b600085815260208120601f198616915b82811015620004d057888601518255948401946001909101908401620004af565b5085821015620004ef5787850151600019600388901b60f8161c191681555b5050505050600190811b01905550565b612a4f806200050f6000396000f3fe608060405234801561001057600080fd5b50600436106102315760003560e01c80636b20c454116101305780639cd23707116100b8578063d5abeb011161007c578063d5abeb01146104cd578063e985e9c5146104d6578063f242432a146104e9578063f2fde38b146104fc578063f5298aca1461050f57600080fd5b80639cd2370714610461578063a22cb46514610474578063bbedb38e14610487578063bd85b0391461049a578063c87b56dd146104ba57600080fd5b8063771282f6116100ff578063771282f61461040b57806380370075146104145780638da5cb5b1461042757806392ff0d311461044c57806395d89b411461045957600080fd5b80636b20c454146103d45780636bd08049146103e7578063715018a6146103fa57806375794a3c1461040257600080fd5b806320ced105116101be5780634b4687b5116101825780634b4687b5146103645780634e1273f4146103765780634f558e791461039657806354f2a4d3146103b857806361bc221a146103cb57600080fd5b806320ced105146102f25780632687f0f0146103125780632eb2c2d614610325578063378dc3dc146103385780633af32abf1461034157600080fd5b806306fdde031161020557806306fdde031461029c5780630ab464f0146102b15780630e89341c146102c457806318160ddd146102d75780631c378573146102df57600080fd5b8062fdd58e1461023657806301ffc9a71461025c57806302fe53051461027f57806306661abd14610294575b600080fd5b610249610244366004611f1f565b610522565b6040519081526020015b60405180910390f35b61026f61026a366004611f5f565b61054a565b6040519015158152602001610253565b61029261028d366004612041565b61059a565b005b6102926105ae565b6102a46105c5565b60405161025391906120e1565b61026f6102bf366004611f1f565b610653565b6102a46102d23660046120f4565b61067c565b600554610249565b6102926102ed366004612130565b610710565b6103056103003660046121f1565b6108f2565b6040516102539190612213565b610292610320366004612260565b6109ce565b610292610333366004612301565b6109f8565b61024960095481565b61026f61034f366004612260565b60116020526000908152604090205460ff1681565b600c5461026f90610100900460ff1681565b6103896103843660046123aa565b610a5f565b60405161025391906124a4565b61026f6103a43660046120f4565b600090815260046020526040902054151590565b6102926103c63660046124c7565b610b33565b61024960125481565b6102926103e2366004612580565b610bab565b6102926103f53660046120f4565b610c0f565b610292610cba565b610249600d5481565b610249600b5481565b610389610422366004612260565b610cce565b6003546001600160a01b03165b6040516001600160a01b039091168152602001610253565b600c5461026f9060ff1681565b6102a4610cf2565b61029261046f3660046125f3565b610cff565b61029261048236600461260e565b610d1a565b600654610434906001600160a01b031681565b6102496104a83660046120f4565b60009081526004602052604090205490565b6102a46104c83660046120f4565b610d25565b610249600a5481565b61026f6104e4366004612641565b610d60565b6102926104f736600461266b565b610d8e565b61029261050a366004612260565b610ded565b61029261051d3660046126cf565b610e28565b6000818152602081815260408083206001600160a01b03861684529091529020545b92915050565b60006001600160e01b03198216636cdb3d1360e11b148061057b57506001600160e01b031982166303a24d0760e21b145b8061054457506301ffc9a760e01b6001600160e01b0319831614610544565b6105a2610e5e565b6105ab81610eb9565b50565b601280549060006105be83612718565b9190505550565b600780546105d290612731565b80601f01602080910402602001604051908101604052809291908181526020018280546105fe90612731565b801561064b5780601f106106205761010080835404028352916020019161064b565b820191906000526020600020905b81548152906001019060200180831161062e57829003601f168201915b505050505081565b6001600160a01b0382166000908152600e602052604081206106759083610ec5565b9392505050565b60606002805461068b90612731565b80601f01602080910402602001604051908101604052809291908181526020018280546106b790612731565b80156107045780601f106106d957610100808354040283529160200191610704565b820191906000526020600020905b8154815290600101906020018083116106e757829003601f168201915b50505050509050919050565b610718610e5e565b6000805b82518110156107e75760008382815181106107395761073961276b565b60200260200101519050600c60019054906101000a900460ff16156107c25780516001600160a01b031660009081526011602052604090205460ff166107c25760405162461bcd60e51b8152602060048201526019602482015278149958da5c1a595b9d081b9bdd081dda1a5d195b1a5cdd1959603a1b60448201526064015b60405180910390fd5b60208101516107d19084612781565b92505080806107df90612718565b91505061071c565b5080600b5410156108335760405162461bcd60e51b8152602060048201526016602482015275457863656564732063757272656e7420737570706c7960501b60448201526064016107b9565b600a5481600b546108449190612781565b11156108875760405162461bcd60e51b815260206004820152601260248201527145786365656473206d617820737570706c7960701b60448201526064016107b9565b60005b82518110156108d65760008382815181106108a7576108a761276b565b602002602001015190506108c381600001518260200151610edd565b50806108ce81612718565b91505061088a565b5080600b60008282546108e99190612794565b90915550505050565b60606000610900600f610f7d565b9050600061090e8486612781565b90508181111561091b5750805b60006109278683612794565b6001600160401b0381111561093e5761093e611f7c565b604051908082528060200260200182016040528015610967578160200160208202803683370190505b509050855b828110156109c45761097f600f82610f87565b8261098a8984612794565b8151811061099a5761099a61276b565b6001600160a01b0390921660209283029190910190910152806109bc81612718565b91505061096c565b5095945050505050565b6109d6610e5e565b600680546001600160a01b0319166001600160a01b0392909216919091179055565b336001600160a01b0386168114801590610a195750610a178682610d60565b155b15610a4a5760405163711bec9160e11b81526001600160a01b038083166004830152871660248201526044016107b9565b610a578686868686610f93565b505050505050565b60608151835114610a905781518351604051635b05999160e01b8152600481019290925260248201526044016107b9565b600083516001600160401b03811115610aab57610aab611f7c565b604051908082528060200260200182016040528015610ad4578160200160208202803683370190505b50905060005b8451811015610b2b57602080820286010151610afe90602080840287010151610522565b828281518110610b1057610b1061276b565b6020908102919091010152610b2481612718565b9050610ada565b509392505050565b610b3b610e5e565b60005b8151811015610ba7576000828281518110610b5b57610b5b61276b565b6020908102919091018101518082015190516001600160a01b0316600090815260119092526040909120805460ff19169115159190911790555080610b9f81612718565b915050610b3e565b5050565b6001600160a01b0383163314801590610bcb5750610bc98333610d60565b155b15610bff57335b60405163711bec9160e11b81526001600160a01b03918216600482015290841660248201526044016107b9565b610c0a838383610ffa565b505050565b610c17610e5e565b600a5481600b54610c289190612781565b1115610c6b5760405162461bcd60e51b815260206004820152601260248201527145786365656473206d617820737570706c7960701b60448201526064016107b9565b600081600b54610c7b9190612781565b600b8190556040518181529091507fea4bfee7f9fb38136c61cc04b6e56efc93eaf1beef326dbc47495b358385914c9060200160405180910390a15050565b610cc2610e5e565b610ccc6000611040565b565b6001600160a01b0381166000908152600e6020526040902060609061054490611092565b600880546105d290612731565b610d07610e5e565b600c805460ff1916911515919091179055565b610ba733838361109f565b6060610d308261067c565b610d3983611135565b604051602001610d4a9291906127a7565b6040516020818303038152906040529050919050565b6001600160a01b03918216600090815260016020908152604080832093909416825291909152205460ff1690565b336001600160a01b0386168114801590610daf5750610dad8682610d60565b155b15610de05760405163711bec9160e11b81526001600160a01b038083166004830152871660248201526044016107b9565b610a5786868686866111c7565b610df5610e5e565b6001600160a01b038116610e1f57604051631e4fbdf760e01b8152600060048201526024016107b9565b6105ab81611040565b6001600160a01b0383163314801590610e485750610e468333610d60565b155b15610e535733610bd2565b610c0a838383611255565b6003546001600160a01b0316331480610e8157506006546001600160a01b031633145b610ccc5760405162461bcd60e51b81526020600482015260096024820152682737ba1037bbb732b960b91b60448201526064016107b9565b6002610ba7828261281c565b60008181526001830160205260408120541515610675565b60005b81811015610c0a57610f0683600d546001604051806020016040528060008152506112bd565b610f556040518060400160405280600f81526020016e135a5b9d1959081d1bdad95b881251608a1b815250600d5460405180604001604052806002815260200161746f60f01b8152508661131a565b600d8054906000610f6583612718565b91905055508080610f7590612718565b915050610ee0565b6000610544825490565b60006106758383611369565b6001600160a01b038416610fbd57604051632bfa23e760e11b8152600060048201526024016107b9565b6001600160a01b038516610fe657604051626a0d4560e21b8152600060048201526024016107b9565b610ff38585858585611393565b5050505050565b6001600160a01b03831661102357604051626a0d4560e21b8152600060048201526024016107b9565b610c0a836000848460405180602001604052806000815250611393565b600380546001600160a01b038381166001600160a01b0319831681179093556040519116919082907f8be0079c531659141344cd1fd0a4f28419497f9722a3daafe3b4186f6b6457e090600090a35050565b60606000610675836113e6565b6001600160a01b0382166110c85760405162ced3e160e81b8152600060048201526024016107b9565b6001600160a01b03838116600081815260016020908152604080832094871680845294825291829020805460ff191686151590811790915591519182527f17307eab39ab6107e8899845ad3d59bd9653f200f220920489ca2b5937696c31910160405180910390a3505050565b6060600061114283611441565b60010190506000816001600160401b0381111561116157611161611f7c565b6040519080825280601f01601f19166020018201604052801561118b576020820181803683370190505b5090508181016020015b600019016f181899199a1a9b1b9c1cb0b131b232b360811b600a86061a8153600a850494508461119557509392505050565b6001600160a01b0384166111f157604051632bfa23e760e11b8152600060048201526024016107b9565b6001600160a01b03851661121a57604051626a0d4560e21b8152600060048201526024016107b9565b6040805160018082526020820186905281830190815260608201859052608082019092529061124c8787848487611393565b50505050505050565b6001600160a01b03831661127e57604051626a0d4560e21b8152600060048201526024016107b9565b604080516001808252602082018590528183019081526060820184905260a08201909252600060808201818152919291610ff391879185908590611393565b6001600160a01b0384166112e757604051632bfa23e760e11b8152600060048201526024016107b9565b60408051600180825260208201869052818301908152606082018590526080820190925290610a57600087848487611393565b6113638484848460405160240161133494939291906128db565b60408051601f198184030181529190526020810180516001600160e01b0316631f118ca960e21b179052611519565b50505050565b60008260000182815481106113805761138061276b565b9060005260206000200154905092915050565b61139f85858585611522565b6001600160a01b03841615610ff357825133906001036113d857602084810151908401516113d18389898585896117da565b5050610a57565b610a578187878787876118fe565b60608160000180548060200260200160405190810160405280929190818152602001828054801561070457602002820191906000526020600020905b8154815260200190600101908083116114225750505050509050919050565b60008072184f03e93ff9f4daa797ed6e38ed64bf6a1f0160401b83106114805772184f03e93ff9f4daa797ed6e38ed64bf6a1f0160401b830492506040015b6d04ee2d6d415b85acef810000000083106114ac576d04ee2d6d415b85acef8100000000830492506020015b662386f26fc1000083106114ca57662386f26fc10000830492506010015b6305f5e10083106114e2576305f5e100830492506008015b61271083106114f657612710830492506004015b60648310611508576064830492506002015b600a83106105445760010192915050565b6105ab816119e7565b61152e84848484611a08565b60005b825181101561169a57600082828151811061154e5761154e61276b565b60200260200101511115611688576001600160a01b0385161561161b5761158e858483815181106115815761158161276b565b6020026020010151610522565b60000361161b576115e58382815181106115aa576115aa61276b565b6020026020010151600e6000886001600160a01b03166001600160a01b03168152602001908152602001600020611b6290919063ffffffff16565b506001600160a01b0385166000908152600e6020526040902061160790610f7d565b60000361161b57611619600f86611b6e565b505b6001600160a01b038416156116885761167a83828151811061163f5761163f61276b565b6020026020010151600e6000876001600160a01b03166001600160a01b03168152602001908152602001600020611b8390919063ffffffff16565b50611686600f85611b8f565b505b8061169281612718565b915050611531565b506001600160a01b03841615806116b857506001600160a01b038316155b61136357600c5460ff1661170e5760405162461bcd60e51b815260206004820152601960248201527f5472616e736665727320617265206e6f7420616c6c6f7765640000000000000060448201526064016107b9565b600c54610100900460ff1615611363573360009081526011602052604090205460ff166117765760405162461bcd60e51b815260206004820152601660248201527514d95b99195c881b9bdd081dda1a5d195b1a5cdd195960521b60448201526064016107b9565b6001600160a01b03831660009081526011602052604090205460ff166113635760405162461bcd60e51b8152602060048201526019602482015278149958da5c1a595b9d081b9bdd081dda1a5d195b1a5cdd1959603a1b60448201526064016107b9565b6001600160a01b0384163b15610a575760405163f23a6e6160e01b81526001600160a01b0385169063f23a6e619061181e9089908990889088908890600401612920565b6020604051808303816000875af1925050508015611859575060408051601f3d908101601f191682019092526118569181019061295a565b60015b6118c2573d808015611887576040519150601f19603f3d011682016040523d82523d6000602084013e61188c565b606091505b5080516000036118ba57604051632bfa23e760e11b81526001600160a01b03861660048201526024016107b9565b805181602001fd5b6001600160e01b0319811663f23a6e6160e01b1461124c57604051632bfa23e760e11b81526001600160a01b03861660048201526024016107b9565b6001600160a01b0384163b15610a575760405163bc197c8160e01b81526001600160a01b0385169063bc197c81906119429089908990889088908890600401612977565b6020604051808303816000875af192505050801561197d575060408051601f3d908101601f1916820190925261197a9181019061295a565b60015b6119ab573d808015611887576040519150601f19603f3d011682016040523d82523d6000602084013e61188c565b6001600160e01b0319811663bc197c8160e01b1461124c57604051632bfa23e760e11b81526001600160a01b03861660048201526024016107b9565b60006a636f6e736f6c652e6c6f679050600080835160208501845afa505050565b611a1484848484611ba4565b6001600160a01b038416611ac7576000805b8351811015611aad576000838281518110611a4357611a4361276b565b602002602001015190508060046000878581518110611a6457611a6461276b565b602002602001015181526020019081526020016000206000828254611a899190612781565b90915550611a9990508184612781565b92505080611aa690612718565b9050611a26565b508060056000828254611ac09190612781565b9091555050505b6001600160a01b038316611363576000805b8351811015611b51576000838281518110611af657611af661276b565b602002602001015190508060046000878581518110611b1757611b1761276b565b602002602001015181526020019081526020016000206000828254039250508190555080830192505080611b4a90612718565b9050611ad9565b506005805491909103905550505050565b60006106758383611dc1565b6000610675836001600160a01b038416611dc1565b60006106758383611eb4565b6000610675836001600160a01b038416611eb4565b8051825114611bd35781518151604051635b05999160e01b8152600481019290925260248201526044016107b9565b3360005b8351811015611ce2576020818102858101820151908501909101516001600160a01b03881615611c8a576000828152602081815260408083206001600160a01b038c16845290915290205481811015611c63576040516303dee4c560e01b81526001600160a01b038a1660048201526024810182905260448101839052606481018490526084016107b9565b6000838152602081815260408083206001600160a01b038d16845290915290209082900390555b6001600160a01b03871615611ccf576000828152602081815260408083206001600160a01b038b16845290915281208054839290611cc9908490612781565b90915550505b505080611cdb90612718565b9050611bd7565b508251600103611d635760208301516000906020840151909150856001600160a01b0316876001600160a01b0316846001600160a01b03167fc3d58168c5ae7397731d063d5bbf3d657854427343f4c083240f7aacaa2d0f628585604051611d54929190918252602082015260400190565b60405180910390a45050610ff3565b836001600160a01b0316856001600160a01b0316826001600160a01b03167f4a39dc06d4c0dbc64b70af90fd698a233a518aa5d07e595d983b8c0526c8f7fb8686604051611db29291906129d5565b60405180910390a45050505050565b60008181526001830160205260408120548015611eaa576000611de5600183612794565b8554909150600090611df990600190612794565b9050808214611e5e576000866000018281548110611e1957611e1961276b565b9060005260206000200154905080876000018481548110611e3c57611e3c61276b565b6000918252602080832090910192909255918252600188019052604090208390555b8554869080611e6f57611e6f612a03565b600190038181906000526020600020016000905590558560010160008681526020019081526020016000206000905560019350505050610544565b6000915050610544565b6000818152600183016020526040812054611efb57508154600181810184556000848152602080822090930184905584548482528286019093526040902091909155610544565b506000610544565b80356001600160a01b0381168114611f1a57600080fd5b919050565b60008060408385031215611f3257600080fd5b611f3b83611f03565b946020939093013593505050565b6001600160e01b0319811681146105ab57600080fd5b600060208284031215611f7157600080fd5b813561067581611f49565b634e487b7160e01b600052604160045260246000fd5b604080519081016001600160401b0381118282101715611fb457611fb4611f7c565b60405290565b604051601f8201601f191681016001600160401b0381118282101715611fe257611fe2611f7c565b604052919050565b60006001600160401b0383111561200357612003611f7c565b612016601f8401601f1916602001611fba565b905082815283838301111561202a57600080fd5b828260208301376000602084830101529392505050565b60006020828403121561205357600080fd5b81356001600160401b0381111561206957600080fd5b8201601f8101841361207a57600080fd5b61208984823560208401611fea565b949350505050565b60005b838110156120ac578181015183820152602001612094565b50506000910152565b600081518084526120cd816020860160208601612091565b601f01601f19169290920160200192915050565b60208152600061067560208301846120b5565b60006020828403121561210657600080fd5b5035919050565b60006001600160401b0382111561212657612126611f7c565b5060051b60200190565b6000602080838503121561214357600080fd5b82356001600160401b0381111561215957600080fd5b8301601f8101851361216a57600080fd5b803561217d6121788261210d565b611fba565b81815260069190911b8201830190838101908783111561219c57600080fd5b928401925b828410156121e657604084890312156121ba5760008081fd5b6121c2611f92565b6121cb85611f03565b815284860135868201528252604090930192908401906121a1565b979650505050505050565b6000806040838503121561220457600080fd5b50508035926020909101359150565b6020808252825182820181905260009190848201906040850190845b818110156122545783516001600160a01b03168352928401929184019160010161222f565b50909695505050505050565b60006020828403121561227257600080fd5b61067582611f03565b600082601f83011261228c57600080fd5b8135602061229c6121788361210d565b82815260059290921b840181019181810190868411156122bb57600080fd5b8286015b848110156122d657803583529183019183016122bf565b509695505050505050565b600082601f8301126122f257600080fd5b61067583833560208501611fea565b600080600080600060a0868803121561231957600080fd5b61232286611f03565b945061233060208701611f03565b935060408601356001600160401b038082111561234c57600080fd5b61235889838a0161227b565b9450606088013591508082111561236e57600080fd5b61237a89838a0161227b565b9350608088013591508082111561239057600080fd5b5061239d888289016122e1565b9150509295509295909350565b600080604083850312156123bd57600080fd5b82356001600160401b03808211156123d457600080fd5b818501915085601f8301126123e857600080fd5b813560206123f86121788361210d565b82815260059290921b8401810191818101908984111561241757600080fd5b948201945b8386101561243c5761242d86611f03565b8252948201949082019061241c565b9650508601359250508082111561245257600080fd5b5061245f8582860161227b565b9150509250929050565b600081518084526020808501945080840160005b838110156124995781518752958201959082019060010161247d565b509495945050505050565b6020815260006106756020830184612469565b80358015158114611f1a57600080fd5b600060208083850312156124da57600080fd5b82356001600160401b038111156124f057600080fd5b8301601f8101851361250157600080fd5b803561250f6121788261210d565b81815260069190911b8201830190838101908783111561252e57600080fd5b928401925b828410156121e6576040848903121561254c5760008081fd5b612554611f92565b61255d85611f03565b815261256a8686016124b7565b8187015282526040939093019290840190612533565b60008060006060848603121561259557600080fd5b61259e84611f03565b925060208401356001600160401b03808211156125ba57600080fd5b6125c68783880161227b565b935060408601359150808211156125dc57600080fd5b506125e98682870161227b565b9150509250925092565b60006020828403121561260557600080fd5b610675826124b7565b6000806040838503121561262157600080fd5b61262a83611f03565b9150612638602084016124b7565b90509250929050565b6000806040838503121561265457600080fd5b61265d83611f03565b915061263860208401611f03565b600080600080600060a0868803121561268357600080fd5b61268c86611f03565b945061269a60208701611f03565b9350604086013592506060860135915060808601356001600160401b038111156126c357600080fd5b61239d888289016122e1565b6000806000606084860312156126e457600080fd5b6126ed84611f03565b95602085013595506040909401359392505050565b634e487b7160e01b600052601160045260246000fd5b60006001820161272a5761272a612702565b5060010190565b600181811c9082168061274557607f821691505b60208210810361276557634e487b7160e01b600052602260045260246000fd5b50919050565b634e487b7160e01b600052603260045260246000fd5b8082018082111561054457610544612702565b8181038181111561054457610544612702565b600083516127b9818460208801612091565b8351908301906127cd818360208801612091565b01949350505050565b601f821115610c0a57600081815260208120601f850160051c810160208610156127fd5750805b601f850160051c820191505b81811015610a5757828155600101612809565b81516001600160401b0381111561283557612835611f7c565b612849816128438454612731565b846127d6565b602080601f83116001811461287e57600084156128665750858301515b600019600386901b1c1916600185901b178555610a57565b600085815260208120601f198616915b828110156128ad5788860151825594840194600190910190840161288e565b50858210156128cb5787850151600019600388901b60f8161c191681555b5050505050600190811b01905550565b6080815260006128ee60808301876120b5565b856020840152828103604084015261290681866120b5565b91505060018060a01b038316606083015295945050505050565b6001600160a01b03868116825285166020820152604081018490526060810183905260a0608082018190526000906121e6908301846120b5565b60006020828403121561296c57600080fd5b815161067581611f49565b6001600160a01b0386811682528516602082015260a0604082018190526000906129a390830186612469565b82810360608401526129b58186612469565b905082810360808401526129c981856120b5565b98975050505050505050565b6040815260006129e86040830185612469565b82810360208401526129fa8185612469565b95945050505050565b634e487b7160e01b600052603160045260246000fdfea264697066735822122091dc3d0393982585e48d46c6b5606a03c22ed7a086dbff01e47b055949bee82664736f6c63430008140033","linkReferences":{}},"methodIdentifiers":{"balanceOf(address,uint256)":"00fdd58e","balanceOfBatch(address[],uint256[])":"4e1273f4","burn(address,uint256,uint256)":"f5298aca","burnBatch(address,uint256[],uint256[])":"6b20c454","count()":"06661abd","counter()":"61bc221a","currentSupply()":"771282f6","distribute((address,uint256)[])":"1c378573","exists(uint256)":"4f558e79","getTicketHolders(uint256,uint256)":"20ced105","getTokensByUser(address)":"80370075","initialSupply()":"378dc3dc","isApprovedForAll(address,address)":"e985e9c5","isWhitelisted(address)":"3af32abf","maxSupply()":"d5abeb01","name()":"06fdde03","nextTokenId()":"75794a3c","owner()":"8da5cb5b","ownerSmartWallet()":"bbedb38e","renounceOwnership()":"715018a6","safeBatchTransferFrom(address,address,uint256[],uint256[],bytes)":"2eb2c2d6","safeTransferFrom(address,address,uint256,uint256,bytes)":"f242432a","setApprovalForAll(address,bool)":"a22cb465","setSmartWallet(address)":"2687f0f0","setTransferable(bool)":"9cd23707","setURI(string)":"02fe5305","supportsInterface(bytes4)":"01ffc9a7","symbol()":"95d89b41","tokenURI(uint256)":"c87b56dd","totalSupply()":"18160ddd","totalSupply(uint256)":"bd85b039","transferOwnership(address)":"f2fde38b","transferable()":"92ff0d31","updateSupply(uint256)":"6bd08049","updateWhitelist((address,bool)[])":"54f2a4d3","uri(uint256)":"0e89341c","userHasToken(address,uint256)":"0ab464f0","whitelistOnly()":"4b4687b5"},"id":53}