{"abi":[{"type":"constructor","inputs":[{"name":"owner","type":"address","internalType":"address"},{"name":"baseURI","type":"string","internalType":"string"},{"name":"_name","type":"string","internalType":"string"},{"name":"_symbol","type":"string","internalType":"string"},{"name":"_initialSupply","type":"uint256","internalType":"uint256"},{"name":"_maxSupply","type":"uint256","internalType":"uint256"},{"name":"_transferable","type":"bool","internalType":"bool"},{"name":"_whitelistOnly","type":"bool","internalType":"bool"}],"stateMutability":"nonpayable"},{"type":"function","name":"balanceOf","inputs":[{"name":"account","type":"address","internalType":"address"},{"name":"id","type":"uint256","internalType":"uint256"}],"outputs":[{"name":"","type":"uint256","internalType":"uint256"}],"stateMutability":"view"},{"type":"function","name":"balanceOfBatch","inputs":[{"name":"accounts","type":"address[]","internalType":"address[]"},{"name":"ids","type":"uint256[]","internalType":"uint256[]"}],"outputs":[{"name":"","type":"uint256[]","internalType":"uint256[]"}],"stateMutability":"view"},{"type":"function","name":"burn","inputs":[{"name":"account","type":"address","internalType":"address"},{"name":"id","type":"uint256","internalType":"uint256"},{"name":"value","type":"uint256","internalType":"uint256"}],"outputs":[],"stateMutability":"nonpayable"},{"type":"function","name":"burnBatch","inputs":[{"name":"account","type":"address","internalType":"address"},{"name":"ids","type":"uint256[]","internalType":"uint256[]"},{"name":"values","type":"uint256[]","internalType":"uint256[]"}],"outputs":[],"stateMutability":"nonpayable"},{"type":"function","name":"currentSupply","inputs":[],"outputs":[{"name":"","type":"uint256","internalType":"uint256"}],"stateMutability":"view"},{"type":"function","name":"distribute","inputs":[{"name":"_distributions","type":"tuple[]","internalType":"struct FreeTicket.Distribution[]","components":[{"name":"recipient","type":"address","internalType":"address"},{"name":"amount","type":"uint256","internalType":"uint256"}]}],"outputs":[],"stateMutability":"nonpayable"},{"type":"function","name":"exists","inputs":[{"name":"id","type":"uint256","internalType":"uint256"}],"outputs":[{"name":"","type":"bool","internalType":"bool"}],"stateMutability":"view"},{"type":"function","name":"getTokensByUser","inputs":[{"name":"user","type":"address","internalType":"address"}],"outputs":[{"name":"","type":"uint256[]","internalType":"uint256[]"}],"stateMutability":"view"},{"type":"function","name":"initialSupply","inputs":[],"outputs":[{"name":"","type":"uint256","internalType":"uint256"}],"stateMutability":"view"},{"type":"function","name":"isApprovedForAll","inputs":[{"name":"account","type":"address","internalType":"address"},{"name":"operator","type":"address","internalType":"address"}],"outputs":[{"name":"","type":"bool","internalType":"bool"}],"stateMutability":"view"},{"type":"function","name":"isTrustedForwarder","inputs":[{"name":"forwarder","type":"address","internalType":"address"}],"outputs":[{"name":"","type":"bool","internalType":"bool"}],"stateMutability":"view"},{"type":"function","name":"isWhitelisted","inputs":[{"name":"","type":"address","internalType":"address"}],"outputs":[{"name":"","type":"bool","internalType":"bool"}],"stateMutability":"view"},{"type":"function","name":"maxSupply","inputs":[],"outputs":[{"name":"","type":"uint256","internalType":"uint256"}],"stateMutability":"view"},{"type":"function","name":"name","inputs":[],"outputs":[{"name":"","type":"string","internalType":"string"}],"stateMutability":"view"},{"type":"function","name":"nextTokenId","inputs":[],"outputs":[{"name":"","type":"uint256","internalType":"uint256"}],"stateMutability":"view"},{"type":"function","name":"owner","inputs":[],"outputs":[{"name":"","type":"address","internalType":"address"}],"stateMutability":"view"},{"type":"function","name":"renounceOwnership","inputs":[],"outputs":[],"stateMutability":"nonpayable"},{"type":"function","name":"safeBatchTransferFrom","inputs":[{"name":"from","type":"address","internalType":"address"},{"name":"to","type":"address","internalType":"address"},{"name":"ids","type":"uint256[]","internalType":"uint256[]"},{"name":"values","type":"uint256[]","internalType":"uint256[]"},{"name":"data","type":"bytes","internalType":"bytes"}],"outputs":[],"stateMutability":"nonpayable"},{"type":"function","name":"safeTransferFrom","inputs":[{"name":"from","type":"address","internalType":"address"},{"name":"to","type":"address","internalType":"address"},{"name":"id","type":"uint256","internalType":"uint256"},{"name":"value","type":"uint256","internalType":"uint256"},{"name":"data","type":"bytes","internalType":"bytes"}],"outputs":[],"stateMutability":"nonpayable"},{"type":"function","name":"setApprovalForAll","inputs":[{"name":"operator","type":"address","internalType":"address"},{"name":"approved","type":"bool","internalType":"bool"}],"outputs":[],"stateMutability":"nonpayable"},{"type":"function","name":"setTransferable","inputs":[{"name":"_transferable","type":"bool","internalType":"bool"}],"outputs":[],"stateMutability":"nonpayable"},{"type":"function","name":"setURI","inputs":[{"name":"newuri","type":"string","internalType":"string"}],"outputs":[],"stateMutability":"nonpayable"},{"type":"function","name":"supportsInterface","inputs":[{"name":"interfaceId","type":"bytes4","internalType":"bytes4"}],"outputs":[{"name":"","type":"bool","internalType":"bool"}],"stateMutability":"view"},{"type":"function","name":"symbol","inputs":[],"outputs":[{"name":"","type":"string","internalType":"string"}],"stateMutability":"view"},{"type":"function","name":"tokenURI","inputs":[{"name":"_tokenId","type":"uint256","internalType":"uint256"}],"outputs":[{"name":"","type":"string","internalType":"string"}],"stateMutability":"view"},{"type":"function","name":"totalSupply","inputs":[],"outputs":[{"name":"","type":"uint256","internalType":"uint256"}],"stateMutability":"view"},{"type":"function","name":"totalSupply","inputs":[{"name":"id","type":"uint256","internalType":"uint256"}],"outputs":[{"name":"","type":"uint256","internalType":"uint256"}],"stateMutability":"view"},{"type":"function","name":"transferOwnership","inputs":[{"name":"newOwner","type":"address","internalType":"address"}],"outputs":[],"stateMutability":"nonpayable"},{"type":"function","name":"transferable","inputs":[],"outputs":[{"name":"","type":"bool","internalType":"bool"}],"stateMutability":"view"},{"type":"function","name":"trustedForwarder","inputs":[],"outputs":[{"name":"","type":"address","internalType":"address"}],"stateMutability":"view"},{"type":"function","name":"updateSupply","inputs":[{"name":"_additionalSupply","type":"uint256","internalType":"uint256"}],"outputs":[],"stateMutability":"nonpayable"},{"type":"function","name":"updateWhitelist","inputs":[{"name":"_whitelistUpdates","type":"tuple[]","internalType":"struct FreeTicket.Whitelist[]","components":[{"name":"user","type":"address","internalType":"address"},{"name":"status","type":"bool","internalType":"bool"}]}],"outputs":[],"stateMutability":"nonpayable"},{"type":"function","name":"uri","inputs":[{"name":"","type":"uint256","internalType":"uint256"}],"outputs":[{"name":"","type":"string","internalType":"string"}],"stateMutability":"view"},{"type":"function","name":"userHasToken","inputs":[{"name":"user","type":"address","internalType":"address"},{"name":"tokenId","type":"uint256","internalType":"uint256"}],"outputs":[{"name":"","type":"bool","internalType":"bool"}],"stateMutability":"view"},{"type":"function","name":"whitelistOnly","inputs":[],"outputs":[{"name":"","type":"bool","internalType":"bool"}],"stateMutability":"view"},{"type":"event","name":"ApprovalForAll","inputs":[{"name":"account","type":"address","indexed":true,"internalType":"address"},{"name":"operator","type":"address","indexed":true,"internalType":"address"},{"name":"approved","type":"bool","indexed":false,"internalType":"bool"}],"anonymous":false},{"type":"event","name":"OwnershipTransferred","inputs":[{"name":"previousOwner","type":"address","indexed":true,"internalType":"address"},{"name":"newOwner","type":"address","indexed":true,"internalType":"address"}],"anonymous":false},{"type":"event","name":"SupplyUpdated","inputs":[{"name":"newSupply","type":"uint256","indexed":false,"internalType":"uint256"}],"anonymous":false},{"type":"event","name":"TransferBatch","inputs":[{"name":"operator","type":"address","indexed":true,"internalType":"address"},{"name":"from","type":"address","indexed":true,"internalType":"address"},{"name":"to","type":"address","indexed":true,"internalType":"address"},{"name":"ids","type":"uint256[]","indexed":false,"internalType":"uint256[]"},{"name":"values","type":"uint256[]","indexed":false,"internalType":"uint256[]"}],"anonymous":false},{"type":"event","name":"TransferSingle","inputs":[{"name":"operator","type":"address","indexed":true,"internalType":"address"},{"name":"from","type":"address","indexed":true,"internalType":"address"},{"name":"to","type":"address","indexed":true,"internalType":"address"},{"name":"id","type":"uint256","indexed":false,"internalType":"uint256"},{"name":"value","type":"uint256","indexed":false,"internalType":"uint256"}],"anonymous":false},{"type":"event","name":"URI","inputs":[{"name":"value","type":"string","indexed":false,"internalType":"string"},{"name":"id","type":"uint256","indexed":true,"internalType":"uint256"}],"anonymous":false},{"type":"error","name":"ERC1155InsufficientBalance","inputs":[{"name":"sender","type":"address","internalType":"address"},{"name":"balance","type":"uint256","internalType":"uint256"},{"name":"needed","type":"uint256","internalType":"uint256"},{"name":"tokenId","type":"uint256","internalType":"uint256"}]},{"type":"error","name":"ERC1155InvalidApprover","inputs":[{"name":"approver","type":"address","internalType":"address"}]},{"type":"error","name":"ERC1155InvalidArrayLength","inputs":[{"name":"idsLength","type":"uint256","internalType":"uint256"},{"name":"valuesLength","type":"uint256","internalType":"uint256"}]},{"type":"error","name":"ERC1155InvalidOperator","inputs":[{"name":"operator","type":"address","internalType":"address"}]},{"type":"error","name":"ERC1155InvalidReceiver","inputs":[{"name":"receiver","type":"address","internalType":"address"}]},{"type":"error","name":"ERC1155InvalidSender","inputs":[{"name":"sender","type":"address","internalType":"address"}]},{"type":"error","name":"ERC1155MissingApprovalForAll","inputs":[{"name":"operator","type":"address","internalType":"address"},{"name":"owner","type":"address","internalType":"address"}]},{"type":"error","name":"OwnableInvalidOwner","inputs":[{"name":"owner","type":"address","internalType":"address"}]},{"type":"error","name":"OwnableUnauthorizedAccount","inputs":[{"name":"account","type":"address","internalType":"address"}]}],"bytecode":{"object":"0x60a06040526001600c553480156200001657600080fd5b5060405162002ea138038062002ea18339810160408190526200003991620002b3565b73839320b787dbb268dcf0170302b16b25168b6ba788886200005b816200015c565b506001600160a01b0381166200008c57604051631e4fbdf760e01b8152600060048201526024015b60405180910390fd5b62000097816200016e565b506001600160a01b031660805282841115620001005760405162461bcd60e51b815260206004820152602160248201527f496e697469616c20737570706c792065786365656473206d617820737570706c6044820152607960f81b606482015260840162000083565b60066200010e878262000420565b5060076200011d868262000420565b506008849055600992909255600a92909255600b805461ffff191692151561ff001916929092176101009115159190910217905550620004ec92505050565b60026200016a828262000420565b5050565b600380546001600160a01b038381166001600160a01b0319831681179093556040519116919082907f8be0079c531659141344cd1fd0a4f28419497f9722a3daafe3b4186f6b6457e090600090a35050565b80516001600160a01b0381168114620001d857600080fd5b919050565b634e487b7160e01b600052604160045260246000fd5b600082601f8301126200020557600080fd5b81516001600160401b0380821115620002225762000222620001dd565b604051601f8301601f19908116603f011681019082821181831017156200024d576200024d620001dd565b816040528381526020925086838588010111156200026a57600080fd5b600091505b838210156200028e57858201830151818301840152908201906200026f565b600093810190920192909252949350505050565b80518015158114620001d857600080fd5b600080600080600080600080610100898b031215620002d157600080fd5b620002dc89620001c0565b60208a01519098506001600160401b0380821115620002fa57600080fd5b620003088c838d01620001f3565b985060408b01519150808211156200031f57600080fd5b6200032d8c838d01620001f3565b975060608b01519150808211156200034457600080fd5b50620003538b828c01620001f3565b9550506080890151935060a089015192506200037260c08a01620002a2565b91506200038260e08a01620002a2565b90509295985092959890939650565b600181811c90821680620003a657607f821691505b602082108103620003c757634e487b7160e01b600052602260045260246000fd5b50919050565b601f8211156200041b57600081815260208120601f850160051c81016020861015620003f65750805b601f850160051c820191505b81811015620004175782815560010162000402565b5050505b505050565b81516001600160401b038111156200043c576200043c620001dd565b62000454816200044d845462000391565b84620003cd565b602080601f8311600181146200048c5760008415620004735750858301515b600019600386901b1c1916600185901b17855562000417565b600085815260208120601f198616915b82811015620004bd578886015182559484019460019091019084016200049c565b5085821015620004dc5787850151600019600388901b60f8161c191681555b5050505050600190811b01905550565b60805161298b620005166000396000818161037f015281816103f101526112a1015261298b6000f3fe608060405234801561001057600080fd5b50600436106102105760003560e01c80636bd08049116101255780639cd23707116100ad578063d5abeb011161007c578063d5abeb01146104bb578063e985e9c5146104c4578063f242432a146104d7578063f2fde38b146104ea578063f5298aca146104fd57600080fd5b80639cd2370714610462578063a22cb46514610475578063bd85b03914610488578063c87b56dd146104a857600080fd5b80637da0a877116100f45780637da0a877146103ef57806380370075146104295780638da5cb5b1461043c57806392ff0d311461044d57806395d89b411461045a57600080fd5b80636bd08049146103c2578063715018a6146103d557806375794a3c146103dd578063771282f6146103e657600080fd5b80632eb2c2d6116101a85780634e1273f4116101775780634e1273f41461031a5780634f558e791461033a57806354f2a4d31461035c578063572b6c051461036f5780636b20c454146103af57600080fd5b80632eb2c2d6146102c9578063378dc3dc146102dc5780633af32abf146102e55780634b4687b51461030857600080fd5b80630ab464f0116101e45780630ab464f0146102885780630e89341c1461029b57806318160ddd146102ae5780631c378573146102b657600080fd5b8062fdd58e1461021557806301ffc9a71461023b57806302fe53051461025e57806306fdde0314610273575b600080fd5b610228610223366004611e6b565b610510565b6040519081526020015b60405180910390f35b61024e610249366004611eab565b610538565b6040519015158152602001610232565b61027161026c366004611f8d565b610588565b005b61027b61059c565b604051610232919061202d565b61024e610296366004611e6b565b61062a565b61027b6102a9366004612040565b610653565b600554610228565b6102716102c436600461207c565b6106e7565b6102716102d73660046121c3565b6108c9565b61022860085481565b61024e6102f336600461226c565b600e6020526000908152604090205460ff1681565b600b5461024e90610100900460ff1681565b61032d610328366004612287565b610944565b6040516102329190612381565b61024e610348366004612040565b600090815260046020526040902054151590565b61027161036a3660046123a4565b610a18565b61024e61037d36600461226c565b7f00000000000000000000000000000000000000000000000000000000000000006001600160a01b0390811691161490565b6102716103bd36600461245d565b610a90565b6102716103d0366004612040565b610b0c565b610271610bb7565b610228600c5481565b610228600a5481565b7f00000000000000000000000000000000000000000000000000000000000000005b6040516001600160a01b039091168152602001610232565b61032d61043736600461226c565b610bcb565b6003546001600160a01b0316610411565b600b5461024e9060ff1681565b61027b610bef565b6102716104703660046124d0565b610bfc565b6102716104833660046124eb565b610c17565b610228610496366004612040565b60009081526004602052604090205490565b61027b6104b6366004612040565b610c29565b61022860095481565b61024e6104d236600461251e565b610c64565b6102716104e5366004612548565b610c92565b6102716104f836600461226c565b610d05565b61027161050b3660046125ac565b610d40565b6000818152602081815260408083206001600160a01b03861684529091529020545b92915050565b60006001600160e01b03198216636cdb3d1360e11b148061056957506001600160e01b031982166303a24d0760e21b145b8061053257506301ffc9a760e01b6001600160e01b0319831614610532565b610590610d8a565b61059981610de8565b50565b600680546105a9906125df565b80601f01602080910402602001604051908101604052809291908181526020018280546105d5906125df565b80156106225780601f106105f757610100808354040283529160200191610622565b820191906000526020600020905b81548152906001019060200180831161060557829003601f168201915b505050505081565b6001600160a01b0382166000908152600d6020526040812061064c9083610df4565b9392505050565b606060028054610662906125df565b80601f016020809104026020016040519081016040528092919081815260200182805461068e906125df565b80156106db5780601f106106b0576101008083540402835291602001916106db565b820191906000526020600020905b8154815290600101906020018083116106be57829003601f168201915b50505050509050919050565b6106ef610d8a565b6000805b82518110156107be57600083828151811061071057610710612619565b60200260200101519050600b60019054906101000a900460ff16156107995780516001600160a01b03166000908152600e602052604090205460ff166107995760405162461bcd60e51b8152602060048201526019602482015278149958da5c1a595b9d081b9bdd081dda1a5d195b1a5cdd1959603a1b60448201526064015b60405180910390fd5b60208101516107a89084612645565b92505080806107b690612658565b9150506106f3565b5080600a54101561080a5760405162461bcd60e51b8152602060048201526016602482015275457863656564732063757272656e7420737570706c7960501b6044820152606401610790565b60095481600a5461081b9190612645565b111561085e5760405162461bcd60e51b815260206004820152601260248201527145786365656473206d617820737570706c7960701b6044820152606401610790565b60005b82518110156108ad57600083828151811061087e5761087e612619565b6020026020010151905061089a81600001518260200151610e0c565b50806108a581612658565b915050610861565b5080600a60008282546108c09190612671565b90915550505050565b60006108d3610eac565b9050806001600160a01b0316866001600160a01b0316141580156108fe57506108fc8682610c64565b155b1561092f5760405163711bec9160e11b81526001600160a01b03808316600483015287166024820152604401610790565b61093c8686868686610ebb565b505050505050565b606081518351146109755781518351604051635b05999160e01b815260048101929092526024820152604401610790565b600083516001600160401b0381111561099057610990611ec8565b6040519080825280602002602001820160405280156109b9578160200160208202803683370190505b50905060005b8451811015610a10576020808202860101516109e390602080840287010151610510565b8282815181106109f5576109f5612619565b6020908102919091010152610a0981612658565b90506109bf565b509392505050565b610a20610d8a565b60005b8151811015610a8c576000828281518110610a4057610a40612619565b6020908102919091018101518082015190516001600160a01b03166000908152600e9092526040909120805460ff19169115159190911790555080610a8481612658565b915050610a23565b5050565b610a98610eac565b6001600160a01b0316836001600160a01b031614158015610ac25750610ac0836104d2610eac565b155b15610afc57610acf610eac565b60405163711bec9160e11b81526001600160a01b0391821660048201529084166024820152604401610790565b610b07838383610f22565b505050565b610b14610d8a565b60095481600a54610b259190612645565b1115610b685760405162461bcd60e51b815260206004820152601260248201527145786365656473206d617820737570706c7960701b6044820152606401610790565b600081600a54610b789190612645565b600a8190556040518181529091507fea4bfee7f9fb38136c61cc04b6e56efc93eaf1beef326dbc47495b358385914c9060200160405180910390a15050565b610bbf610d8a565b610bc96000610f68565b565b6001600160a01b0381166000908152600d6020526040902060609061053290610fba565b600780546105a9906125df565b610c04610d8a565b600b805460ff1916911515919091179055565b610a8c610c22610eac565b8383610fc7565b6060610c3482610653565b610c3d8361105d565b604051602001610c4e929190612684565b6040516020818303038152906040529050919050565b6001600160a01b03918216600090815260016020908152604080832093909416825291909152205460ff1690565b6000610c9c610eac565b9050806001600160a01b0316866001600160a01b031614158015610cc75750610cc58682610c64565b155b15610cf85760405163711bec9160e11b81526001600160a01b03808316600483015287166024820152604401610790565b61093c86868686866110ef565b610d0d610d8a565b6001600160a01b038116610d3757604051631e4fbdf760e01b815260006004820152602401610790565b61059981610f68565b610d48610eac565b6001600160a01b0316836001600160a01b031614158015610d725750610d70836104d2610eac565b155b15610d7f57610acf610eac565b610b0783838361117d565b610d92610eac565b6001600160a01b0316610dad6003546001600160a01b031690565b6001600160a01b031614610bc957610dc3610eac565b60405163118cdaa760e01b81526001600160a01b039091166004820152602401610790565b6002610a8c82826126f9565b6000818152600183016020526040812054151561064c565b60005b81811015610b0757610e3583600c546001604051806020016040528060008152506111e5565b610e846040518060400160405280600f81526020016e135a5b9d1959081d1bdad95b881251608a1b815250600c5460405180604001604052806002815260200161746f60f01b81525086611242565b600c8054906000610e9483612658565b91905055508080610ea490612658565b915050610e0f565b6000610eb6611291565b905090565b6001600160a01b038416610ee557604051632bfa23e760e11b815260006004820152602401610790565b6001600160a01b038516610f0e57604051626a0d4560e21b815260006004820152602401610790565b610f1b8585858585611306565b5050505050565b6001600160a01b038316610f4b57604051626a0d4560e21b815260006004820152602401610790565b610b07836000848460405180602001604052806000815250611306565b600380546001600160a01b038381166001600160a01b0319831681179093556040519116919082907f8be0079c531659141344cd1fd0a4f28419497f9722a3daafe3b4186f6b6457e090600090a35050565b6060600061064c83611363565b6001600160a01b038216610ff05760405162ced3e160e81b815260006004820152602401610790565b6001600160a01b03838116600081815260016020908152604080832094871680845294825291829020805460ff191686151590811790915591519182527f17307eab39ab6107e8899845ad3d59bd9653f200f220920489ca2b5937696c31910160405180910390a3505050565b6060600061106a836113be565b60010190506000816001600160401b0381111561108957611089611ec8565b6040519080825280601f01601f1916602001820160405280156110b3576020820181803683370190505b5090508181016020015b600019016f181899199a1a9b1b9c1cb0b131b232b360811b600a86061a8153600a85049450846110bd57509392505050565b6001600160a01b03841661111957604051632bfa23e760e11b815260006004820152602401610790565b6001600160a01b03851661114257604051626a0d4560e21b815260006004820152602401610790565b604080516001808252602082018690528183019081526060820185905260808201909252906111748787848487611306565b50505050505050565b6001600160a01b0383166111a657604051626a0d4560e21b815260006004820152602401610790565b604080516001808252602082018590528183019081526060820184905260a08201909252600060808201818152919291610f1b91879185908590611306565b6001600160a01b03841661120f57604051632bfa23e760e11b815260006004820152602401610790565b6040805160018082526020820186905281830190815260608201859052608082019092529061093c600087848487611306565b61128b8484848460405160240161125c94939291906127b8565b60408051601f198184030181529190526020810180516001600160e01b0316631f118ca960e21b179052611496565b50505050565b6000366014336001600160a01b037f0000000000000000000000000000000000000000000000000000000000000000161480156112ce5750808210155b156112fe576000366112e08385612671565b6112eb9282906127fd565b6112f491612827565b60601c9250505090565b339250505090565b6113128585858561149f565b6001600160a01b03841615610f1b57600061132b610eac565b90508351600103611355576020848101519084015161134e838989858589611745565b505061093c565b61093c818787878787611869565b6060816000018054806020026020016040519081016040528092919081815260200182805480156106db57602002820191906000526020600020905b81548152602001906001019080831161139f5750505050509050919050565b60008072184f03e93ff9f4daa797ed6e38ed64bf6a1f0160401b83106113fd5772184f03e93ff9f4daa797ed6e38ed64bf6a1f0160401b830492506040015b6d04ee2d6d415b85acef81000000008310611429576d04ee2d6d415b85acef8100000000830492506020015b662386f26fc10000831061144757662386f26fc10000830492506010015b6305f5e100831061145f576305f5e100830492506008015b612710831061147357612710830492506004015b60648310611485576064830492506002015b600a83106105325760010192915050565b61059981611952565b6114ab84848484611973565b60005b82518110156115ef5760008282815181106114cb576114cb612619565b602002602001015111156115dd576001600160a01b0385161561157c578181815181106114fa576114fa612619565b60200260200101516115258685848151811061151857611518612619565b6020026020010151610510565b0361157c5761157a83828151811061153f5761153f612619565b6020026020010151600d6000886001600160a01b03166001600160a01b03168152602001908152602001600020611acd90919063ffffffff16565b505b6001600160a01b038416156115dd576115db8382815181106115a0576115a0612619565b6020026020010151600d6000876001600160a01b03166001600160a01b03168152602001908152602001600020611ad990919063ffffffff16565b505b806115e781612658565b9150506114ae565b506001600160a01b038416158061160d57506001600160a01b038316155b61128b57600b5460ff166116635760405162461bcd60e51b815260206004820152601960248201527f5472616e736665727320617265206e6f7420616c6c6f776564000000000000006044820152606401610790565b600b54610100900460ff161561128b57600e600061167f610eac565b6001600160a01b0316815260208101919091526040016000205460ff166116e15760405162461bcd60e51b815260206004820152601660248201527514d95b99195c881b9bdd081dda1a5d195b1a5cdd195960521b6044820152606401610790565b6001600160a01b0383166000908152600e602052604090205460ff1661128b5760405162461bcd60e51b8152602060048201526019602482015278149958da5c1a595b9d081b9bdd081dda1a5d195b1a5cdd1959603a1b6044820152606401610790565b6001600160a01b0384163b1561093c5760405163f23a6e6160e01b81526001600160a01b0385169063f23a6e6190611789908990899088908890889060040161285c565b6020604051808303816000875af19250505080156117c4575060408051601f3d908101601f191682019092526117c191810190612896565b60015b61182d573d8080156117f2576040519150601f19603f3d011682016040523d82523d6000602084013e6117f7565b606091505b50805160000361182557604051632bfa23e760e11b81526001600160a01b0386166004820152602401610790565b805181602001fd5b6001600160e01b0319811663f23a6e6160e01b1461117457604051632bfa23e760e11b81526001600160a01b0386166004820152602401610790565b6001600160a01b0384163b1561093c5760405163bc197c8160e01b81526001600160a01b0385169063bc197c81906118ad90899089908890889088906004016128b3565b6020604051808303816000875af19250505080156118e8575060408051601f3d908101601f191682019092526118e591810190612896565b60015b611916573d8080156117f2576040519150601f19603f3d011682016040523d82523d6000602084013e6117f7565b6001600160e01b0319811663bc197c8160e01b1461117457604051632bfa23e760e11b81526001600160a01b0386166004820152602401610790565b60006a636f6e736f6c652e6c6f679050600080835160208501845afa505050565b61197f84848484611ae5565b6001600160a01b038416611a32576000805b8351811015611a185760008382815181106119ae576119ae612619565b6020026020010151905080600460008785815181106119cf576119cf612619565b6020026020010151815260200190815260200160002060008282546119f49190612645565b90915550611a0490508184612645565b92505080611a1190612658565b9050611991565b508060056000828254611a2b9190612645565b9091555050505b6001600160a01b03831661128b576000805b8351811015611abc576000838281518110611a6157611a61612619565b602002602001015190508060046000878581518110611a8257611a82612619565b602002602001015181526020019081526020016000206000828254039250508190555080830192505080611ab590612658565b9050611a44565b506005805491909103905550505050565b600061064c8383611d0d565b600061064c8383611e00565b8051825114611b145781518151604051635b05999160e01b815260048101929092526024820152604401610790565b6000611b1e610eac565b905060005b8351811015611c2e576020818102858101820151908501909101516001600160a01b03881615611bd6576000828152602081815260408083206001600160a01b038c16845290915290205481811015611baf576040516303dee4c560e01b81526001600160a01b038a166004820152602481018290526044810183905260648101849052608401610790565b6000838152602081815260408083206001600160a01b038d16845290915290209082900390555b6001600160a01b03871615611c1b576000828152602081815260408083206001600160a01b038b16845290915281208054839290611c15908490612645565b90915550505b505080611c2790612658565b9050611b23565b508251600103611caf5760208301516000906020840151909150856001600160a01b0316876001600160a01b0316846001600160a01b03167fc3d58168c5ae7397731d063d5bbf3d657854427343f4c083240f7aacaa2d0f628585604051611ca0929190918252602082015260400190565b60405180910390a45050610f1b565b836001600160a01b0316856001600160a01b0316826001600160a01b03167f4a39dc06d4c0dbc64b70af90fd698a233a518aa5d07e595d983b8c0526c8f7fb8686604051611cfe929190612911565b60405180910390a45050505050565b60008181526001830160205260408120548015611df6576000611d31600183612671565b8554909150600090611d4590600190612671565b9050808214611daa576000866000018281548110611d6557611d65612619565b9060005260206000200154905080876000018481548110611d8857611d88612619565b6000918252602080832090910192909255918252600188019052604090208390555b8554869080611dbb57611dbb61293f565b600190038181906000526020600020016000905590558560010160008681526020019081526020016000206000905560019350505050610532565b6000915050610532565b6000818152600183016020526040812054611e4757508154600181810184556000848152602080822090930184905584548482528286019093526040902091909155610532565b506000610532565b80356001600160a01b0381168114611e6657600080fd5b919050565b60008060408385031215611e7e57600080fd5b611e8783611e4f565b946020939093013593505050565b6001600160e01b03198116811461059957600080fd5b600060208284031215611ebd57600080fd5b813561064c81611e95565b634e487b7160e01b600052604160045260246000fd5b604080519081016001600160401b0381118282101715611f0057611f00611ec8565b60405290565b604051601f8201601f191681016001600160401b0381118282101715611f2e57611f2e611ec8565b604052919050565b60006001600160401b03831115611f4f57611f4f611ec8565b611f62601f8401601f1916602001611f06565b9050828152838383011115611f7657600080fd5b828260208301376000602084830101529392505050565b600060208284031215611f9f57600080fd5b81356001600160401b03811115611fb557600080fd5b8201601f81018413611fc657600080fd5b611fd584823560208401611f36565b949350505050565b60005b83811015611ff8578181015183820152602001611fe0565b50506000910152565b60008151808452612019816020860160208601611fdd565b601f01601f19169290920160200192915050565b60208152600061064c6020830184612001565b60006020828403121561205257600080fd5b5035919050565b60006001600160401b0382111561207257612072611ec8565b5060051b60200190565b6000602080838503121561208f57600080fd5b82356001600160401b038111156120a557600080fd5b8301601f810185136120b657600080fd5b80356120c96120c482612059565b611f06565b81815260069190911b820183019083810190878311156120e857600080fd5b928401925b8284101561213257604084890312156121065760008081fd5b61210e611ede565b61211785611e4f565b815284860135868201528252604090930192908401906120ed565b979650505050505050565b600082601f83011261214e57600080fd5b8135602061215e6120c483612059565b82815260059290921b8401810191818101908684111561217d57600080fd5b8286015b848110156121985780358352918301918301612181565b509695505050505050565b600082601f8301126121b457600080fd5b61064c83833560208501611f36565b600080600080600060a086880312156121db57600080fd5b6121e486611e4f565b94506121f260208701611e4f565b935060408601356001600160401b038082111561220e57600080fd5b61221a89838a0161213d565b9450606088013591508082111561223057600080fd5b61223c89838a0161213d565b9350608088013591508082111561225257600080fd5b5061225f888289016121a3565b9150509295509295909350565b60006020828403121561227e57600080fd5b61064c82611e4f565b6000806040838503121561229a57600080fd5b82356001600160401b03808211156122b157600080fd5b818501915085601f8301126122c557600080fd5b813560206122d56120c483612059565b82815260059290921b840181019181810190898411156122f457600080fd5b948201945b838610156123195761230a86611e4f565b825294820194908201906122f9565b9650508601359250508082111561232f57600080fd5b5061233c8582860161213d565b9150509250929050565b600081518084526020808501945080840160005b838110156123765781518752958201959082019060010161235a565b509495945050505050565b60208152600061064c6020830184612346565b80358015158114611e6657600080fd5b600060208083850312156123b757600080fd5b82356001600160401b038111156123cd57600080fd5b8301601f810185136123de57600080fd5b80356123ec6120c482612059565b81815260069190911b8201830190838101908783111561240b57600080fd5b928401925b8284101561213257604084890312156124295760008081fd5b612431611ede565b61243a85611e4f565b8152612447868601612394565b8187015282526040939093019290840190612410565b60008060006060848603121561247257600080fd5b61247b84611e4f565b925060208401356001600160401b038082111561249757600080fd5b6124a38783880161213d565b935060408601359150808211156124b957600080fd5b506124c68682870161213d565b9150509250925092565b6000602082840312156124e257600080fd5b61064c82612394565b600080604083850312156124fe57600080fd5b61250783611e4f565b915061251560208401612394565b90509250929050565b6000806040838503121561253157600080fd5b61253a83611e4f565b915061251560208401611e4f565b600080600080600060a0868803121561256057600080fd5b61256986611e4f565b945061257760208701611e4f565b9350604086013592506060860135915060808601356001600160401b038111156125a057600080fd5b61225f888289016121a3565b6000806000606084860312156125c157600080fd5b6125ca84611e4f565b95602085013595506040909401359392505050565b600181811c908216806125f357607f821691505b60208210810361261357634e487b7160e01b600052602260045260246000fd5b50919050565b634e487b7160e01b600052603260045260246000fd5b634e487b7160e01b600052601160045260246000fd5b808201808211156105325761053261262f565b60006001820161266a5761266a61262f565b5060010190565b818103818111156105325761053261262f565b60008351612696818460208801611fdd565b8351908301906126aa818360208801611fdd565b01949350505050565b601f821115610b0757600081815260208120601f850160051c810160208610156126da5750805b601f850160051c820191505b8181101561093c578281556001016126e6565b81516001600160401b0381111561271257612712611ec8565b6127268161272084546125df565b846126b3565b602080601f83116001811461275b57600084156127435750858301515b600019600386901b1c1916600185901b17855561093c565b600085815260208120601f198616915b8281101561278a5788860151825594840194600190910190840161276b565b50858210156127a85787850151600019600388901b60f8161c191681555b5050505050600190811b01905550565b6080815260006127cb6080830187612001565b85602084015282810360408401526127e38186612001565b91505060018060a01b038316606083015295945050505050565b6000808585111561280d57600080fd5b8386111561281a57600080fd5b5050820193919092039150565b6bffffffffffffffffffffffff1981358181169160148510156128545780818660140360031b1b83161692505b505092915050565b6001600160a01b03868116825285166020820152604081018490526060810183905260a06080820181905260009061213290830184612001565b6000602082840312156128a857600080fd5b815161064c81611e95565b6001600160a01b0386811682528516602082015260a0604082018190526000906128df90830186612346565b82810360608401526128f18186612346565b905082810360808401526129058185612001565b98975050505050505050565b6040815260006129246040830185612346565b82810360208401526129368185612346565b95945050505050565b634e487b7160e01b600052603160045260246000fdfea2646970667358221220e97b6b17a0e8d44519158ebbad89b33c6eb2dc82c359f49602bc6487ffbc2dee64736f6c63430008140033","linkReferences":{}},"methodIdentifiers":{"balanceOf(address,uint256)":"00fdd58e","balanceOfBatch(address[],uint256[])":"4e1273f4","burn(address,uint256,uint256)":"f5298aca","burnBatch(address,uint256[],uint256[])":"6b20c454","currentSupply()":"771282f6","distribute((address,uint256)[])":"1c378573","exists(uint256)":"4f558e79","getTokensByUser(address)":"80370075","initialSupply()":"378dc3dc","isApprovedForAll(address,address)":"e985e9c5","isTrustedForwarder(address)":"572b6c05","isWhitelisted(address)":"3af32abf","maxSupply()":"d5abeb01","name()":"06fdde03","nextTokenId()":"75794a3c","owner()":"8da5cb5b","renounceOwnership()":"715018a6","safeBatchTransferFrom(address,address,uint256[],uint256[],bytes)":"2eb2c2d6","safeTransferFrom(address,address,uint256,uint256,bytes)":"f242432a","setApprovalForAll(address,bool)":"a22cb465","setTransferable(bool)":"9cd23707","setURI(string)":"02fe5305","supportsInterface(bytes4)":"01ffc9a7","symbol()":"95d89b41","tokenURI(uint256)":"c87b56dd","totalSupply()":"18160ddd","totalSupply(uint256)":"bd85b039","transferOwnership(address)":"f2fde38b","transferable()":"92ff0d31","trustedForwarder()":"7da0a877","updateSupply(uint256)":"6bd08049","updateWhitelist((address,bool)[])":"54f2a4d3","uri(uint256)":"0e89341c","userHasToken(address,uint256)":"0ab464f0","whitelistOnly()":"4b4687b5"},"id":38}