{"abi":[{"type":"constructor","inputs":[{"name":"owner","type":"address","internalType":"address"},{"name":"baseURI","type":"string","internalType":"string"},{"name":"_name","type":"string","internalType":"string"},{"name":"_symbol","type":"string","internalType":"string"},{"name":"_initialSupply","type":"uint256","internalType":"uint256"},{"name":"_maxSupply","type":"uint256","internalType":"uint256"},{"name":"_transferable","type":"bool","internalType":"bool"},{"name":"_whitelistOnly","type":"bool","internalType":"bool"}],"stateMutability":"nonpayable"},{"type":"function","name":"balanceOf","inputs":[{"name":"account","type":"address","internalType":"address"},{"name":"id","type":"uint256","internalType":"uint256"}],"outputs":[{"name":"","type":"uint256","internalType":"uint256"}],"stateMutability":"view"},{"type":"function","name":"balanceOfBatch","inputs":[{"name":"accounts","type":"address[]","internalType":"address[]"},{"name":"ids","type":"uint256[]","internalType":"uint256[]"}],"outputs":[{"name":"","type":"uint256[]","internalType":"uint256[]"}],"stateMutability":"view"},{"type":"function","name":"burn","inputs":[{"name":"account","type":"address","internalType":"address"},{"name":"id","type":"uint256","internalType":"uint256"},{"name":"value","type":"uint256","internalType":"uint256"}],"outputs":[],"stateMutability":"nonpayable"},{"type":"function","name":"burnBatch","inputs":[{"name":"account","type":"address","internalType":"address"},{"name":"ids","type":"uint256[]","internalType":"uint256[]"},{"name":"values","type":"uint256[]","internalType":"uint256[]"}],"outputs":[],"stateMutability":"nonpayable"},{"type":"function","name":"currentSupply","inputs":[],"outputs":[{"name":"","type":"uint256","internalType":"uint256"}],"stateMutability":"view"},{"type":"function","name":"distribute","inputs":[{"name":"_distributions","type":"tuple[]","internalType":"struct FreeTicket.Distribution[]","components":[{"name":"recipient","type":"address","internalType":"address"},{"name":"amount","type":"uint256","internalType":"uint256"}]}],"outputs":[],"stateMutability":"nonpayable"},{"type":"function","name":"exists","inputs":[{"name":"id","type":"uint256","internalType":"uint256"}],"outputs":[{"name":"","type":"bool","internalType":"bool"}],"stateMutability":"view"},{"type":"function","name":"initialSupply","inputs":[],"outputs":[{"name":"","type":"uint256","internalType":"uint256"}],"stateMutability":"view"},{"type":"function","name":"isApprovedForAll","inputs":[{"name":"account","type":"address","internalType":"address"},{"name":"operator","type":"address","internalType":"address"}],"outputs":[{"name":"","type":"bool","internalType":"bool"}],"stateMutability":"view"},{"type":"function","name":"isWhitelisted","inputs":[{"name":"","type":"address","internalType":"address"}],"outputs":[{"name":"","type":"bool","internalType":"bool"}],"stateMutability":"view"},{"type":"function","name":"maxSupply","inputs":[],"outputs":[{"name":"","type":"uint256","internalType":"uint256"}],"stateMutability":"view"},{"type":"function","name":"name","inputs":[],"outputs":[{"name":"","type":"string","internalType":"string"}],"stateMutability":"view"},{"type":"function","name":"nextTokenId","inputs":[],"outputs":[{"name":"","type":"uint256","internalType":"uint256"}],"stateMutability":"view"},{"type":"function","name":"owner","inputs":[],"outputs":[{"name":"","type":"address","internalType":"address"}],"stateMutability":"view"},{"type":"function","name":"renounceOwnership","inputs":[],"outputs":[],"stateMutability":"nonpayable"},{"type":"function","name":"safeBatchTransferFrom","inputs":[{"name":"from","type":"address","internalType":"address"},{"name":"to","type":"address","internalType":"address"},{"name":"ids","type":"uint256[]","internalType":"uint256[]"},{"name":"values","type":"uint256[]","internalType":"uint256[]"},{"name":"data","type":"bytes","internalType":"bytes"}],"outputs":[],"stateMutability":"nonpayable"},{"type":"function","name":"safeTransferFrom","inputs":[{"name":"from","type":"address","internalType":"address"},{"name":"to","type":"address","internalType":"address"},{"name":"id","type":"uint256","internalType":"uint256"},{"name":"value","type":"uint256","internalType":"uint256"},{"name":"data","type":"bytes","internalType":"bytes"}],"outputs":[],"stateMutability":"nonpayable"},{"type":"function","name":"setApprovalForAll","inputs":[{"name":"operator","type":"address","internalType":"address"},{"name":"approved","type":"bool","internalType":"bool"}],"outputs":[],"stateMutability":"nonpayable"},{"type":"function","name":"setTransferable","inputs":[{"name":"_transferable","type":"bool","internalType":"bool"}],"outputs":[],"stateMutability":"nonpayable"},{"type":"function","name":"setURI","inputs":[{"name":"newuri","type":"string","internalType":"string"}],"outputs":[],"stateMutability":"nonpayable"},{"type":"function","name":"supportsInterface","inputs":[{"name":"interfaceId","type":"bytes4","internalType":"bytes4"}],"outputs":[{"name":"","type":"bool","internalType":"bool"}],"stateMutability":"view"},{"type":"function","name":"symbol","inputs":[],"outputs":[{"name":"","type":"string","internalType":"string"}],"stateMutability":"view"},{"type":"function","name":"tokenURI","inputs":[{"name":"_tokenId","type":"uint256","internalType":"uint256"}],"outputs":[{"name":"","type":"string","internalType":"string"}],"stateMutability":"view"},{"type":"function","name":"totalSupply","inputs":[],"outputs":[{"name":"","type":"uint256","internalType":"uint256"}],"stateMutability":"view"},{"type":"function","name":"totalSupply","inputs":[{"name":"id","type":"uint256","internalType":"uint256"}],"outputs":[{"name":"","type":"uint256","internalType":"uint256"}],"stateMutability":"view"},{"type":"function","name":"transferOwnership","inputs":[{"name":"newOwner","type":"address","internalType":"address"}],"outputs":[],"stateMutability":"nonpayable"},{"type":"function","name":"transferable","inputs":[],"outputs":[{"name":"","type":"bool","internalType":"bool"}],"stateMutability":"view"},{"type":"function","name":"updateSupply","inputs":[{"name":"_additionalSupply","type":"uint256","internalType":"uint256"}],"outputs":[],"stateMutability":"nonpayable"},{"type":"function","name":"updateWhitelist","inputs":[{"name":"_addresses","type":"address[]","internalType":"address[]"},{"name":"_status","type":"bool","internalType":"bool"}],"outputs":[],"stateMutability":"nonpayable"},{"type":"function","name":"uri","inputs":[{"name":"","type":"uint256","internalType":"uint256"}],"outputs":[{"name":"","type":"string","internalType":"string"}],"stateMutability":"view"},{"type":"function","name":"whitelistOnly","inputs":[],"outputs":[{"name":"","type":"bool","internalType":"bool"}],"stateMutability":"view"},{"type":"event","name":"ApprovalForAll","inputs":[{"name":"account","type":"address","indexed":true,"internalType":"address"},{"name":"operator","type":"address","indexed":true,"internalType":"address"},{"name":"approved","type":"bool","indexed":false,"internalType":"bool"}],"anonymous":false},{"type":"event","name":"OwnershipTransferred","inputs":[{"name":"previousOwner","type":"address","indexed":true,"internalType":"address"},{"name":"newOwner","type":"address","indexed":true,"internalType":"address"}],"anonymous":false},{"type":"event","name":"SupplyUpdated","inputs":[{"name":"newSupply","type":"uint256","indexed":false,"internalType":"uint256"}],"anonymous":false},{"type":"event","name":"TransferBatch","inputs":[{"name":"operator","type":"address","indexed":true,"internalType":"address"},{"name":"from","type":"address","indexed":true,"internalType":"address"},{"name":"to","type":"address","indexed":true,"internalType":"address"},{"name":"ids","type":"uint256[]","indexed":false,"internalType":"uint256[]"},{"name":"values","type":"uint256[]","indexed":false,"internalType":"uint256[]"}],"anonymous":false},{"type":"event","name":"TransferSingle","inputs":[{"name":"operator","type":"address","indexed":true,"internalType":"address"},{"name":"from","type":"address","indexed":true,"internalType":"address"},{"name":"to","type":"address","indexed":true,"internalType":"address"},{"name":"id","type":"uint256","indexed":false,"internalType":"uint256"},{"name":"value","type":"uint256","indexed":false,"internalType":"uint256"}],"anonymous":false},{"type":"event","name":"URI","inputs":[{"name":"value","type":"string","indexed":false,"internalType":"string"},{"name":"id","type":"uint256","indexed":true,"internalType":"uint256"}],"anonymous":false},{"type":"error","name":"ERC1155InsufficientBalance","inputs":[{"name":"sender","type":"address","internalType":"address"},{"name":"balance","type":"uint256","internalType":"uint256"},{"name":"needed","type":"uint256","internalType":"uint256"},{"name":"tokenId","type":"uint256","internalType":"uint256"}]},{"type":"error","name":"ERC1155InvalidApprover","inputs":[{"name":"approver","type":"address","internalType":"address"}]},{"type":"error","name":"ERC1155InvalidArrayLength","inputs":[{"name":"idsLength","type":"uint256","internalType":"uint256"},{"name":"valuesLength","type":"uint256","internalType":"uint256"}]},{"type":"error","name":"ERC1155InvalidOperator","inputs":[{"name":"operator","type":"address","internalType":"address"}]},{"type":"error","name":"ERC1155InvalidReceiver","inputs":[{"name":"receiver","type":"address","internalType":"address"}]},{"type":"error","name":"ERC1155InvalidSender","inputs":[{"name":"sender","type":"address","internalType":"address"}]},{"type":"error","name":"ERC1155MissingApprovalForAll","inputs":[{"name":"operator","type":"address","internalType":"address"},{"name":"owner","type":"address","internalType":"address"}]},{"type":"error","name":"OwnableInvalidOwner","inputs":[{"name":"owner","type":"address","internalType":"address"}]},{"type":"error","name":"OwnableUnauthorizedAccount","inputs":[{"name":"account","type":"address","internalType":"address"}]}],"bytecode":{"object":"0x60806040526001600c553480156200001657600080fd5b506040516200276538038062002765833981016040819052620000399162000292565b878762000046816200013b565b506001600160a01b0381166200007757604051631e4fbdf760e01b8152600060048201526024015b60405180910390fd5b62000082816200014d565b5082841115620000df5760405162461bcd60e51b815260206004820152602160248201527f496e697469616c20737570706c792065786365656473206d617820737570706c6044820152607960f81b60648201526084016200006e565b6006620000ed8782620003ff565b506007620000fc8682620003ff565b506008849055600992909255600a92909255600b805461ffff191692151561ff001916929092176101009115159190910217905550620004cb92505050565b6002620001498282620003ff565b5050565b600380546001600160a01b038381166001600160a01b0319831681179093556040519116919082907f8be0079c531659141344cd1fd0a4f28419497f9722a3daafe3b4186f6b6457e090600090a35050565b80516001600160a01b0381168114620001b757600080fd5b919050565b634e487b7160e01b600052604160045260246000fd5b600082601f830112620001e457600080fd5b81516001600160401b0380821115620002015762000201620001bc565b604051601f8301601f19908116603f011681019082821181831017156200022c576200022c620001bc565b816040528381526020925086838588010111156200024957600080fd5b600091505b838210156200026d57858201830151818301840152908201906200024e565b600093810190920192909252949350505050565b80518015158114620001b757600080fd5b600080600080600080600080610100898b031215620002b057600080fd5b620002bb896200019f565b60208a01519098506001600160401b0380821115620002d957600080fd5b620002e78c838d01620001d2565b985060408b0151915080821115620002fe57600080fd5b6200030c8c838d01620001d2565b975060608b01519150808211156200032357600080fd5b50620003328b828c01620001d2565b9550506080890151935060a089015192506200035160c08a0162000281565b91506200036160e08a0162000281565b90509295985092959890939650565b600181811c908216806200038557607f821691505b602082108103620003a657634e487b7160e01b600052602260045260246000fd5b50919050565b601f821115620003fa57600081815260208120601f850160051c81016020861015620003d55750805b601f850160051c820191505b81811015620003f657828155600101620003e1565b5050505b505050565b81516001600160401b038111156200041b576200041b620001bc565b62000433816200042c845462000370565b84620003ac565b602080601f8311600181146200046b5760008415620004525750858301515b600019600386901b1c1916600185901b178555620003f6565b600085815260208120601f198616915b828110156200049c578886015182559484019460019091019084016200047b565b5085821015620004bb5787850151600019600388901b60f8161c191681555b5050505050600190811b01905550565b61228a80620004db6000396000f3fe608060405234801561001057600080fd5b50600436106101e45760003560e01c8063715018a61161010f578063aff177ca116100a2578063e985e9c511610071578063e985e9c514610402578063f242432a14610415578063f2fde38b14610428578063f5298aca1461043b57600080fd5b8063aff177ca146103b3578063bd85b039146103c6578063c87b56dd146103e6578063d5abeb01146103f957600080fd5b806392ff0d31116100de57806392ff0d311461037857806395d89b41146103855780639cd237071461038d578063a22cb465146103a057600080fd5b8063715018a61461034357806375794a3c1461034b578063771282f6146103545780638da5cb5b1461035d57600080fd5b80632eb2c2d6116101875780634e1273f4116101565780634e1273f4146102db5780634f558e79146102fb5780636b20c4541461031d5780636bd080491461033057600080fd5b80632eb2c2d61461028a578063378dc3dc1461029d5780633af32abf146102a65780634b4687b5146102c957600080fd5b806306fdde03116101c357806306fdde03146102475780630e89341c1461025c57806318160ddd1461026f5780631c3785731461027757600080fd5b8062fdd58e146101e957806301ffc9a71461020f57806302fe530514610232575b600080fd5b6101fc6101f736600461185a565b61044e565b6040519081526020015b60405180910390f35b61022261021d36600461189a565b610476565b6040519015158152602001610206565b610245610240366004611983565b6104c6565b005b61024f6104da565b6040516102069190611a23565b61024f61026a366004611a36565b610568565b6005546101fc565b610245610285366004611a72565b6105fc565b610245610298366004611bb9565b610793565b6101fc60085481565b6102226102b4366004611c62565b600d6020526000908152604090205460ff1681565b600b5461022290610100900460ff1681565b6102ee6102e9366004611cdf565b6107fa565b6040516102069190611d7d565b610222610309366004611a36565b600090815260046020526040902054151590565b61024561032b366004611d90565b6108ce565b61024561033e366004611a36565b610932565b6102456109dd565b6101fc600c5481565b6101fc600a5481565b6003546040516001600160a01b039091168152602001610206565b600b546102229060ff1681565b61024f6109f1565b61024561039b366004611e13565b6109fe565b6102456103ae366004611e2e565b610a19565b6102456103c1366004611e61565b610a28565b6101fc6103d4366004611a36565b60009081526004602052604090205490565b61024f6103f4366004611a36565b610a97565b6101fc60095481565b610222610410366004611ea5565b610ad2565b610245610423366004611ecf565b610b00565b610245610436366004611c62565b610b5f565b610245610449366004611f33565b610b9a565b6000818152602081815260408083206001600160a01b03861684529091529020545b92915050565b60006001600160e01b03198216636cdb3d1360e11b14806104a757506001600160e01b031982166303a24d0760e21b145b8061047057506301ffc9a760e01b6001600160e01b0319831614610470565b6104ce610bd0565b6104d781610bfd565b50565b600680546104e790611f66565b80601f016020809104026020016040519081016040528092919081815260200182805461051390611f66565b80156105605780601f1061053557610100808354040283529160200191610560565b820191906000526020600020905b81548152906001019060200180831161054357829003601f168201915b505050505081565b60606002805461057790611f66565b80601f01602080910402602001604051908101604052809291908181526020018280546105a390611f66565b80156105f05780601f106105c5576101008083540402835291602001916105f0565b820191906000526020600020905b8154815290600101906020018083116105d357829003601f168201915b50505050509050919050565b610604610bd0565b6000805b82518110156106d357600083828151811061062557610625611fa0565b60200260200101519050600b60019054906101000a900460ff16156106ae5780516001600160a01b03166000908152600d602052604090205460ff166106ae5760405162461bcd60e51b8152602060048201526019602482015278149958da5c1a595b9d081b9bdd081dda1a5d195b1a5cdd1959603a1b60448201526064015b60405180910390fd5b60208101516106bd9084611fcc565b92505080806106cb90611fdf565b915050610608565b5060095481600a546106e59190611fcc565b11156107285760405162461bcd60e51b815260206004820152601260248201527145786365656473206d617820737570706c7960701b60448201526064016106a5565b60005b825181101561077757600083828151811061074857610748611fa0565b6020026020010151905061076481600001518260200151610c09565b508061076f81611fdf565b91505061072b565b5080600a600082825461078a9190611fcc565b90915550505050565b336001600160a01b03861681148015906107b457506107b28682610ad2565b155b156107e55760405163711bec9160e11b81526001600160a01b038083166004830152871660248201526044016106a5565b6107f28686868686610ca9565b505050505050565b6060815183511461082b5781518351604051635b05999160e01b8152600481019290925260248201526044016106a5565b600083516001600160401b03811115610846576108466118be565b60405190808252806020026020018201604052801561086f578160200160208202803683370190505b50905060005b84518110156108c6576020808202860101516108999060208084028701015161044e565b8282815181106108ab576108ab611fa0565b60209081029190910101526108bf81611fdf565b9050610875565b509392505050565b6001600160a01b03831633148015906108ee57506108ec8333610ad2565b155b1561092257335b60405163711bec9160e11b81526001600160a01b03918216600482015290841660248201526044016106a5565b61092d838383610d10565b505050565b61093a610bd0565b60095481600a5461094b9190611fcc565b111561098e5760405162461bcd60e51b815260206004820152601260248201527145786365656473206d617820737570706c7960701b60448201526064016106a5565b600081600a5461099e9190611fcc565b600a8190556040518181529091507fea4bfee7f9fb38136c61cc04b6e56efc93eaf1beef326dbc47495b358385914c9060200160405180910390a15050565b6109e5610bd0565b6109ef6000610d56565b565b600780546104e790611f66565b610a06610bd0565b600b805460ff1916911515919091179055565b610a24338383610da8565b5050565b610a30610bd0565b60005b825181101561092d5781600d6000858481518110610a5357610a53611fa0565b6020908102919091018101516001600160a01b03168252810191909152604001600020805460ff191691151591909117905580610a8f81611fdf565b915050610a33565b6060610aa282610568565b610aab83610e3e565b604051602001610abc929190611ff8565b6040516020818303038152906040529050919050565b6001600160a01b03918216600090815260016020908152604080832093909416825291909152205460ff1690565b336001600160a01b0386168114801590610b215750610b1f8682610ad2565b155b15610b525760405163711bec9160e11b81526001600160a01b038083166004830152871660248201526044016106a5565b6107f28686868686610ed0565b610b67610bd0565b6001600160a01b038116610b9157604051631e4fbdf760e01b8152600060048201526024016106a5565b6104d781610d56565b6001600160a01b0383163314801590610bba5750610bb88333610ad2565b155b15610bc557336108f5565b61092d838383610f5e565b6003546001600160a01b031633146109ef5760405163118cdaa760e01b81523360048201526024016106a5565b6002610a24828261206d565b60005b8181101561092d57610c3283600c54600160405180602001604052806000815250610fc6565b610c816040518060400160405280600f81526020016e135a5b9d1959081d1bdad95b881251608a1b815250600c5460405180604001604052806002815260200161746f60f01b81525086611023565b600c8054906000610c9183611fdf565b91905055508080610ca190611fdf565b915050610c0c565b6001600160a01b038416610cd357604051632bfa23e760e11b8152600060048201526024016106a5565b6001600160a01b038516610cfc57604051626a0d4560e21b8152600060048201526024016106a5565b610d098585858585611072565b5050505050565b6001600160a01b038316610d3957604051626a0d4560e21b8152600060048201526024016106a5565b61092d836000848460405180602001604052806000815250611072565b600380546001600160a01b038381166001600160a01b0319831681179093556040519116919082907f8be0079c531659141344cd1fd0a4f28419497f9722a3daafe3b4186f6b6457e090600090a35050565b6001600160a01b038216610dd15760405162ced3e160e81b8152600060048201526024016106a5565b6001600160a01b03838116600081815260016020908152604080832094871680845294825291829020805460ff191686151590811790915591519182527f17307eab39ab6107e8899845ad3d59bd9653f200f220920489ca2b5937696c31910160405180910390a3505050565b60606000610e4b836110c5565b60010190506000816001600160401b03811115610e6a57610e6a6118be565b6040519080825280601f01601f191660200182016040528015610e94576020820181803683370190505b5090508181016020015b600019016f181899199a1a9b1b9c1cb0b131b232b360811b600a86061a8153600a8504945084610e9e57509392505050565b6001600160a01b038416610efa57604051632bfa23e760e11b8152600060048201526024016106a5565b6001600160a01b038516610f2357604051626a0d4560e21b8152600060048201526024016106a5565b60408051600180825260208201869052818301908152606082018590526080820190925290610f558787848487611072565b50505050505050565b6001600160a01b038316610f8757604051626a0d4560e21b8152600060048201526024016106a5565b604080516001808252602082018590528183019081526060820184905260a08201909252600060808201818152919291610d0991879185908590611072565b6001600160a01b038416610ff057604051632bfa23e760e11b8152600060048201526024016106a5565b604080516001808252602082018690528183019081526060820185905260808201909252906107f2600087848487611072565b61106c8484848460405160240161103d949392919061212c565b60408051601f198184030181529190526020810180516001600160e01b0316631f118ca960e21b17905261119d565b50505050565b61107e858585856111a6565b6001600160a01b03841615610d0957825133906001036110b757602084810151908401516110b0838989858589611299565b50506107f2565b6107f28187878787876113bd565b60008072184f03e93ff9f4daa797ed6e38ed64bf6a1f0160401b83106111045772184f03e93ff9f4daa797ed6e38ed64bf6a1f0160401b830492506040015b6d04ee2d6d415b85acef81000000008310611130576d04ee2d6d415b85acef8100000000830492506020015b662386f26fc10000831061114e57662386f26fc10000830492506010015b6305f5e1008310611166576305f5e100830492506008015b612710831061117a57612710830492506004015b6064831061118c576064830492506002015b600a83106104705760010192915050565b6104d7816114a6565b6111b2848484846114c7565b6001600160a01b03841615806111cf57506001600160a01b038316155b61106c57600b5460ff166112255760405162461bcd60e51b815260206004820152601960248201527f5472616e736665727320617265206e6f7420616c6c6f7765640000000000000060448201526064016106a5565b600b54610100900460ff161561106c576001600160a01b0383166000908152600d602052604090205460ff1661106c5760405162461bcd60e51b8152602060048201526019602482015278149958da5c1a595b9d081b9bdd081dda1a5d195b1a5cdd1959603a1b60448201526064016106a5565b6001600160a01b0384163b156107f25760405163f23a6e6160e01b81526001600160a01b0385169063f23a6e61906112dd9089908990889088908890600401612171565b6020604051808303816000875af1925050508015611318575060408051601f3d908101601f19168201909252611315918101906121ab565b60015b611381573d808015611346576040519150601f19603f3d011682016040523d82523d6000602084013e61134b565b606091505b50805160000361137957604051632bfa23e760e11b81526001600160a01b03861660048201526024016106a5565b805181602001fd5b6001600160e01b0319811663f23a6e6160e01b14610f5557604051632bfa23e760e11b81526001600160a01b03861660048201526024016106a5565b6001600160a01b0384163b156107f25760405163bc197c8160e01b81526001600160a01b0385169063bc197c819061140190899089908890889088906004016121c8565b6020604051808303816000875af192505050801561143c575060408051601f3d908101601f19168201909252611439918101906121ab565b60015b61146a573d808015611346576040519150601f19603f3d011682016040523d82523d6000602084013e61134b565b6001600160e01b0319811663bc197c8160e01b14610f5557604051632bfa23e760e11b81526001600160a01b03861660048201526024016106a5565b60006a636f6e736f6c652e6c6f679050600080835160208501845afa505050565b6114d384848484611621565b6001600160a01b038416611586576000805b835181101561156c57600083828151811061150257611502611fa0565b60200260200101519050806004600087858151811061152357611523611fa0565b6020026020010151815260200190815260200160002060008282546115489190611fcc565b9091555061155890508184611fcc565b9250508061156590611fdf565b90506114e5565b50806005600082825461157f9190611fcc565b9091555050505b6001600160a01b03831661106c576000805b83518110156116105760008382815181106115b5576115b5611fa0565b6020026020010151905080600460008785815181106115d6576115d6611fa0565b60200260200101518152602001908152602001600020600082825403925050819055508083019250508061160990611fdf565b9050611598565b506005805491909103905550505050565b80518251146116505781518151604051635b05999160e01b8152600481019290925260248201526044016106a5565b3360005b835181101561175f576020818102858101820151908501909101516001600160a01b03881615611707576000828152602081815260408083206001600160a01b038c168452909152902054818110156116e0576040516303dee4c560e01b81526001600160a01b038a1660048201526024810182905260448101839052606481018490526084016106a5565b6000838152602081815260408083206001600160a01b038d16845290915290209082900390555b6001600160a01b0387161561174c576000828152602081815260408083206001600160a01b038b16845290915281208054839290611746908490611fcc565b90915550505b50508061175890611fdf565b9050611654565b5082516001036117e05760208301516000906020840151909150856001600160a01b0316876001600160a01b0316846001600160a01b03167fc3d58168c5ae7397731d063d5bbf3d657854427343f4c083240f7aacaa2d0f6285856040516117d1929190918252602082015260400190565b60405180910390a45050610d09565b836001600160a01b0316856001600160a01b0316826001600160a01b03167f4a39dc06d4c0dbc64b70af90fd698a233a518aa5d07e595d983b8c0526c8f7fb868660405161182f929190612226565b60405180910390a45050505050565b80356001600160a01b038116811461185557600080fd5b919050565b6000806040838503121561186d57600080fd5b6118768361183e565b946020939093013593505050565b6001600160e01b0319811681146104d757600080fd5b6000602082840312156118ac57600080fd5b81356118b781611884565b9392505050565b634e487b7160e01b600052604160045260246000fd5b604080519081016001600160401b03811182821017156118f6576118f66118be565b60405290565b604051601f8201601f191681016001600160401b0381118282101715611924576119246118be565b604052919050565b60006001600160401b03831115611945576119456118be565b611958601f8401601f19166020016118fc565b905082815283838301111561196c57600080fd5b828260208301376000602084830101529392505050565b60006020828403121561199557600080fd5b81356001600160401b038111156119ab57600080fd5b8201601f810184136119bc57600080fd5b6119cb8482356020840161192c565b949350505050565b60005b838110156119ee5781810151838201526020016119d6565b50506000910152565b60008151808452611a0f8160208601602086016119d3565b601f01601f19169290920160200192915050565b6020815260006118b760208301846119f7565b600060208284031215611a4857600080fd5b5035919050565b60006001600160401b03821115611a6857611a686118be565b5060051b60200190565b60006020808385031215611a8557600080fd5b82356001600160401b03811115611a9b57600080fd5b8301601f81018513611aac57600080fd5b8035611abf611aba82611a4f565b6118fc565b81815260069190911b82018301908381019087831115611ade57600080fd5b928401925b82841015611b285760408489031215611afc5760008081fd5b611b046118d4565b611b0d8561183e565b81528486013586820152825260409093019290840190611ae3565b979650505050505050565b600082601f830112611b4457600080fd5b81356020611b54611aba83611a4f565b82815260059290921b84018101918181019086841115611b7357600080fd5b8286015b84811015611b8e5780358352918301918301611b77565b509695505050505050565b600082601f830112611baa57600080fd5b6118b78383356020850161192c565b600080600080600060a08688031215611bd157600080fd5b611bda8661183e565b9450611be86020870161183e565b935060408601356001600160401b0380821115611c0457600080fd5b611c1089838a01611b33565b94506060880135915080821115611c2657600080fd5b611c3289838a01611b33565b93506080880135915080821115611c4857600080fd5b50611c5588828901611b99565b9150509295509295909350565b600060208284031215611c7457600080fd5b6118b78261183e565b600082601f830112611c8e57600080fd5b81356020611c9e611aba83611a4f565b82815260059290921b84018101918181019086841115611cbd57600080fd5b8286015b84811015611b8e57611cd28161183e565b8352918301918301611cc1565b60008060408385031215611cf257600080fd5b82356001600160401b0380821115611d0957600080fd5b611d1586838701611c7d565b93506020850135915080821115611d2b57600080fd5b50611d3885828601611b33565b9150509250929050565b600081518084526020808501945080840160005b83811015611d7257815187529582019590820190600101611d56565b509495945050505050565b6020815260006118b76020830184611d42565b600080600060608486031215611da557600080fd5b611dae8461183e565b925060208401356001600160401b0380821115611dca57600080fd5b611dd687838801611b33565b93506040860135915080821115611dec57600080fd5b50611df986828701611b33565b9150509250925092565b8035801515811461185557600080fd5b600060208284031215611e2557600080fd5b6118b782611e03565b60008060408385031215611e4157600080fd5b611e4a8361183e565b9150611e5860208401611e03565b90509250929050565b60008060408385031215611e7457600080fd5b82356001600160401b03811115611e8a57600080fd5b611e9685828601611c7d565b925050611e5860208401611e03565b60008060408385031215611eb857600080fd5b611ec18361183e565b9150611e586020840161183e565b600080600080600060a08688031215611ee757600080fd5b611ef08661183e565b9450611efe6020870161183e565b9350604086013592506060860135915060808601356001600160401b03811115611f2757600080fd5b611c5588828901611b99565b600080600060608486031215611f4857600080fd5b611f518461183e565b95602085013595506040909401359392505050565b600181811c90821680611f7a57607f821691505b602082108103611f9a57634e487b7160e01b600052602260045260246000fd5b50919050565b634e487b7160e01b600052603260045260246000fd5b634e487b7160e01b600052601160045260246000fd5b8082018082111561047057610470611fb6565b600060018201611ff157611ff1611fb6565b5060010190565b6000835161200a8184602088016119d3565b83519083019061201e8183602088016119d3565b01949350505050565b601f82111561092d57600081815260208120601f850160051c8101602086101561204e5750805b601f850160051c820191505b818110156107f25782815560010161205a565b81516001600160401b03811115612086576120866118be565b61209a816120948454611f66565b84612027565b602080601f8311600181146120cf57600084156120b75750858301515b600019600386901b1c1916600185901b1785556107f2565b600085815260208120601f198616915b828110156120fe578886015182559484019460019091019084016120df565b508582101561211c5787850151600019600388901b60f8161c191681555b5050505050600190811b01905550565b60808152600061213f60808301876119f7565b856020840152828103604084015261215781866119f7565b91505060018060a01b038316606083015295945050505050565b6001600160a01b03868116825285166020820152604081018490526060810183905260a060808201819052600090611b28908301846119f7565b6000602082840312156121bd57600080fd5b81516118b781611884565b6001600160a01b0386811682528516602082015260a0604082018190526000906121f490830186611d42565b82810360608401526122068186611d42565b9050828103608084015261221a81856119f7565b98975050505050505050565b6040815260006122396040830185611d42565b828103602084015261224b8185611d42565b9594505050505056fea2646970667358221220e2cf6bf0d42e2d84be67096a31a959c69aeb96cf7d9a8e64f402674d593a054364736f6c63430008140033","linkReferences":{}},"methodIdentifiers":{"balanceOf(address,uint256)":"00fdd58e","balanceOfBatch(address[],uint256[])":"4e1273f4","burn(address,uint256,uint256)":"f5298aca","burnBatch(address,uint256[],uint256[])":"6b20c454","currentSupply()":"771282f6","distribute((address,uint256)[])":"1c378573","exists(uint256)":"4f558e79","initialSupply()":"378dc3dc","isApprovedForAll(address,address)":"e985e9c5","isWhitelisted(address)":"3af32abf","maxSupply()":"d5abeb01","name()":"06fdde03","nextTokenId()":"75794a3c","owner()":"8da5cb5b","renounceOwnership()":"715018a6","safeBatchTransferFrom(address,address,uint256[],uint256[],bytes)":"2eb2c2d6","safeTransferFrom(address,address,uint256,uint256,bytes)":"f242432a","setApprovalForAll(address,bool)":"a22cb465","setTransferable(bool)":"9cd23707","setURI(string)":"02fe5305","supportsInterface(bytes4)":"01ffc9a7","symbol()":"95d89b41","tokenURI(uint256)":"c87b56dd","totalSupply()":"18160ddd","totalSupply(uint256)":"bd85b039","transferOwnership(address)":"f2fde38b","transferable()":"92ff0d31","updateSupply(uint256)":"6bd08049","updateWhitelist(address[],bool)":"aff177ca","uri(uint256)":"0e89341c","whitelistOnly()":"4b4687b5"},"id":41}